:020000040000FA
:06000000020107022024AA
:03002B0002247339
:030033000224554F
:0300530002209AEE
:03006B0002242F3D
:10008300021ED3E5C754F84401F5C77901220000E5
:100093000080FB120086B900030200F1E4792178A5
:1000A30008B800028004F709D8FCE479297802B87B
:1000B30000028004F709D8FCE490028178A679074E
:1000C3008002F0A3D8FCD9FA7A267B09900137780D
:1000D3000279048015E493A3AD82AE838A828B8375
:1000E300F0A3AA82AB838D828E83D8E9D9E7758288
:1000F3004675839874031201197582917583007490
:100103000012011975D00075813F751881751902A8
:10011300759F00020096C09FF59FE473D09F22D085
:1001230083D082C09FE493C0E0740193C0E0740263
:1001330093F59F22FF0000B4000028002800283018
:1001430075A000A000A000A00000080008E001F0D6
:10015300001000100010001000100010005000509C
:1001630000500010001000D0070000000000000F36
:100173000001000500307507001000010081FF0039
:10018300000000FF360654063C06FF020202080286
:100193005000A0000000E80302B390010000849027
:1001A30002B1900100007D09029590010000B302A5
:1001B30002B1900100007E09028790010000C9028C
:1001C30002B1900100007F09028990010000CB0277
:1001D30002B1900100008009028B90080000CC025C
:1001E30002B1900100008109028D90010000820993
:1001F300FF0100FF2002B3900100007E9002B19046
:10020300010000E609028F900000000000029790B1
:100213000300001903660C660C660C660C660C661C
:100223000C660C660C660C660C660C660C660C3C65
:100233000F540F360FFFFF020202020202020202F4
:10024300010D000000100102B39001000081900233
:10025300B190010000290A02AB900100005D070282
:10026300B1900100002A0A02A5900100005B8F02F1
:10027300B1900100002B0A02A3900100004D8F02F0
:10028300B1900100002C0A02A190010000B98E0276
:10029300B1900100002D0A029F90010000958E028B
:1002A300B1900100002E0A029D90010000CB8E0246
:1002B300B1900100002F0A029B90010000A78E025B
:1002C300B190010000300A0299900100003F8F02B3
:1002D300B190010000310A02C190010000320A010D
:1002E300E803053F100AFF00013075030201060011
:1002F30000000000000000000000000000000000FB
:100303000000000000000000000000FFFF06008066
:100313000CE803140953696D706C65424C455065D4
:10032300726970686572616C051250002003020ADD
:10033300000201060302F0FF53696D706C652042F1
:100343004C45205065726970686572616C62130078
:100353000068130A43686172616374657269737438
:100363006963203100024368617261637465726975
:100373007374696320320008436861726163746552
:100383007269737469632033001043686172616337
:10039300746572697374696320340002436861721F
:1003A3006163746572697374696320350002B39085
:1003B3000100007B9002B190010000450B02B9904F
:1003C300030000170902A790010000460B02B19039
:1003D300010000570B02BB90010000180902A7900F
:1003E300010000580B02B190010000690B02BD909F
:1003F300020000190902A7900100006A0B02B190E4
:100403000100007B0B02BF900000001A09029790C5
:100413000300001B0902A7900100007C0B02B190AE
:100423000100008D0B02AD90040000210902A7908A
:100433000100008E0B120122DC8703120122F387D5
:10044300031201222488031201225F88031201226E
:10045300898803120122B38803120122CA88031276
:100463000122E18803120122F88803120122218963
:10047300031201223489031201224A890312012241
:100483005D89031201228489031201220198021259
:1004930001220599021201223D990212012260995B
:1004A300021201226B99021201228E990212012279
:1004B3009D9A02120122729B02120122ED9B0212EB
:1004C3000122759C02120122B09C02120122E79CB8
:1004D30002120122759D021201224E9E0212012276
:1004E300AE9E02120122B99E02120122389F02120D
:1004F30001223B9F021201223E9F02120122CD9F45
:1005030002120122D09F0212012200A00212012234
:100513002AA00212012218A102120122CAA1021268
:1005230001223ADB0212012262DB0212012290DB7A
:1005330002120122C7DB0212012225DC0212012270
:1005430070DC02120122BBDC02120122FBDC02126C
:10055300012241DD021201226FDD021201222CDE93
:100563000212012236DE0212012243DE02120122AE
:1005730076DE0212012242DF021201224EDF021254
:10058300012266DF0212012270DF0212012233947C
:1005930003120122419403120122599403120122EE
:1005A300719403120122BAB00112012266B1011241
:1005B3000122E1B10112012202B3011201223EB371
:1005C30001120122E7B301120122CEB4011201226A
:1005D30032B60112012289B6011201220AB70112B1
:1005E3000122FAB70112012247B801120122CDB844
:1005F30001120122FFB80112012213BB01120122D1
:1006030055BB0112012273BB01120122F6BB011279
:100613000122CABC0112012292BD0112012269C545
:10062300021201223CC602120122E5C60212012275
:1006330038C702120122E8C70212012274C802124B
:10064300012260C9021201228FC902120122A2CA29
:1006530002120122EACA02120122BFCB02120122B4
:10066300FBCB0212012217CC02120122F9960312CC
:10067300012221ED0212012237ED021201225DED6A
:100683000212012279EE0212012283EE02120122EA
:10069300B8EF02120122B0F0021201228CCC021236
:1006A3000122BCCD02120122EFCD0212012239CE6A
:1006B3000212012200D002120122CBA00112012258
:1006C30035A10112012294A201120122A4A2011256
:1006D3000122D1A20112012228A301120122D1A3D6
:1006E30001120122D8A401120122A2A501120122A2
:1006F30002A70112012245A701120122EAA7011252
:10070300012237A8011201225DA8011201226BAA5E
:100713000112012270AA0112012275AC01120122F9
:10072300C2AC0112012235AD0112012268AD0112E2
:1007330001220AAE01120122B3AE01120122EBAE75
:1007430001120122EEAE0112012236AF0112012283
:1007530076AF01120122CDAF0112012200800312F4
:100763000122188003120122608003120122768085
:1007730003120122BD8003120122D181031201223F
:100783005E8203120122A982031201229C24001219
:100793000122A82400120122E324001201222825A9
:1007A30000120122E825001201226E260012012206
:1007B300D32600120122FF2600120122382700123D
:1007C30001227629001201225A2B00120122402D08
:1007D30000120122832E00120122D13000120122C5
:1007E300E331001201222E33001201223E340012A3
:1007F30001225B3400120122963400120122B83424
:10080300001201221B3500120122DC3900120122E1
:10081300713A00120122C23A00120122E93A00128F
:1008230001223B3B00120122593B00120122B33B40
:10083300001201229C3C00120122123E00120122EE
:10084300963E00120122F7DF0212012201E002129A
:10085300012244E0021201225FE002120122EFE0D2
:100863000212012217E10212012254E102120122B3
:100873008BE102120122B4E10212012229E20212E7
:1008830001223EE20212012253E20212012284E219
:100893000212012298E202120122BDE20212012297
:1008A300F7E20212012223E3021201225BE30212A6
:1008B3000122DAE30212012223E4021201224DE4AF
:1008C3000212012278E4021201221F910312012273
:1008D3000080021201222E80021201227C81021268
:1008E30001225C82021201227B8202120122F8821F
:1008F300021201223B83021201229184021201227D
:10090300528502120122D987021201227A88021229
:1009130001227089021201226D8A02120122C78B01
:1009230002120122528C02120122C48F03120122ED
:100933002D9003120122819003120122A890031229
:100943000122D99003120122A0E4021201220DE533
:100953000212012254E5021201226CE60212012264
:1009630068E7021201224BE8021201224CF701123E
:1009730001228EF70112012260F80112012239F9D6
:100983000112012233FA0112012215FB0112012285
:100993007EFB0112012234FC01120122A8FC011288
:1009A300012214FD011201223DFD01120122B7FDB6
:1009B3000112012250FE01120122B5FE0112012291
:1009C300CAFE0112012210FF0112012229FF0112A6
:1009D30001228EFF0112012291FF01120122DBFA93
:1009E3000212012203FB0212012241FB0212012225
:1009F300FFFB0212012266FC0212012282FC021298
:100A03000122AAFC02120122DAFC02120122E9FCF1
:100A13000212012266FD021201228CFD0212012242
:100A2300C490011201226292011201227D940112EB
:100A33000122B99401120122E69401120122CB95FD
:100A4300011201221296011201225696011201226D
:100A5300689601120122A89601120122D59601126D
:100A630001222097011201226097011201228E9721
:100A730001120122E0970112012270980112012252
:100A83000E9B01120122249D01120122629D01127B
:100A93000122F39E01120122389F01120122AF9F0E
:100AA30001120122F99F0112012224A00112012245
:100AB30005AC0212012284AC0212012246B20212D8
:100AC300012255B302120122BDB40212012254B510
:100AD3000212012227530012012270530012012235
:100AE3009D5300120122D05300120122DD53001244
:100AF3000122E95300120122FB5300120122E254A6
:100B030000120122405500120122755500120122E4
:100B1300B85600120122055700120122295700126C
:100B230001229657001201225458001201220D5936
:100B3300001201227A59001201222C5A00120122BA
:100B43003C5A00120122C35A00120122825B001296
:100B53000122AF5B00120122285C00120122855C96
:100B630000120122CF5C00120122655D00120122F6
:100B7300305E00120122E55E001201225A5F00126C
:100B83000122BB5F001201222560001201225E6078
:100B930000120122006100120122106200120122E0
:100BA3005062001201226D62001201228C62001257
:100BB3000122D36200120122F8620012012225638E
:100BC300001201229F6300120122E063001201223E
:100BD300046500120122B465001201220B660012A3
:100BE30001227566001201228E66001201223BA2C9
:100BF300021201228EA2021201229AA202120122E1
:100C03006FA30212012296A302120122D1A30212A0
:100C130001223DA40212012279A402120122B2A4EC
:100C230002120122CAA4021201221FA502120122EA
:100C330038A50212012281A50212012294A50212F3
:100C43000122AEA502120122C4A502120122F7A6B7
:100C5300021201223EA80212012240A9021201221D
:100C63003AAA02120122FD7F0012012215EA0112A3
:100C7300012245EA011201220DEE0112012264EF65
:100C8300011201222DF001120122ADF10112012204
:100C93007EF201120122BBF201120122DEF20112E5
:100CA30001221CF30112012225F3011201226FF329
:100CB3000112012279F30112012223F4011201220C
:100CC300FCF40112012250F501120122B2F50112C6
:100CD300012205F60112012234F60112012271F6F6
:100CE30001120122C06600120122276A00120122AA
:100CF3002D6A00120122AF6F001201222874001224
:100D03000122FE770012012250F402120122C6F4DE
:100D130002120122DCF4021201221DF50212012249
:100D230057F502120122D0F5021201220BF602122C
:100D330001227EF602120122BCF602120122C5F63E
:100D430002120122D1F602120122EDF60212012251
:100D530018F7021201222EF70212012272F7021271
:100D6300012277D6021201228AD602120122A4D6C8
:100D730002120122CDD60212012210D70212012241
:100D83004FD7021201228DD702120122F2D702128B
:100D9300012207D80212012212D8021201221FD8FF
:100DA3000212012236D80212012244D80212012271
:100DB3004FD8021201225BD8021201226ED802120E
:100DC300012279D8021201229CD80212012243D9AE
:100DD3000212012253D9021201226DD902120122F9
:100DE3008AD902120122A6D902120122CBD90212F8
:100DF3000122D6D902120122EBD902120122FFD914
:100E03000212012260DA0212012266DA02120122C0
:100E13006CDA0212012272DA021201228ADA021257
:100E23000122BDDA021201221CCE01120122A0CE40
:100E3300011201224FCF01120122AED00112012271
:100E4300CFD201120122BBD301120122F0D301122E
:100E5300012212D401120122C1D401120122B9D6F6
:100E630001120122E2D60112012274D701120122DA
:100E7300A6D701120122B3D7011201220AD8011207
:100E8300012230D8011201229DDA01120122A0DBD6
:100E930001120122F8DB01120122ABBF0112012270
:100EA300B5C0011201229CC101120122A6C1011287
:100EB3000122C8C101120122D4C1011201226DC352
:100EC300011201229CC301120122B8C401120122A2
:100ED30011C50112012277C60112012256C7011260
:100EE3000122B2C7011201221FC8011201225AC8EE
:100EF3000112012299C80112012252CB01120122CF
:100F03006CCB01120122F8CB0112012206CC011293
:100F130001225FCC011201226DCC01120122E0CC2F
:100F23000112012244CD011201228ECD01120122B0
:100F3300D38C02120122F58C021201221B8F0212A2
:100F43000122309202120122489302120122FB93E2
:100F530002120122DD940212012296890312012258
:100F6300BB89031201222D8A031201224D7800123C
:100F730001225678001201225F780012012236798D
:100F830000120122E77A001201221D7B00120122C6
:100F9300577B001201228D7B00120122C77B0012B6
:100FA3000122FB7B00120122277C00120122707CAC
:100FB30000120122AA7C00120122F37C00120122FA
:100FC3004B7D00120122807D00120122DB7D001285
:100FD3000122157E00120122667E001201229C7EF0
:100FE30000120122D67E00120122047F0012012288
:100FF300277F00120122C09503120122EC950312F0
:10100300012247960312012251960312012261968F
:101013000312012274BD021201227EBD02120122BB
:10102300BCBD0212012205BE021201223FBE021202
:10103300012295BE02120122B6BE021201223BC159
:101043000212012244C1021201228FC102120122A3
:10105300B8C102120122C2C1021201222EC202121F
:101063000122C4C2021201220EC3021201223EC394
:1010730002120122C7C30212012207C40212012273
:101083003FC40212012251C40212012270C402128F
:10109300012279C4021201223FC5021201223C93AC
:1010A30003120122D4FD021201220AFE02120122BE
:1010B30040FE0212012289FF021201227D970312D0
:1010C30001229397031201229D9703120122E797AE
:1010D300031201220DE90212012222E90212012266
:1010E300D5E90212012215EA021201222EEA0212A6
:1010F300012262EA02120122AFEA02120122E3EAAA
:101103000212012225EB02120122508E0312012248
:10111300798E03120122A28E031201223D8F031244
:1011230001227F8F03120122D38203120122F8824C
:10113300031201222283031201229998031201222E
:10114300FD3E0012012261410012012212430012EE
:1011530001221444001201229D4400120122214560
:10116300001201224645001201227F48001201228B
:10117300F34800120122E449001201221E4A001220
:1011830001225E4A00120122114C00120122644C1A
:1011930000120122AD4C001201221B4D001201224C
:1011A3004D4D00120122654D001201227A4E0012AC
:1011B30001228A4E00120122A54F00120122C74FBD
:1011C30000120122FD4F00120122A151001201223F
:1011D300E051001201220253001201220A95031268
:1011E30001221B9503120122B5FF01120122F4FF14
:1011F30001120122EFFF021201226B960312012258
:101203007B9603120122909603120122F696031293
:101213000122389203120122BD9203120122239369
:1012230003120122D88C03120122018D0312012221
:101233006C8D03120122BD8D03120122168E03123F
:101243000122A2F702120122B7F702120122CDF8FE
:10125300021201224FF902120122C3F902120122E2
:10126300DDF902120122F4F90212012207FA021235
:1012730001221FFA0212012234FA0212012255FA44
:1012830002120122A6FA0212012226990312012256
:101293003B8B031201228B8B03120122148C03124A
:1012A30001227A8C031201229F8503120122C98530
:1012B300031201228F86031201226A87031201227D
:1012C3007EB5021201223BB60212012276B6021249
:1012D30001229EB60212012200B7021201224CB76C
:1012E30002120122ACB7021201223FB802120122FC
:1012F3003EB902120122CDBA0212012250BB0212E0
:101303000122B7BB02120122CEBB02120122D8BCBA
:101313000212012216BD0212012246DC0112012231
:10132300A6DF011201222EE10112012285E1011241
:101333000122A4E10112012222E201120122B2E3FD
:101343000112012296E401120122A2E801120122F4
:1013530072E901120122B3D102120122FAD302125D
:10136300012299D40212012215D602120122BAF0E7
:1013730002120122FFF0021201221CF102120122C9
:10138300D2F10212012225F20212012203F3021208
:10139300012217F402120122C3FF02120122C77FA6
:1013A30000120122E09803120122089903E06670FB
:1013B3001008A3E066700A08A3E066700408A3E0BF
:1013C3006622C3E7960809E7960809E7960809E73E
:1013D3009622C3E09608A3E09608A3E09608A3E04C
:1013E3009622C008C3E096F50808A3E096420808D1
:1013F300A3E096420808A3E09645087001D3D008FD
:1014030022080808EAC0E0EBC0E086F0E7A4FA1877
:101413000986F0E7A42AFA180986F0E7A42AFA183D
:101423000986F0E7A42AFA1986F0E7A4FBE5F02A77
:10143300FA190886F0E7A42BFBE5F03AFA190886B7
:10144300F0E7A42BFBE5F03AFA18180986F0E7A4B5
:10145300C5F02BFBE43AFA1908E7C5F0C6A426F653
:10146300E5F03BFBE43AFA1886F0E7A4F6E5F0086A
:1014730026F6E43B08F6E43A08F6D0E0FBD0E0FABF
:1014830022E4CFC0E0E4CEC0E0E4CDC0E0E4CCC0D1
:10149300E075F020E626F608E633F608E633F608AC
:1014A300E633F6181818EC33FCED33FDEE33FEEF9C
:1014B30033FFC3EC9709ED9709EE9709EF971919D5
:1014C30019400FFFEC97FC09ED97FD09EE97FE1904
:1014D3001906D5F0BFECF709EDF709EEF709EFF7B9
:1014E300191919D0E0FCD0E0FDD0E0FED0E0FF22D6
:1014F3006016080808C6C313C618C613C618C61351
:10150300C618C613C6D5E0EA227009080808226087
:1015130016181818C6C333C608C633C608C633C65A
:1015230008C633C6D5E0EA22E627F60809E637F609
:101533000809E637F60809E637F622E026F608A397
:10154300E036F608A3E036F608A3E036F622E026F6
:10155300F008A3E036F008A3E036F008A3E036F085
:1015630022C3E697F60809E697F60809E697F60810
:1015730009E697F622C3E096F008A3E096F008A3E5
:10158300E096F008A3E096F022E056F608A3E056B2
:10159300F608A3E056F608A3E056F622E056F00854
:1015A300A3E056F008A3E056F008A3E056F022E0CB
:1015B300F608A3E0F608A3E0F608A3E0F622E6F0B7
:1015C30008A3E6F008A3E6F008A3E6F022E0FAA3F6
:1015D300E0FBA3E0FCA3E0FD22EAF0A3EBF0A3EC25
:1015E300F0A3EDF022E0F8A3E0F9A3E0FAA3E0FB17
:1015F30022E8F0A3E9F0A3EAF0A3EBF022CAC0E0EB
:10160300E6F0A308DAFAD0E0FA22CAC0E0E0A3C504
:1016130082CCC582C583CDC583F0A3C582CCC582E8
:10162300C583CDC583DAE6D0E0CA22C3E498F8E4E3
:1016330099F912166F8026C3E49AFAE49BFBE9201A
:10164300E7E912166FE498F8E499F922C3E498F8ED
:10165300E499F912166FE498F8E499F9C3E49AFA55
:10166300E49BFB22EB20E7CFE920E7E0B90010BBC6
:101673000008E88AF084F8AAF022E4FBC8FA22EB17
:1016830070227B10C833C8C933C9335007C39AC308
:10169300DBF280069A50012ADBEAC833F4C8C93367
:1016A300F4C9FA2275F008E4C833C8C933C933C989
:1016B3009AC99B5004C92AC93BD5F0ECFBC833F443
:1016C300C8E4C9FA22600D08C6A2E713C618C613F8
:1016D300C6D5E0F322600C08C6C313C618C613C6EA
:1016E300D5E0F422700422600D18C6C333C608C6C1
:1016F30033C6D5E0F41822251810AF08F518400CAE
:1017030015198008F51840021519D2AF2200C0D070
:10171300251810AF08F518500C05198008F5185056
:10172300020519D2AFD0D0222518F58210AF08F5E3
:1017330018400C15198008F51840021519D2AF8509
:101743001983222518F582E43519F583222518F823
:10175300E43519F9222518FAE43519FB222518FC7A
:10176300E43519FD22E4732518C582C0E0E5193478
:10177300FFC583C0E0E518C3958224F810AF088540
:1017830083198582188008858319858218D2AFCE84
:10179300F0A3E520F0A37808E608F0A3DEFAEFF063
:1017A300A3E58124FAF8E608F0A3E608F0A3E60827
:1017B300F0A30808E608F0A3E608F0A31581158155
:1017C300D0E0FED0E0F8158115811581E8C0E0EE88
:1017D300C0E0222518C582C0E0E51934FFC583C0E7
:1017E300E0E518C3958224F910AF08858319858233
:1017F300188008858319858218D2AFCEF0A3E5201F
:10180300F0A37808E608F0A3DEFAEFF0A3E581245D
:10181300FBF8E608F0A3E608F0A30808E608F0A33F
:10182300E608F0A315811581D0E0FED0E0F815811C
:101833001581E8C0E0EEC0E022851983851882E0B7
:10184300A3FEE0A3F5207808E0A3F608DFFAE0A3FF
:10185300FFE0A3C0E0E0A3C0E0E0A3C0E0E0A3C0DA
:10186300E0E0A3C0E010AF088582188583198008E3
:10187300858218858319D2AFD083D08202011F8558
:101883001983851882E0A3FEE0A3F5207808E0A37E
:10189300F608DFFAE0A3FFE0A3C0E0E0A3C0E0E0C6
:1018A300A3C0E0E0A3C0E010AF08858218858319C8
:1018B3008008858218858319D2AFD083D08222C055
:1018C300D02518C582C0E0E51934FFC583C0E0E523
:1018D30018C3958224F310AF088583198582188075
:1018E30008858319858218D2AFC8F0A3E9F0A3EA6B
:1018F300F0A3EBF0A37908E709F0A3D8FAECF0A37F
:10190300EDF0A3EEF0A3EFF0A3D0E0F0A3D0E0F06E
:10191300A3D0E0F0A3E520F0A3E5F0F0A32285191E
:1019230083851882E0C0E0A3E0F9A3E0FAA3E0FB1B
:10193300A37808E0F608A3DFFAE0FCA3E0FDA3E048
:10194300FEA3E0FFA3E0C0E0A3E0C0E0A3E0F5D086
:10195300A3E0F520A3E0A3F5F010AF088583198574
:1019630082188008858319858218D2AFD082D083EC
:10197300D0E0F8D0E032740480067402800274016F
:10198300C0E0F40412172BD0E01216002274048076
:101993000474028000CCC0E0EDC0E0E518C39CCC29
:1019A300AD1950011D10AF068C188D1980068C18C7
:1019B3008D19D2AF12160DD0E0FDD0E0FC22D083FA
:1019C300D082E9C0E0E493A3C386F0C5F095F0F9B3
:1019D30008E493A386F0C5F095F0700BE493A3C3DA
:1019E300994005E9048002A3E475F002A42582F579
:1019F30082E5F03583F583D0E0F9E493A3C0E0E416
:101A030093C0E022D083D082ECC0E0EDC0E0E49349
:101A1300A3FCE493A3FDED4C600D121A53EC24FFD9
:101A2300FCED34FFFD80EFE493A3FCE493A3FDED11
:101A33004C600D121A92EC24FFFCED34FFFD80EF95
:101A4300D0E0FDD0E0FCE493A3C0E0E493C0E02247
:101A5300C0E0C3E49396087401939618400FE4938F
:101A630066700808740193661870007019A3A3C305
:101A7300E49396087401939618A3A3400DD0E0D085
:101A8300E0D0E0021A43A3A3A3A3A3A3D0E022C000
:101A9300E0C0F088F0E49366700808740193661858
:101AA3007000A8F0A3A3700BD0F0D0E0D0E0D0E09A
:0A1AB300021A43A3A3D0F0D0E022F2
:101AC00074F51217D6EAFEEBFFEE2434F8EF34007B
:101AD000F988088909EE2435121BECF8EE24371238
:101AE0001BECF50AEC850AF0A4FCAAF0850AF0EDDF
:101AF000A42AFDE82CF8E43DF97A257B0012166F44
:101B0000EA850882850983F074075AF87401B800E1
:101B1000028004C333D8FCFBEA131313541FF8EEFE
:101B200028F8EF3400F9E8245DF582E9121BEF5B39
:101B30006003EA801CEE2436121BECF5F0EA84A860
:101B4000F0EE28F8EF3400F9E82438F582E9121BAA
:101B5000EFF97F0402188274F51217D6EAFEEBFF44
:101B6000EE2434121BECC0E0EE2435F582EF340095
:101B7000F583D0E0F08E828F83A3A3A3A3A3E0FA22
:101B8000A3E0FB8E828F83A3A3A3A3A3A3A3E0FC64
:101B9000A3E0FDECC39AF50AED9BF50BEE247FF56F
:101BA00008EF3400F509850882F583E06401702BA5
:101BB000EE2480F582EF3400F583121994121BF5A0
:101BC0007402121710E960137CDC7D04EEFAEFFB5F
:101BD000120B8E850882850983E4F0AC0AAD0BEE0A
:101BE000FAEFFB121AC012241B021B52F582EF34CB
:101BF00000F583E022C082C083851882851983E0C6
:101C0000F8A3E0F9C3EA9CEB9D5010C3EC98ED9962
:101C1000401BC3EA98EB995014800EC3EA98EB99E5
:101C20004007C3EC98ED994004790180027900D017
:101C300083D08222EAC39CFAEB9DFB2274ED12173B
:101C4000D69003A2E064086005E06407702C906100
:101C5000C8E060269003D0E0F874FF68601CE87567
:101C6000F003A4C8AAF02AF974D228FE740339FF3D
:101C70008E828F83A3A3A3E070057900021DDCEEA2
:101C80002468F510EF3400F511906060E085108253
:101C9000851183F0750A45750B05750800750900F7
:101CA000E5D914F50EE5D95403F50F601CEE248236
:101CB000F50CEF3400F50D7403650F6058E50E6008
:101CC00013EE2467121BEC700B793DEEFAEFFB125A
:101CD0000BB280A6900540E064016026850C8285E9
:101CE0000D83E06004780480027800850E08E50822
:101CF000C398FA95E0FB120A328A088B09EA450973
:101D00007006120E0A021C7A850C82850D83E07023
:101D1000048A0A8B0B78008016E5D9C0E08812E5AA
:101D20000A2512F582E50B3400F583D0E0F008E8CF
:101D3000C3950E40E4850C82850D83E0602874FC19
:101D4000250EF50E780A12197DAC0EA90FEEFAEFEA
:101D5000FB120C607402121710E9700AAA08AB0992
:101D6000121296021CC97403650F6058850E0C751B
:101D70000D00780C12197DAC0AAD0BAA08AB091244
:101D80000C247402121710851082851183E0F874F8
:101D900080687005750C7F8002880CE50CF50A7868
:101DA0000A121981E50FF50A780A121981A90EACF9
:101DB00008AD099003D0E0FA7B001208CA74021241
:101DC000171080139003A2E06408600BAC0AAD0BFF
:101DD000EEFAEFFB120CF6120E1679017F0C0218C8
:101DE0008274F31217D674FC1216FAEAFEEBFF891E
:101DF00008A2AFE433F509C2AFEE2463F50AEF346D
:101E000000F50B8010AA0AAB0B120BDC1212969095
:101E100004E3E004F0850A82850B83E0F8A3E0F98F
:101E2000E849602FE82402FAE93400FBEA2402F5CD
:101E30000CEB3400F50D780C12197D8A828B83E04F
:101E4000FCA3E0F9EEFAEFFB120BD07402121710AC
:101E5000E960B29004E3E060579004E4E0F8900495
:101E6000E3E0C398500C7402650870449004E5E008
:101E7000603E8E828F83A3A3A3A3E0851882851979
:101E800083121EC07402121746E8121EC09004E2AC
:101E9000E028F07402121746AC82AD838518828563
:101EA0001983AA82AB8379011208D69004E3E4F087
:101EB000E509A2E092AF74041217107F060218829F
:101EC000F0A3E4F09004E3E0F82200008521878588
:101ED00022C622C0E074EF1218C2A2AFE433FEC2E1
:101EE000AF759B00906182E0A2E05012E591A2E004
:101EF000500C7591FE740165217003121C3CE0A228
:101F0000E55051E591A2E5504B7591DF9003A2E0B9
:101F100064076005E06408702374016521703579F9
:101F2000019003D0E0FA75F003A4CAA8F028FB746E
:101F3000D22AFA74033BFB121DE18018E0640D7095
:101F4000139003C4E004F064287002E4F07A00E027
:101F5000F9120E1C906182E0A2E64003021FFAE52E
:101F600091A2E64003021FFA7591BF9003A2E064BC
:101F7000057008120D38120D448003120D3E7521B4
:101F800000120DAAE99003A3F07900120D9E120A27
:101F9000F87A017B009003A1E0F9121074907803A5
:101FA000E064427055900544E014F0704DC2AF12E9
:101FB0001FB200782AD0E0F618D0E0F6E59F54076B
:101FC00070057509FF800375097FC4C0E07829E6B4
:101FD000F50808E65509F509740B78081216D8D0EB
:101FE000E02508F8906270E0A2E740F8E8C333907B
:101FF0006272F0906270E0D2E0F0906181E0A2E362
:102000005009E5E9A2E3500375E9F7A3E0A2E75020
:1020100009E591A2E7500375917FEEA2E092AF7FB0
:1020200004021921C0E0C0D0C082C083906183E067
:10203000A2E05009E5BFA2E0500375BFFEE0A2E1B7
:102040005009E5BFA2E1500375BFFDE0A2E25009CF
:10205000E5BFA2E2500375BFFBE0A2E35009E5BF74
:10206000A2E3500375BFF7E0A2E45009E5BFA2E484
:10207000500375BFEFE0A2E55009E5BFA2E55003AC
:1020800075BFDFE0A2E65009E5BFA2E6500375BFC9
:10209000BFD083D082D0D0D0E032C0E074F212182A
:1020A000C2E5A7A2E4500FE5A1A2E4500953A7EFAF
:1020B00075A1EF1220EEE5A7A2E5500CE5A1A2E57F
:1020C000500653A7DF75A1DFE5A7A2E15009E5A1FE
:1020D000A2E1500375A1FDE5A7A2E2500CE5A1A283
:1020E000E2500653A7FB75A1FB7F0102192174F88A
:1020F0001217D67521019003A2E0640670077A00DA
:102100007B00120D20A2AFE433FED2AF9003A8E013
:10211000640170187A207B009003A1E0F91210F896
:102120007A207B009003A1E0F912107A906182E09E
:10213000D2E6F0900541E0602185C622801690032A
:10214000A7E064017008E5C654F84405F5C653BE1F
:10215000FC121ECC7401652160E4EEA2E092AF7F18
:10216000010218828E238F24858228858327851873
:1021700082851983E0CEA3E0CF852882852783EB73
:10218000C9EAC8EDCBECCA75F010C3E833C8E9332F
:10219000C9EA33CAEB33CBC3EA9EF526EB9FF5259C
:1021A000B35004AB25AA26EC33CCED33CDD5F0DA11
:1021B000AE23AF242274F11217D68A088B098C0A39
:1021C0008D0B909023780812158C740F1217467897
:1021D0000C1215B2909023780C12158C7808790C9B
:1021E0001213C590903B50107808790C1215647842
:1021F000081213E54014800E780C790812156478E3
:102200000C1213E550047901800279007F0802184E
:102210008274ED1217D68A088B098C0A8D0B909068
:1022200023780812158C7413121746780C1215B205
:10223000909023780C12158C780C79081213C540F5
:10224000117808790C121564AA08AB09AC0AAD0B19
:102250008022751000751100751200751301781039
:10226000790C1215647810790812152BAA10AB118D
:10227000AC12AD137F0C02188290902378081215CF
:10228000B28A828B83780812159F7F0402188274A9
:10229000F51217D68C828D8378081215B28A828B3C
:1022A0008378081215781222E3C3E098F0A3E0992E
:1022B0001222D5401E90903778081215B28A828B70
:1022C0008378081215518E828F83E02420F0A3E0DA
:1022D000344EF080A4F08E828F83C3E09420A3E07C
:1022E000944E22EA2404F8EB3400F9E8FEE9FF8C6E
:1022F000828D83A3A3A3A3E0F8A3E0F98E828F834A
:102300002274F51217D6E9FE9004F7E0FAA3E0FB79
:10231000EEC333F8E433F9742028F582748F39F56D
:1023200083E02AF508A3E03BF509780812197D90AF
:1023300090671215D012216474021217108A088B4C
:10234000098C0A8D0B741078081214F3AA08AB09D3
:102350007F0402188274F11217D68A0C8B0D8C0E32
:102360008D0F740F121746E0FAA3E0FB74111217D9
:1023700046E0F508A3E0F509780812197DEA240182
:10238000F508EB3400F509E4F50AF50B780C79084B
:1023900012140490900F78081215B2780C79081274
:1023A0001404AA0CAB0DAC0EAD0F12216474021212
:1023B00017108B09EA450960047A0180027A00EC63
:1023C0002AFCED3400FD7413121746E0F8A3E0F97F
:1023D000E8FEE9FFECF8EDF97A717B0212166F88DE
:1023E000088909E4F50AF50B8E828F8378081215A7
:1023F000C1ECF8EDF97A717B0212166F8A088B092D
:10240000740578081216E78E828F83A3A3A3A3E531
:1024100008F0A3E509F07F08021882C082C083E9B2
:10242000906000F0D083D08222C2AF02000022C0B0
:10243000E074F21218C2A2AFE433FED2AFE589A273
:10244000E1500312123C758900C2C5EEA2E092AFC2
:102450007F01021921C0E074F21218C2A2AFE43366
:10246000FED2AFE58BA2E0500312123C758B00C286
:10247000E880D8C0E0C0D0E8C0E0E9C0E0E5A8D27C
:10248000AFC2C7A2E7A2E792AFD0E0F9D0E0F8D0A0
:10249000D0D0E032FFFFFFFFFFFFFFFFC082C0830D
:1024A000E99009E5F002272B74F712176AE9900208
:1024B000E1F07C197D037AFF7BFF12081C9002E299
:1024C00074FFF0A3F0A3E4F0A3F079051207A49041
:1024D00002E1E0F91206C67A3A7B081209E47F01AC
:1024E00002183C74F412176A8A088B09EB54806056
:1024F000309002E1E0F912105C8A0A8B0BAE0AAF51
:102500000BEE4F60138E828F83E064B0700312076E
:10251000BCEEFAEFFB12104AAA08E5096480FB80C2
:10252000047A007B000226FA74F212176A74FC1215
:1025300016FAEAFEEBFFEE4F60387402121746EE11
:10254000F0A3EF12295FECF0A3ED12295FAA82AB92
:10255000831206C0E9F5087073741212174612351B
:1025600013E50A450B60658E828F831225D6EE4FE8
:10257000700575080280557A067B001210B08A0C2F
:102580008B0DA80CA90DE8497005750813803D88CE
:10259000828983E41225E0A3A3EEF0A3EF1239AC05
:1025A000E50AF0A3E50BF09002E71226689002E737
:1025B0006017E0FCA3E08003EAFCEBFD8C828D83D6
:1025C00012266870F38C828D83123438A908740443
:1025D000121710023BAEA3A3A3A3E0FEA3E0FF22C9
:1025E000F0A3F0888289832274F212176A890AE9BB
:1025F00075F017A4FEAFF09002E6E4F09002E4124A
:102600002668600A1210B69002E4E4F0A3F0EEFA35
:10261000EFFB1210B08A088B09EA4509602FEEFC27
:10262000EFFD79001210329002E4E508F0A3E5090D
:10263000F07B008008122652E4F0A3F00BEBC39568
:102640000A40F2E50A9002E6F0790080027913026E
:102650003BAEEB75F017A4F8A9F09002E4E028FA7D
:10266000A3E0398A82F583221231CEEA4B2274F438
:1026700012176A750800750900740C121746123992
:1026800080FEE9FF800CE5082401F508E509340027
:10269000F509C3E5089CE5099D503285080A8509BE
:1026A0000B7403780A1216E7EA250AF8EB350BF9E2
:1026B00088828983A3A3A3A3A3A3123513EE650A7B
:1026C0007003EF650B70BFE8FAE9FB80047A007BCA
:1026D00000802774F412176A7900EAA2E0501B7593
:1026E00008EA75098F780812197D7C047D007AE765
:1026F0007B0912079E74021217107F0402183CC057
:1027000082C0839002E7122732601C88828983A3EB
:10271000A3E06A7003A3E06B8882898370E8A3A3B7
:10272000A3A31231CA80047A007B00D083D0820236
:10273000011F123C81E8492274EE12176A74FC12E0
:1027400016FAEAFEEBFF851882851983E4F0A3F000
:10275000EE240212341CEE240512294DEE2404F559
:102760000EEF122D32E024FE603924FC604624FE78
:10277000605224FE605E24FE700302285224FE7024
:10278000030228CA24FE70030228D924FE70030223
:1027900028E824FC70030228F724FE7003022906AF
:1027A0000229439003007417F0A3E412296712046E
:1027B0003E022943851882851983AC82AD831207B6
:1027C000C2022913851882851983AC82AD83120752
:1027D000C8022913850C08850D097402121746AC2E
:1027E00082AD838508828509831231CA1206E48A84
:1027F0000C8B0DAC0CAD0DEC4D6042E4F50CF50D01
:10280000780C12197D750C00750D03780C12197D6A
:10281000750C01750D03780C12197D74081217469A
:1028200012199479161231C4120804740812171080
:10283000E9F50C700B1231C0120456800F750C01B3
:10284000850882850983122955123438850C0802BF
:1028500029167402121746AC82AD83850C82850D51
:10286000831231CA1206E48A108B11AC10AD11EC40
:102870004D6043850C82850D83A3A31219947510B6
:1028800000751103781012197D7510017511037808
:102890001012197D74081217461219947916123104
:1028A000C41208047408121710E9F509700B1231EC
:1028B000C012045C800F750901850C82850D83129E
:1028C0002955123438850908804C8518828519836A
:1028D000AC82AD831207CE803A851882851983AC0D
:1028E00082AD831207D4802B851882851983AC8230
:1028F000AD831207DA801C851882851983AC82ADFE
:10290000831207E0800D851882851983AC82AD8320
:102910001207E6E9F508E50860298E828F83A3E0B7
:102920006414601F850E82850F83E09003001229D6
:102930005F123C7D900301123438E508A312296729
:10294000120438EEFAEFFB120762023324F50CEFA3
:102950003400F50D22123C8185188285198322F0FE
:1029600085188285198322F07C007D03850A828583
:102970000B831231CE2274EE12176A74FC1216FA0F
:102980008A0A8B0B8C0E8D0FEA2405F508EB3400B8
:10299000F5097C157D0079007A007B03121032E581
:1029A000082402F50CE5091229508518828519833F
:1029B000858210858311781012197D85088285091A
:1029C00083A3A3A3A3122E7A12197DE5082405F58B
:1029D00010E5093400F511781012197D850C8285F7
:1029E0000D831231D41206DE74061217108A108B72
:1029F00011AE10AF11E50A2402F50AE50B12341FDF
:102A0000EE4F7003022B3C801774021217461231EE
:102A1000CA88828983EAF0A3EBF0900300E004F017
:102A2000900300E0C394054003022B3CE4F510F54D
:102A300011781012197D7510E975110278101219AC
:102A40007D7510EA751102781012197D740612173F
:102A5000461219947910EEFCEFFD1231C4120804ED
:102A60007408121710E9705E850882850983A3A394
:102A7000A3A3A3A3A3E0F89002E9E0687048122E94
:102A80007A12197D7CEA7D02E5082408FAE509340A
:102A900000FB12102C7402121710E960298E828F2D
:102AA00083A3A3A3A31231CA900300E0F51074021C
:102AB00078101216E774012510F58274033511F5AC
:102AC00083EAF0A3EBF07402121746858210858327
:102AD00011781012197D7402121746121994850C80
:102AE00082850D83123C921206EA74041217108A32
:102AF000108B11AE10AF11900300E0F510751100AE
:102B0000740278101216E774002510F8740335115A
:102B1000F988828983A31226687003022A00E824B8
:102B200003F8E93400F9EE4F6003022A098882892C
:102B30008374FFF0A3F0900300E004F0900300E042
:102B4000600A1231C012044A7900800B8508828520
:102B5000098312342F790A02332474EA12176A7433
:102B6000FE1216FA8C128D13EA2405F50CEB123DB9
:102B7000FC1225DA750800750900EA2402F510EB4D
:102B80003400F51185188285198385820A85830BA7
:102B9000780A12197D850C82850D83A3A3A3A31245
:102BA0002D3C12197DE50C2405F50AE50D12341FA4
:102BB000780A12197D850C82850D83123C901206CD
:102BC000DE74061217108A0A8B0BEA450B7003029B
:102BD0002CEDEA2404F50EEB122D321225DA8A824E
:102BE0008B83A3A3A3E0F98510828511831231CAD8
:102BF0001206CCE9F5096003022CEDE4F514F51595
:102C0000781412197D7514E9751502781412197D5E
:102C10007514EA751502781412197D740612174698
:102C20001219947913AC0AAD0B85108285118312A9
:102C300031CA1208047408121710E9F5096003027A
:102C40002CED9002E9E0F8E5087009E02402900319
:102C500001F08017900301E0FCE82402FAE434005C
:102C6000FBEA6C7001EB6003022CF1850882AA82FA
:102C7000122E719414122E695073850E82850F8363
:102C8000E0C0E074022A122D29D0E0F00508850E7C
:102C900082850F83A3E0C0E085080A7402250A122A
:102CA0002D29D0E0F005089002E9122D3C12197D83
:102CB0007CEA7D0285080A7402250AFA740334004E
:102CC000FB12101A74021217109002E9E02508F5A1
:102CD0000874FF6E700374FF6F6012EE24010EEF34
:102CE0003400FFE508C394145003022B84E5086008
:102CF000131230B58510828511831231CA12045027
:102D000079008014E509700375090A85128285131C
:102D100083EEF0A3EFF0A90974021217107F0E02E0
:102D2000183C85080C7402250CF58274033400F5F8
:102D300083223400F50F850E82F583221239BF22DB
:102D400074EE12176A74FE1216FA8C0E8D0FEA24B6
:102D500005F50CEB122950750B00900300E4F0F51B
:102D60000AEA2402F508EB3400F5098049900300D3
:102D7000E0FA9002E9E0F8122E719417122E6940E1
:102D80000D900300E0F87416C3989002E9F0122E3B
:102D90007A12197D7CEA7D0274012AFA74033400E8
:102DA000FB12101A74021217109002E9E0F8900357
:102DB00000E028F0050AE50C2416F582E50D122D39
:102DC0002DE0F8E50AC3984003022E52900300E07C
:102DD000C39416507DE50AC333F8E433F9E50C28B3
:102DE000FEE50D39FF851882851983AC82AD838E8F
:102DF000828F831231CA1206E48A108B11AC10AD97
:102E000011EC4D7005750B018043E4F510F5117858
:102E10001012197D7510E9751102781012197D755F
:102E200010EA751102781012197D740612174612F5
:102E3000199479168508828509831231CA1208040B
:102E40007408121710E9F50B7003022D6D12342B64
:102E500080107C007D038508828509831231CA12A7
:102E60000462A90B7402023326E99400C365D033CF
:102E700022EA28F8E43400F9E822E0F510751100A0
:102E800078102274EA12176A74FC1216FA8A0C8BF4
:102E90000D8C128D13EA2405F50AEB12341F750808
:102EA00000750900E50A2402F510E50B3400F51160
:102EB000740212174685820E85830F780E12197DD3
:102EC000850A82850B83A3A3A3A312396B12197DF4
:102ED000E50A2405F50EE50B3400F50F780E1219FE
:102EE0007D8510828511831234251231C41206DECD
:102EF00074061217108A0E8B0FAE0EAF0FE50C245E
:102F000002F50EE50D3400F50F8040888289837448
:102F1000FFF00508122D2274FFF005089002E9E089
:102F2000F50C750D00780C12197D7CEA7D02850880
:102F30000C7402250CFA74033400FB12101A74028C
:102F40001217109002E9E02508F508EE4F60718E27
:102F5000828F83A3A3A3E0F9850E82850F831231AC
:102F6000CA1206CCE9F509EE240412294DE9704491
:102F7000E4F514F515781412197D7514E975150228
:102F8000781412197D7514EA751502781412197DDA
:102F900074081217461219947911EEFCEFFD850E94
:102FA00082850F831231CA1208047408121710E9BF
:102FB000F5096027850C82850D831230AB123438F9
:102FC000E50870030230911230B5850E82850F83BB
:102FD0001231CA12046879000230A6850882AA82DA
:102FE000EA9002E97009E02404900301F08022E0F5
:102FF000F8900301E0F514E82404FCE43400FDEC4F
:1030000065147001ED70C0122E719412122E695069
:10301000B6850C82850D83E0C0E074022A122D294A
:10302000D0E0F00508850C82850D83A3E0C0E01296
:103030002D22D0E01230C785820C85830D780C12CA
:10304000197D740412174612199485108285118314
:10305000123C921206EA74041217108A0C8B0DAE01
:103060000CAF0D85080C7402250CF874033400F9BC
:10307000EE4F7003022F0B851882851983E088823A
:1030800089831230C7A3E0C0E0122D22D0E0022FC6
:1030900019E509700375090A850A82850B831230C8
:1030A000AB123438A9097404022D1A123C8185121E
:1030B0008285138322900301E0F5F0E508849003F4
:1030C00000F07C007D0322F00508851882851983B5
:1030D0002274EC12176A74FE1216FA8A088B098C95
:1030E0000E8D0FEA2405FEEB3400FF85188285194A
:1030F00083AC82AD838E828F831231CA1206E48A3A
:103100000A8B0BEE241812294DEA450B700302318D
:103110009B12330D50328518828519831231CA12E1
:1031200007F88A108B11EA4511606B7912AC0AAD71
:103130000B8508828509831231CA85108285118327
:10314000121768E9F50A7058E4F50AF50B780A12C7
:10315000197D8E828F83A3A3E0F50A780A12197D68
:10316000EE240312341C780A12197D8E828F83128A
:1031700031D412080A7406121710E9F50A70218575
:103180000C82850D83E0701F8508828509831231CA
:10319000CA12046E8011750A0E8009750A01800436
:1031A000E50A600312342B850C82850D83E06004F0
:1031B00079008002A90A74021217107F0C02183CD1
:1031C0007C007D03850A82850B831231CE22E0FAD2
:1031D000A3E0FB22E0FCA3E0FD85088285098312C1
:1031E00031CE2274EE12176A74FE1216FA8A088B18
:1031F000098C0C8D0DEA2405FEEB3400FF750E00E2
:10320000851882851983AC82AD838E828F831231BB
:10321000CA1206E48A0A8B0BEA450B70030232F9E4
:1032200012330D50358518828519831231CA120761
:10323000F88A0E8B0FEA450F605E7912AC0AAD0B6F
:103240008508828509831231CA850E82850F831213
:103250001768E9F50E60030232FC85088285098350
:10326000123513AA0AFB1207EC8A108B11A810A9B9
:1032700011E849701E7AFF7BFF1207EC8A108B1150
:10328000A810A911E849606C88828983E50AF0A337
:10329000E50BF0750A008007750E0E805F050A9039
:1032A00002E6E0FAE50AC39A504AE50A75F017A467
:1032B000FAABF088828983A3A3E02AFAA3E03BFB60
:1032C0008A828B83123425EC4D70D2750A17750BE8
:1032D00000780A12197DEEFCEFFD12101A7402122A
:1032E0001710EEFCEFFD8508828509831231CA12A2
:1032F00004748014750E098003750E01123C7985E3
:103300000C82850D83123438A90E022E64E5082440
:1033100002F508E5093400F5098A828B83A3A3A38B
:10332000E0A2E52274041217107F0A02183C74EC24
:1033300012176A8C108D11EA2405F50CEB12295036
:10334000750F00EA2402F50AEB12341F850A82F594
:10335000831231CA1207EC8A088B09EA4509700307
:10336000023411750E008071850C82850D83E06436
:1033700001704F8E828F83A3A31219948E828F8344
:10338000A3A3A3A3E0F512751300781212197DEE22
:103390002405F512EF3400F513781212197D12315D
:1033A000C412080A7406121710E9F50F6014850C90
:1033B00082850D83E4F0123C798510828511831299
:1033C00034387C177D007900EEFAEFFB1210328E54
:1033D000828F83E4F0A3F0050E9002E6E0F8E50E9C
:1033E000C398501EE50E75F017A4F8A9F085088261
:1033F000850983A3A3123E06123425EC4D60030217
:10340000336885088285098374FFF0A3F0E50F70A7
:10341000061231C412047AA90F0231BBF50AEF3447
:1034200000F50B22A3E0FCA3E0FD228E828F831225
:103430003C81850E82850F83E8F0A3E9F022C082EB
:10344000C0839002E2E06A7003A3E06B70067AE248
:103450007B0280047A007B0002272BC082C0837825
:10346000008C828D83E06A7003A3E06B7010E875B6
:10347000F003A4F8A9F0EC28FAED39FB8015088CCC
:10348000828D83A3A3A3E06A7003A3E06B60DF7A5D
:10349000007B0002272B74F612176A1207B68A8285
:1034A0008B83E582458370067A007B008007A3A3A7
:1034B000A3A31231CA023B2A74F212176AE9FE74FE
:1034C0000E121746123513741012174612398B8CD0
:1034D000828D83E064027036A3123C87F50CA3E072
:1034E000F9A80C74026870037429697021750C02C4
:1034F000750D00780C12197D780812197D780A1262
:10350000197DEEF912082E74061217108002790147
:10351000023BAEE0F50AA3E0F50B2274E812176A4D
:1035200074FB1216FAE9851882851983F08A168BC6
:1035300017ECFEEDFF751000741D121746123C7D4E
:10354000741D1217461234388E828F83A3A3A3E012
:10355000A2E4502D741D1217461231CA1207F88AC0
:10356000828B83E5824583700302395C790AEEFC25
:10357000EFFDAA16AB17121768E9F51060030239C0
:103580005F741F12174612398B74211217461235B9
:10359000137423121746E0F50EA3E0F50F8E828F09
:1035A00083E06402600302390AA3123C7D8508822D
:1035B000850983A3858212858313EE240612294D83
:1035C00088828983E0FAA3E0F9EA2400F514E4395B
:1035D000F5157814121A07010000280128FF350795
:1035E000000228C436032831360029FB370129267A
:1035F000380229C7370329FB370429A5380A39E5DA
:103600000E450F6003023905850C82850D83123942
:1036100080FAE9FB8A828B83E0850A82850B83121C
:1036200039B612197D8A828B83A3E0FCA3E00238AD
:103630008FE50E450F6003023905850A82850B83ED
:103640007401F0123993850882850983F07C007D2E
:10365000008E828F83A3A3A3A3E02401FAA3E03406
:1036600000FB1206E4EA4B60418A828B83E024026D
:10367000F8850A82850B83E028F0EA2404F8EB340D
:1036800000F988828983E08512828513831239C804
:103690001239B612197D8A828B83123424E50824EC
:1036A00003FAE5093400FB023894850A82850B830E
:1036B000E02404F07C047D007900AA12AB13121000
:1036C0003202395FE50E450F600302390512399366
:1036D000FEA3E0FF850A82850B837404F0EE850863
:1036E00082850983F0EF851282851383F0740312BB
:1036F0001746AC82AD83EEFAEFFB1206E48A0C8B20
:103700000DEA450D70030237A88A828B83A3A312AA
:1037100025D6740112174685820E85830F780E1206
:10372000197D74051217461219947CFF7DFF12064D
:10373000EA74041217108B0FEA450F7033850C8260
:10374000850D8312396B12197D850C82850D83A33B
:103750001219947C027D007A917B901205167404F4
:10376000121710E9700A740112174674FFF0A3F0E3
:103770008E828F83E064027039750C02750D0078BB
:103780000C12197D8E828F83123424E5082404FAEA
:10379000E5093400FB12101A7402121710850A8210
:1037A000850B83E0240280097401121746EEF0A312
:1037B000EFF0740112174612397CF07401121746AB
:1037C000A31239740238FFE50E450F600302390574
:1037D000850C82850D83123425AA16AB1712082298
:1037E000850A82850B837402F0EA85088285098345
:1037F000F0851282851383EB023902E50E450F60D6
:1038000003023905123993F8A3E0F9850A82850B82
:10381000837402F0E8850882850983F0E9851282C5
:10382000851383023902850C82850D831231CA12F9
:103830001014EAFC8C82A882C3950EE4950F405FB9
:10384000E8650E7002E50F70047C00802285188206
:10385000851983E0FAE50E2AFAE50F3400FBC3EA86
:1038600098EB94005003E08005E50ECCC39CFCEC83
:10387000850A82850B83F08C0A750B00780A121971
:103880007D850C82850D83E0250EFCA3E0350FFDC0
:10389000AA08AB0912101A740212171002395F75C8
:1038A000100702395FE50E450F705A850C82850DB1
:1038B00083123C7D850A82850B8374071225E212F0
:1038C00039741225E2A3E0851282851383F0E8247F
:1038D00002FAE93400FB8A828B831239741239A30D
:1038E00012397CA31239AC123985F0E82405F8E9C5
:1038F0003400F988828983123985A31239C8A3A3B9
:10390000A3A3F0805A75100B8055741D1217461230
:1039100031CA1207B68A828B83E5824583603D12E5
:103920003C7D880C890DE8450D6031780E12197DBB
:10393000780A12197D780812197D7406121746E06C
:10394000F9EEFCEFFDAA16AB17850C82850D8312EC
:1039500017687406121710E9F510800375100EA988
:103960001074051217107F1002183CE0F50E750F49
:1039700000780E22E0850882850983221239D2223E
:10398000123C81E8221239D2A3A322E0F508A3E079
:10399000F50922850C82850D83E0F8A3E0F5838884
:1039A00082E022A3A3F08A828B83A322F0888289FB
:1039B00083A3A3A3A322F08A828B831239BF22E0C0
:1039C000F50A750B00780A22F088828983A31239E0
:1039D000D222E0850882850983A3A32274EE121700
:1039E0006A74FE1216FA8A0A8B0BECFAEDFB741459
:1039F000121746E0F510A3E0F5117416121746E011
:103A0000FE7418121746E0F50EA3E0F50F85188234
:103A1000851983AC82AD831206E48A0C8B0DEA45CE
:103A20000D60498518828519831231CA1207B68A3A
:103A3000828B83E5824583602FA3A312398BE5082F
:103A400045096024780E12197D781012197DEEF95F
:103A5000AC0CAD0DAA0AAB0B850882850983121741
:103A60006874041217108006790E80027901022E04
:103A70006474F612176A74FE1216FA740C12174662
:103A8000123980851882851983F07401121746E96E
:103A9000F0E4F508F509780812197D750802780830
:103AA00012197D74041217468582088583097808E7
:103AB00012197D12080A74061217107402121710D8
:103AC000806874F712176AEAFEEBFF89087C197D9B
:103AD00003120822EA5402600BA908EEFAEFFB1267
:103AE00006D8800279010224DE74F612176A74FF88
:103AF0006A700374FF6B70168C828D83123B2FE407
:103B0000F08C828D83A3A3A3123B2FA380181207EE
:103B1000F28A088B09A808A909E849600D888289FA
:103B20008374FF1225E0A3A3E4F07F0202183C7423
:103B3000FFF0A3F08C828D83A3A32274F612176A80
:103B40001207F28A828B83E58245836006A3A3E095
:103B5000FA80027A007B0080D174F212176A8A0818
:103B60008B09ECFEEDFF740E121746E0F50A120702
:103B7000F28A0C8B0DA80CA90DE8497026EEFCEF1B
:103B8000FD7AFF7BFF1207F28A0C8B0DA80CA90DA2
:103B9000E84970047911801688828983E508F0A3CA
:103BA000E509F088828983A3A3E50AF079007F06FE
:103BB00002183C74EE12176AEAFEEBFF8C088D09BE
:103BC000890C7414121746123C7D74161217461293
:103BD00031CA750D00E8496003023C717402650C3E
:103BE0006003023C6C7412121746123C87FCA3E07F
:103BF000F9EC2400F50EE439F50FEAF4F8EBF4F9EA
:103C0000EC58F8E50F59F9E849705CE5082406F826
:103C1000ED3400F9880A890B8882F583123C9212F0
:103C200008228A108B11E50E65107004E50F6511EE
:103C30006042780E12197D850A82850B83123C92B0
:103C40001208287402121710E9F50D7027780E1269
:103C5000197D850882850983A3A3123C9012084030
:103C60007402121710800D750D808008750D0D807F
:103C700003750D0BA90D0233298E828F83123C81AF
:103C800022E0F8A3E0F922123C8188828983E022B5
:103C9000A3A3E0FCA3E0FDEEFAEFFB2274E8121709
:103CA0006A74E71216FA851882851983EAF0A3EB85
:103CB000F08C168D17890E75080075090074311285
:103CC0001746E0F512A3E0F5137433121746E0F53A
:103CD00014A3E0F5157435121746E0F50FE50975E4
:103CE000F003A4F8A9F0851882851983123E06E036
:103CF000F47003A3E0F47003023DE9EE2402F50C36
:103D0000EF123DFCE07003023DE985160A85170BB2
:103D1000780A12197DAC14AD15AA12AB131207AABA
:103D200074021217108A0A8B0BEA450B7003023DCE
:103D3000E9E4F510F511781012197D740612174692
:103D4000858210858311781012197D740912174627
:103D5000858210858311781012197D851282851352
:103D600083A3A3A3A31219947914AC0AAD0B8E827A
:103D70008F831231CA1208047408121710E970698F
:103D8000850A82850B83A3A3A3A3123C7D74021230
:103D90001746123438850C82850D83E0A2E0501856
:103DA000A90E7402121746AC82AD838E828F8312E5
:103DB00031CA1206FCE94208850C82850D83E0A217
:103DC000E15026E50FF50A780A121981A90E74034D
:103DD000121746AC82AD838E828F831231CA1206CF
:103DE000F67401121710E942080509E509C39402A7
:103DF0005003023CDDA90874190239633400F50D43
:103E0000850C82F58322E028FEA3E039FF8E828FA5
:103E1000832274F212176AEAFEEBFF890B740165C4
:103E20000B600E7402650B706A7901120A02E97068
:103E300062EEFAEFFB1207EC8A088B09EA4509608B
:103E400047750A00800B7C177D007900121032053F
:103E50000A9002E6E0F8E50AC3985021E50A75F0F9
:103E600017A4F8A9F0850882850983A3A3E028FA9E
:103E7000A3E039FB8A828B8312273270C9850882BE
:103E800085098374FFF0A3F07C197D03EEFAEFFB44
:103E900012081C023BAE74F212176A8A088B09ECF6
:103EA000FEEDFF740E1217461235139009E5E0F48B
:103EB000603D7A097B00121044EA4B60328A828BA3
:103EC0008374B1F0A3E41239A5A31239A3A3E508C2
:103ED000F0A3E509123EF2EEF0A3EF123EF2A3A327
:103EE000E50AF0A3E50BF09009E5E0F912105002A5
:103EF0003BAEF08A828B83A3A3A3A3A32274F01208
:103F0000176A74FA1216FA890BECFEEDFF750A00B7
:103F10008A088B0978081219C10004102541403F16
:103F20005E3F783F903FAE3FC63FE93F01401540BE
:103F30003F40BC40CD40E440FF4025412541554035
:103F40007401650B60030241208E828F83E0F8C309
:103F500094034003024120E8900AD10240FC74021D
:103F6000650B60030241208E828F83124862900AA3
:103F7000D2E8F0A3E90240FC7401650B6003024142
:103F80002012414D4003024120E89007660240FCA8
:103F90007401650B60030241208E828F83E0F8C3B9
:103FA00094054003024120E89007670240FC740139
:103FB000650B600302412012414D4003024120E89D
:103FC0009007680240FC7410650B60030241207585
:103FD0000810750900780812197D7A697B0712109C
:103FE0001A74021217100241467401650B60030235
:103FF000412012414D4003024120E89007790240E0
:10400000FC7401650B60030241208E828F83E09077
:104010000AD50240FC7404650B60030241208E82C5
:104020008F83780C1215B2909067780C1213E550BC
:104030000302412090077B780C1215C1024146E92A
:104040006003024120120684E970051211A0805617
:1040500090080E80637407650B60030241207508A9
:1040600006750900780812197D8E828F83A3AC82B1
:10407000AD83740212175812102074021217107CAC
:10408000007D00AA18AB198E828F83E0F912114CC3
:10409000E9F508C3940A4003024143120684E9701B
:1040A0000CA9081211A67950121314806E740F25F2
:1040B00008F582E43408F583740180407401650BCF
:1040C000705E12414D5059E890077A802F74016557
:1040D0000B704D8E828F83E0F8C3940A5042E890B3
:1040E0000AD480187401650B70368E828F83E0F8D5
:1040F00074F928C3940A5028E8900AD6F0804774CF
:1041000001650B701B90080DE0F88E828F83E090A4
:10411000080DF0E87030E06401702B1211948026D5
:10412000750A188021C3EA9427EB94005015740295
:10413000650B700F8E828F83124C0B120522E9F5EE
:104140000A8003750A02A90A740602440C8E828F43
:1041500083E0F8C3940222740E1217107F04021831
:104160003C74F012176A74B11216FA8C0C8D0D9013
:104170008FF07420121760740612160D7420121737
:104180006012114CE9FE745F121746E0F50AEEC3A7
:10419000940A40030242DE75F006EEA4F50874416D
:1041A0001217607A0E74202508F912130EE97009AF
:1041B000744D121746E0FF80027F00900AD1E06440
:1041C000027005750E018003750E007408650A7093
:1041D000047422800274212508F50F7C1B7D007970
:1041E000007426121758121032EFA2E0E433F509DA
:1041F00074261217607A1BA90F12130EE97025742A
:1042000040121746E024F9C3940A5018780E121988
:10421000817427121760A909AA0CAB0D1205C4748A
:10422000011217107C147D007900740C12175812BB
:104230001032740C1217607A1074242508F91213C6
:104240000EE970307C1079FF740C12175812109818
:10425000E97021741C121746AC82AD837A04742570
:104260002508F912130E740C121760A909AA0CABD9
:104270000D1205ACAC18AD197A0C74702EF912132E
:104280000EE97049AA18AB1912117C7E00EE75F088
:1042900003A4F8A9F0851882851983E58228F8E53A
:1042A00083124A17124C05601D88828983A3A3E0FC
:1042B000F508750900780812197DAA0CAB0D1208D3
:1042C0001074021217100EEEC3940440C0EFA2E166
:1042D000500C900765E0F9AA0CAB0D120816740497
:1042E000650A7027900AD1E06402701F7A00900777
:1042F00079E060010A900766E06004780480027843
:1043000000E84AF9AA0CAB0D12066C7900744F0252
:10431000440C74F012176A74F01216FAEAFEEBFFFE
:104320008C088D09750A0AE9600C14600914603B59
:1043300014607D02440812118EE9F50AC3940A4004
:1043400003024408E50845097003024408750C0699
:10435000750D00780C12197DEEFCEFFDAA08AB0973
:1043600012101A7402121710024408750C00750E10
:1043700006750F00780E12197DEEFCEFFDE50C7549
:10438000F00EA4F8A9F0748728FA740739FB12100C
:104390002C7402121710E9700B050CE50CC3940A7B
:1043A000506680CA850C0AE50AC3940A505A8049AF
:1043B000750C00AC18AD197A1075F006E50CA42444
:1043C00023F912130EE9701C7C1079FFAA18AB199F
:1043D000121098E9700EEEFCEFFDAA18AB19120549
:1043E0008EE9600B050CE50CC3940A501B80C48554
:1043F0000C0AE50AC3940A500FE50845096009AAAA
:1044000008AB09A90A121188A90A74101217107FA3
:104410000802183C74F412176A890875091574FFAC
:104420006A700374FF6B70277E00AC087A027B0011
:10443000EEF912116AE960037509000EEEC3940AE1
:1044400040E8E50860527AB87B11120A14804912DC
:1044500009F68A0A8B0BAE0AAF0BEE4F60377C0071
:104460007D00EE2405FAE43FFB8E828F83A3A3A395
:10447000A3E0F912114CE9C3940A500CAC087A027B
:104480007B0012116A750900E508600CEEFAEFFB7B
:104490001211B88003750914A90902415C74F21263
:1044A000176AECFEEDFF750815740E121746E0F55D
:1044B0000AA3E0F50B74FF6A700374FF6B7021753B
:1044C0000900AC0AAD0BEEFAEFFBA909121170E975
:1044D00060037508000509E509C3940A503E80E2AF
:1044E0001209F68A828B83E5824583602C7C007DED
:1044F00000E5822405FAE43583FBA3A3A3A3E0F936
:1045000012114CE9C3940A5013AC0AAD0BEEFAEF4A
:10451000FB1211707508008003750814A908024980
:10452000DFC082C08390077FEAF0A3EBF0900765BD
:10453000E0FC7D007A267B00120522900765E0F9F9
:1045400012078C024FF674F012176A74EC1216FA06
:10455000EAFEEBFFEE240CF50CE43FF50DEE24052E
:10456000F50EE43FF50FEE2409F50AE43FF50BEEF6
:104570002403F508E43FF5098E828F83A3A3E0248A
:10458000FA700302480124FD700302471F147003F0
:1045900002461C14601024FD70030246F6147003DA
:1045A0000247560248581252F76049E0F583888264
:1045B000124862880E890FE8450F6038850C8285A5
:1045C0000D83E0F50C780C121981EE240BF582E4D2
:1045D0003FF583E0F9850A82850B83124C0B0A0AAA
:1045E0000AAB09850E82850F8312176874011217B2
:1045F00010024858850A82850B8312199490077B14
:104600001215D01205BE7402121710E97003024889
:10461000587901850A82850B830247CC8E828F836D
:10462000A385820A85830BE060030246D9850E824A
:10463000850F83E0A2E040030246D9900819125288
:10464000FA60030246D97C0E7D007900AA18AB19E6
:10465000121032850C82850D83124FC1EA4B601017
:10466000750C06750D00780C12197DEA2410801B5C
:10467000124FBB1209F6EA4B7003024858750C063C
:10468000750D00780C12197DEA2405FCE43BFD74DD
:104690000212175812101A7402121710850E828512
:1046A0000F83E0A2E25004D2F08002C2F0A2F0E454
:1046B00033F8740C121746E048F0EEFCEFFDAA1830
:1046C000AB19121182E970117A027B00900765E044
:1046D000F9121074790002485A1252F77003024816
:1046E000581248687003024858850A82850B83E097
:1046F000FC79010247F51252F7700302485812483C
:104700005F890BE8450B70030248588E828F83A3A4
:10471000E0FC7902124FBB8882850B830247FC7C48
:10472000007D00EE2404FAE43FFB850882850983BE
:10473000E0F912114CE9F8C3940A4003024858EE1C
:10474000240AFCE43FFD7A0475F006E8A42425F968
:10475000121308024858124FBB90077AE060079086
:104760000AD4E0F98069900AD1E070047905805F8D
:104770001209F68A0C8B0DA80CA90DE82404F50C7F
:10478000E439F50D8E828F83A3A3A3A3A3A3A3E093
:10479000A2E05041E8497003024858850C82850D1B
:1047A00083E0FE6030850A82850B83E0541070251B
:1047B000740E121760E82405FAE439FBEEF91211C1
:1047C0004CE970117903850882850983124FC11263
:1047D00005B8024858AC0EAD0F850C82850D83E0FC
:1047E000F9124FBB1211C41252F7606C1248686084
:1047F000677C007900124FBB8E828F83121768800E
:1048000057120684E9705190080EE0640170151289
:1048100011A090080EE4F07C0AFDF97A0F7B0812D3
:104820001032802C750A00850A08740F2508FEE4F2
:104830003408FF8E828F83E06401700BA90A121185
:10484000A68E828F83E4F0050AE50AC3940A40D756
:1048500079501213141211947901741402440C1239
:104860004877E0F8A3E0F922124877E0F8A3E0F9EE
:10487000E8FEE9FFEE4F22E0F5838882A3A32274CD
:10488000F412176A74F21216FAEAFE8C0B75F0062F
:10489000E9A42420F508AC18AD197A0EF912130E0C
:1048A000E9704B7C0679FFAA18AB19121098E970D1
:1048B0003D740C121746124862E8F509E50B6005D5
:1048C000EE42098004EEF45209850982AA82E86A60
:1048D0007001E96015740C121746EAF0A3E4F0AC1D
:1048E00018AD197A0EA9081213087901800279000F
:1048F00002415774F212176A74E61216FA890A8A8C
:10490000088B09ECFEEDFF740C1217607A0E75F03F
:1049100006E9A42420F912130EE960030249D87CA9
:104920000679FF740C121758121098E960030249B7
:10493000D87470250AF50BAC18AD197A0CF912135E
:104940000EE960030249D4AA18AB1912117CE508DC
:104950004509701D7C0C7900AA18AB19121098E952
:1049600070727C0C7D007900AA18AB19121032808D
:1049700051AC18AD19AA08AB091211768A0C8B0D2F
:10498000A80CA90DE8497022EE4F604CAC18AD1987
:104990007A007B00121176EAF8EBF9EA4B6039886D
:1049A000828983E508F0A3E509F0124A53FAEE6A1A
:1049B0007001EF601FEEF04F700888828983E4F089
:1049C000A3F0AA18AB1912117CAC18AD197A0CA976
:1049D0000B121308790180027900741A1217107FE4
:1049E0000602183C74F712176A7F00EF75F003A4F3
:1049F000F8A9F0EC28F8ED124A17E06A7003A3E07A
:104A00006B7006E8FAE9FB800B0FEFC3940440DB00
:104A10007A007B00024D4839F9888289832274F735
:104A200012176A7E00EE75F003A4F8A9F0EA28F8E0
:104A3000EB124A17E0F4FCA3E0F4FD88828983ECD2
:104A4000F0A3EDF0124A53F4F00EEEC3940440D5F7
:104A5000024D48E82402F582E439F583E02274F43B
:104A600012176A74F41216FAEAFEEBFF8C088D092D
:104A70009008191252FA704FEE4F7003024BE4EC9B
:104A800045097003024BE412118EE9900AD7F0C376
:104A9000940A4033750B007C0679FFE50B75F00E28
:104AA000A4FAABF074812AFA74073BFB121098E960
:104AB0006003024B44050BE50BC3940A40D9750A09
:104AC0000AE50A900AD7F0900AD7E0C3940A400397
:104AD000024BE475F006E0A4FB9008191252FA703C
:104AE00069EEFCEFFD7A0E74202BF91213087C0C92
:104AF0007D0079FFAA18AB19121032AC18AD197AE3
:104B00000C900AD7E02470F9121308750A0E750B81
:104B100000780A12197DEEFCEFFD900AD7E075F0DF
:104B20000EA4F8A9F0748128FA740739FB12101A40
:104B30007402121710900819E508F0A3E509F0793E
:104B400000024BE6850B0A024AC1E0C82406124B5C
:104B5000FF60197A1B74212BF9121308124BEB24F6
:104B600006F582E438F583E4F0A380D2124BEB24FF
:104B70000A124BFF60107A1B74222BF912130812D1
:104B80004BEB240A80DB124BEB240C124BFF601022
:104B90007A1074232BF9121308124BEB240C80C1EA
:104BA000124BF4124BFF60307A1074242BF912135D
:104BB00008124BF4F582E438F583E02410FCA3E0FE
:104BC0003400FD7A0475F006900AD7E0A42425F994
:104BD000121308124BF4808990080DE06003121143
:104BE000CA1211BE7901740C024159900819E0F8FB
:104BF000A3E0C822900819E0F8A3E0C8240822F531
:104C000082E438F583124C0BEC4D22E0FCA3E0FD6E
:104C10002274F412176A74F21216FAEAFEEBFFE934
:104C2000C3940A5004EE4F700479028034AC18AD7E
:104C3000197A0E75F006E9A42420F912130EE9F58D
:104C400008701C750A06750B00780A12197D74022B
:104C5000121760EEFAEFFB12101A7402121710A965
:104C60000802415774F412176AEAFEEBFF75080058
:104C7000750A06750B00780A12197DEEFCEFFDE54A
:104C80000875F00EA4F8A9F0748128FA740739FBAE
:104C900012102C7402121710E96004A908800B0589
:104CA00008E508C3940A40C8790A02415C74F71207
:104CB000176A750800E50875F00EA4F8A9F074816C
:104CC00028FE740739FFEEFCEFFD7A0E75F006E55D
:104CD00008A42420F912130EE960297C067D0079CE
:104CE000FFEEFAEFFB1210327C067D0079FFEE2C0E
:104CF000FAE43FFB121032EE240CF582E43FF58318
:104D0000E4F0A3F00508E508C3940A40A890080D54
:104D1000E060031211CA1211BE802D74F712176AD7
:104D20007E007F007C0679FFEF75F00EA4FAABF0F1
:104D300074812AFA74073BFB121098E970010E0F78
:104D4000EFC3940A40DEEEF97F0102183C74F712BB
:104D5000176A7E00EEF91211A60EEEC3940A5003F4
:104D6000E960F180E374F312176A74CB1216FAE962
:104D7000FE900AD7E06E701B7A017B00900765E019
:104D8000F912107A7A027B00900765E0F912107A26
:104D90001211D675F006EEA4FF74202FF5087427C3
:104DA0001217607A0EA90812130EE96003024E6B07
:104DB0007C0679FF7427121758121098E9600302D5
:104DC0004E6B7C0E7D0079FF74271217581210323B
:104DD0007C1B7D0079FF740C1217581210327C0C6A
:104DE0007D0079FFAA18AB191210327427121760D0
:104DF0007A0EA908121308E9F508740C1217607AE4
:104E00001B74212FF9121308E9F509740C121760AD
:104E10007A1B74222FF9121308E9F50A740C121781
:104E2000607A1074232FF9121308E9F50B740C1231
:104E300017607A1074242FF9121308E9F50C740C1A
:104E40001217607A0474252FF9121308E9FFAC18C1
:104E5000AD197A0C74702EF9121308E9F8E50945BA
:104E60000A450B450C4F4842088003750800A90805
:104E700074351217107F0502183C74F712176AE98F
:104E8000900765F0121194024D4874F412176AEA03
:104E9000FEEBFF54807003024F22900765E0F91289
:104EA000105C8A088B09EA4509607078018A828B58
:104EB00083E02450603D14600624E1604F8052A3DB
:104EC000A3A3A3E0704E8A828B83A3A3A3A3A3A36F
:104ED000A31219948A828B83A3A3A3A3A3124C0BBE
:104EE0008A828B83A3A3124FC11211587402121726
:104EF000108021A3A3A3A3E0641E701879008A8206
:104F00008B83A3A3124FC11211528008121164E9BE
:104F1000F8E86007AA08AB0912104AEEFAEF6480BD
:104F20008065EE540260237C007D007A007B0012D5
:104F30001182E960117A017B00900765E0F9121097
:104F400074EE6402803F7A028046EEA2E0503F1287
:104F50004F95124FC11211D0E9602F1252F7601F06
:104F600012485F88088909E8450960137C007901C7
:104F7000124F95124FC18508828509831217681256
:104F800011D6EE6401FAEFFB80087A0180027A0004
:104F90007B0002415C900819E0F8A3124877A32235
:104FA0007F0202183CC082C083900765E0F98A82C4
:104FB0008B83A3124FC1120816803B850882850996
:104FC00083E0FAA3E0FB22C082C08374FF1216FACA
:104FD00012119AE9C39402851882851983400474DA
:104FE000028002740AF0AC18AD197A017905120634
:104FF0009C7401121710D083D08202011F74F21228
:10500000176A74E81216FAEAFEEBFF890A8C088D1B
:10501000097C187D007900AA18AB19121032851886
:1050200082851983EEF0A3EFF0900767E0C0E0748B
:1050300002121746D0E0F0900768E0C0E074031257
:105040001746D0E0F0900AD6E0C0E0741712174679
:10505000D0E0F07415121746E054FEF8A3E0F99082
:105060000AD5E0A2E0E433FAE84AF87415121746CC
:10507000125197A2E15004D2F08002C2F0E854FD30
:10508000FAA2F0E43325E0F8EA48F874151217465E
:10509000125197A2E35004D2F08002C2F0E854F714
:1050A000FAA2F0E433F50C750D007403780C1216B7
:1050B000E7125190121746125197A2E45004D2F011
:1050C0008002C2F0E854EFFAA2F0E433F50C740465
:1050D000780C1216E7125190121746125197A2E55A
:1050E0005004D2F08002C2F0E854DFFAA2F0E433B8
:1050F000F50C7405780C1216E7125190121746122F
:105100005197A2E25004D2F08002C2F0E854FBFAB8
:10511000A2F0E433F50C7402780C1216E7125190E9
:10512000121746E8F0A3E9F0900768E0601D750CDF
:1051300010780C12197D7C697D077406121746AA37
:1051400082AB8312101A7402121710900779E06074
:1051500011E50A60097415121746E04402F078015F
:10516000800278007414121746E048F0900766E059
:1051700060047804800278007414121746E048F046
:10518000AC08AD09AA18AB191205B274180249DCB3
:10519000EA450CF8741522E8F0A3E9F0900AD5E08E
:1051A0002274F712176A12088E750800E50875F068
:1051B0000EA4F8A9F0748128FE740739FF7C0679E3
:1051C000FFEEFAEFFB121098E97009EEFAEFFB79A7
:1051D000001208940508E508C3940A40CF024D4820
:1051E00074F612176A74FD1216FAEAFEEBFF9008C5
:1051F0001B1252FA703975081D75090878081219C2
:105200007D750802750900780812197D7508977573
:105210000990780812197D7CFF7DFF7A017B0012CE
:1052200006DE740612171090081BEAF0A3EBF0904C
:10523000081B1252FA70030252E1E4F508F50978EE
:105240000812197D74041217508808890978081209
:10525000197D740412175088088909780812197D7D
:1052600090081D121994790290081B1252EF12082F
:10527000047408121710E97036851882851983E0C6
:10528000FA7401121746E0F8E4C8F9EA28F508E4D0
:1052900039F509EA45096017780812197D90081B4D
:1052A000124F98A31252EF1211587402121710E401
:1052B000F508F509780812197D90081D1219947CDB
:1052C000FF7DFF90081B124FC11206EA74041217EB
:1052D0001090081BEAF0A3EBF090081B1252FA7032
:1052E000047901800279007403121710024FA01292
:1052F0004C0BEEFAEFFB2290077FE0F8A3E0F9E811
:105300004922C082C0839008191252FA6010900896
:1053100019124FC112104A900819E4F0A3F0900A34
:10532000D7740AF0024FF6C082C083906190740473
:10533000F0A37448F0A3E4F09061807440F09061B1
:10534000BC7407F09061877469F09061B67416F0D0
:105350007900120AFE7902120B04902494E493F46B
:105360006006E493F9120ADA7905120DFE0257225B
:10537000C082C083E9540FF9906185E0696012E54D
:10538000C654804449F5C6E59E547F644970F8E9E7
:10539000F053C680E59E547F70FA02572274F712CC
:1053A000176AE5A8FE53A87E120AE6C2BA539AFE0F
:1053B000C289759B00C2C2120AEC75A91175B905A4
:1053C000120AF2D2BA439A0174805E42A8025CB912
:1053D000C082C083906181E4F0A302571F75E90089
:1053E00075910075BF0002011FC082C0839061816A
:1053F000E4F0A374C0F0A3E4025721C082C0837418
:10540000F81216FA9003A412665270030254DA904E
:1054100003A4E0544060237908851882851983AA83
:1054200082AB83120BFA851882851983AA82AB831B
:105430001208B29003A4E054BFF0E05480601079E9
:105440000C7A657B05120BFA9003A4E0547FF0E020
:10545000A2E0500F7900120AFE1208B89003A4E0EF
:1054600054FEF0E05402600F7901120AFE1208B8EF
:105470009003A4E054FDF0E05404600F7900120B97
:10548000041208BE9003A4E054FBF0E05408600F3F
:105490007901120B041208BE9003A4E054F7F0E067
:1054A0005410600F7902120B041208BE9003A4E09E
:1054B00054EFF0E05420600F7903120B041208BE81
:1054C0009003A4E054DFF0A3E05401600D120B1030
:1054D0001208C49003A5E054FEF0740812171002DD
:1054E0005722C082C083E9600514602A804F906112
:1054F0009A7433F0A37455F09061A0743AF090055B
:105500003FE064017009C2919003A67467802D90FA
:1055100003A67461802690619A743FF0A3745AF0D8
:105520009061A0747FF090053FE064017009D29112
:105530009003A6747180059003A6746AF002572246
:10554000C082C083E9600B14600D14601714600CF6
:1055500080209024988015902499801090053FE039
:105560006401700590249A800390249BE4939061D9
:1055700086F002572274EE12176A74F41216FA8536
:105580001882851983AC82AD8375839075822B74E4
:105590000412160D90249893F4600302569F90789D
:1055A00008E0C39402500302567F7404121746ACFD
:1055B00082AD8375838F7582CE740812160DFC7EC2
:1055C000FF7FFF8E0C7D008C8285820E800F740819
:1055D0006D606D74096D6068740A6D60638D087527
:1055E0000900740278081216E71256A91215B2A91A
:1055F00009E50AC9F88810741878081214F3E51040
:105600004508FAE9FBE50EC333F8E433F9740412F4
:105610001746E58228F582E58339125BA9C3E89A2B
:10562000E99B4008E8C39AF8E99B8006EAC398F82A
:10563000EB99F9C3E89EE99F5006E8FEE9FF8D0C5F
:105640000DEDC39413408774FF6E700374FF6F6099
:1056500024850C08740278081216E71256A9121550
:10566000B2851882851983E582250EF582E58312BD
:105670006048E508F00CECC3940450030255BF7574
:105680000801750900780812197D7402121746ACDA
:1056900082AD837A267B09121218740212171074D5
:1056A0000C1217107F0A02183C74482508F5827402
:1056B000783509F583780822C082C083906186E03E
:1056C000F890249BE49368700990249AE493906185
:1056D00086F09061AE7468F0A3746AF090624574CD
:1056E000FBF0A304F053F4FD43FE0290053F740168
:1056F000F09061A0E0643A700479008002790112B0
:105700000AFE025722C082C0839004F1E064017057
:105710000A9004F6E06004790C800279008003F0BE
:10572000A3F0D083D08202011FC082C08375E1F153
:105730009004F4E0604D1460091460511460491441
:105740007050120B229004EAE0F97AEB7B04120D00
:105750008090902F1215D0120DB690901F1215D078
:10576000120D8C9004F5E0F9120D987901120DF2EA
:105770001258452416126045743AF0A3740BF07960
:1057800000809F120B2880BD120B2E80B8120B34A4
:1057900080B3791280EB74F412176A75D90D9004F6
:1057A000D5E0A2E0E4331313F812583B484401F566
:1057B000D978001258A840FB7800880874D6126582
:1057C000A874041258B240F275E1959004D5E0F93E
:1057D0007AD67B04120D86900A0774B0F0A3740A7F
:1057E0001258B81258FC1258F3125A109004F4E0F0
:1057F00064019004E8700B12584E1215B290906B31
:10580000800912584E1215B2909063780812153E16
:10581000909023780812158C125845240E1260457A
:1058200078081215C112584524141260457413F0FB
:105830009003A27402F07F0402183C9004EAE0C4D2
:10584000333354C0229004E8E0F8A3E0C822126485
:10585000E078082274F612176A1259E18AD97800A2
:105860001258A840FB78008006125959125A96E83F
:10587000C39940F51259D31258A840FB780080080C
:105880001265A47405125A96E8C39940F375E19520
:10589000900A0774BCF0A3740A1258B81258C27464
:1058A00012F09003A2025C7D880874EB2508F58253
:1058B0007404125C139406221259F974B6F0A3749E
:1058C0000A221258FC1258F3125A149004E8E0F815
:1058D000A3E0C8240E1258EB74FF12631D9004E875
:1058E000E0F8A3E0C824141258EB22F582E8340053
:1058F000F58322F0A374CEF0A3740A221259002279
:1059000012590422F0A37466F0A3740C2274F612E8
:10591000176A12594E12583B4402F5D978001258B2
:10592000A840FB78008006125959125A96E8C3998C
:1059300040F575E195900A07125964F0A312596475
:105940001258C57414F09003A27404025C7F900492
:10595000FAE0F9740729F5D922880874FB2508F5BF
:105960008274042274C8125971125971F0A3740A16
:1059700022F0A3740AF0A374C82274F612176A12F4
:1059800059E174064AF5D978001258A840FB78000E
:105990008006125959125A96E8C39940F51259D304
:1059A0001258A840FB780080081265A47405125AAA
:1059B00096E8C39940F375E195900A0774C2F0A385
:1059C000740A1259EF1258C27415F09003A27403AE
:1059D000025C7F90051A12595174044AF5D9780077
:1059E0002212594E9004EAE0C4333354C0FA221212
:1059F00059F97466F0A3740C221259FD22125A0A46
:105A00007466F0A3740C125A0A22125904F0A322ED
:105A1000125A1422F0900A157466F0A3740C1259ED
:105A2000FD7466F0A3740C125900F022C082C0838A
:105A30001258452406126045E402571F74F71217E6
:105A40006A9003D0E0F875F003A4C8AAF02AF974AC
:105A5000D228F8740339F9E82405FAE91264F3A3AB
:105A6000A3A3A3A3A3A3A3A31265F4A3A3A3A3A384
:105A7000A3A3E024FFF8A3E034FFF98A828B83E834
:105A8000F0A3E9F0025CB97F0602183C880874456F
:105A90002508F582740512601FF5D90822EAFEEB8D
:105AA000FF9061D0E0F87480C398FAEE248222124D
:105AB0005AB5940422F582E93400F583E0F5D90A59
:105AC000EAC32274F612176AEAFEEBFF9061D0E097
:105AD0006003025B5775D90E75D90375D9047A0036
:105AE0008A08EE25081265AD248B125B5C40F17AC2
:105AF000008A08EE25081265AD2483125AAF40F1E2
:105B000075E1957908EE248BFAEF3400FB120BEE69
:105B10007904EE2483FAEF3400FB120BEE7C008C48
:105B200082AA82C3E49AF895E0F9EE28F8EF39F9F1
:105B3000E8248AF582E912601BC0E0EE2A1265AD06
