:020000040000FA
:06000000020107022CA31F
:03002B000230F5AB
:030033000230D7C1
:03004B0002311669
:03005300022D1665
:03006B000230B1AF
:10008300022B0FE5C754F84401F5C779012200009C
:100093000080FB120086B900030200F1E4792178A5
:1000A30008B800028004F709D8FCE479297802B87B
:1000B30000028004F709D8FCE4900281788C790867
:1000C3008002F0A3D8FCD9FA7A0C7B0A9001377826
:1000D3003579068015E493A3AD82AE838A828B8340
:1000E300F0A3AA82AB838D828E83D8E9D9E7758288
:1000F300A77583FF740112011975829175830074CA
:100103000012011975D00075813F751881751902A8
:10011300759F00020096C09FF59FE473D09F22D085
:1001230083D082C09FE493C0E0740193C0E0740263
:1001330093F59F22FF0000B4000028002800283018
:1001430075A000A000A000A00000080008E001F0D6
:10015300001000100010001000100010005000509C
:1001630000500010001000D0070000000000000F36
:100173000001000500307507001000010081FF0039
:10018300000000FF690887086F08FF0202020802E7
:100193005000A0000000E80302CD83010000B983F2
:1001A30002D183010000630A02D783010000B30276
:1001B30002D183010000640A02D983010000C9024D
:1001C30002D183010000650A02EB83010000CB0228
:1001D30002D183010000660A02DD83080000CC021D
:1001E30002D183010000670A02DF83010000680A6D
:1001F300FF0100FF2002CD83010000BC8302D183F5
:10020300010000CC0A02E183000000000002D58354
:100213000300001903390E390E390E390E390E3920
:100223000E390E390E390E390E390E390E390EBB11
:1002330010D310B5100A63686172616374657269E3
:10024300737469632031000A636861726163746562
:100253007269737469632032000A6368617261634F
:1002630074657269737469632033000A6368617229
:10027300616374657269737469632034000A636827
:100283006172616374657269737469632035000A0E
:10029300636861726163746572697374696320363C
:1002A300000A636861726163746572697374696378
:1002B3002037000A636861726163746572697374DD
:1002C300696320380002CD83010000B68302D18325
:1002D3000100000D0B020D84030000420702D383CB
:1002E3000100000E0B02D1830100001F0B020B84DF
:1002F3000300004E0702D383010000200B02D183C9
:10030300010000310B0209840300005A0702D38362
:10031300010000320B02D183010000430B0207846A
:10032300030000660702D383010000440B02D1835C
:10033300010000550B020584030000720702D383FA
:10034300010000560B02D183010000670B020184F8
:100353000300007E0702D383010000680B02D183F0
:10036300010000790B02E7830300008A0702D383AD
:100373000100007A0B02D1830100008B0B02C583BD
:10038300030000960702D3830100008C0BFFFF02DA
:100393000202020202020202010D00000010010229
:1003A300CD83010000C28302D183010000670C02E8
:1003B3001384010000B40702D183010000680C021A
:1003C300FF83010000B98202D183010000690C029E
:1003D300E9830100009D8202D1830100006A0C02BF
:1003E300C783010000F38102D1830100006B0C027B
:1003F300DB83010000058202D1830100006C0C0243
:10040300E383010000298202D1830100006D0C0205
:10041300E5830100003B8202D1830100006E0C02E0
:100423001784010000AB8202D1830100006F0C022C
:100433001184010000700C9A99193E01E803053FED
:10044300100AFF00013075030201060000000000DE
:100453000000000000000000000000000000000099
:1004630000000000000000FFFF0600800CE8030A04
:10047300636861726163746572697374696320315F
:10048300000A636861726163746572697374696396
:100493002032000A63686172616374657269737400
:1004A30069632033001A63686172616374657269FA
:1004B300737469632034000A6368617261637465ED
:1004C3007269737469632035000A636861726163DA
:1004D30074657269737469632036001A63686172A4
:1004E300616374657269737469632037000A6368B2
:1004F30061726163746572697374696320380002A1
:10050300CD83010000BF8302D183010000470D02A8
:10051300EF83030000660902D383010000480D0244
:10052300D183010000590D02F18303000068090221
:10053300D3830100005A0D02D1830100006B0D0229
:10054300F383030000690902D3830100006C0D02E9
:10055300D1830100007D0D02F5830300006A0902C7
:10056300D5830300006B0902D3830100007E0D02D3
:10057300D1830100008F0D02F7830300007109028C
:10058300D383010000900D02D183010000A10D026D
:10059300F983030000720902D383010000A20D0254
:1005A300D183010000B30D02FB8303000073090232
:1005B300D583030000870902D383010000B40D0231
:1005C300D183010000C50D02FD830300008D0902E4
:1005D300D383010000C60D010809494D55555555F2
:1005E30055051208000800020A000FFF010200006F
:1005F300000000000000000000000302FED02210F3
:1006030052656D696E646572546573740000000011
:100613000000000000B3150000B915303132333447
:10062300353637383941424344454600286E756CA8
:100633006C20706F696E7465722900303132333407
:100643003536373839616263646566003F3F3F0082
:100653000000807FF9021550B743BA5100002041D2
:1006630000E7DB2E0000A0401201224CC50312015B
:100673002263C50312012294C503120122CFC503CD
:10068300120122F9C50312012223C6031201223AE1
:10069300C60312012251C60312012268C6031201C6
:1006A3002291C603120122A4C603120122BAC60371
:1006B300120122CDC603120122F4C60312012263E2
:1006C300DD0212012267DE021201229FDE02120105
:1006D30022C2DE02120122CDDE02120122F0DE026C
:1006E300120122FFDF02120122D4E0021201224F83
:1006F300E102120122D7E10212012212E2021201E7
:100703002249E202120122D7E202120122B0E302DD
:1007130012012210E4021201221BE4021201229AA6
:10072300E4021201229DE402120122A0E40212015A
:10073300222FE50212012232E50212012262E502B2
:100743001201228CE5021201227AE6021201222C06
:10075300E7021201223A9703120122629703120160
:1007630022909703120122C79703120122259803AF
:10077300120122709803120122BB9803120122FB7B
:1007830098031201224199031201226F9903120166
:10079300222C9A03120122369A03120122439A034E
:1007A300120122769A03120122429B031201224E66
:1007B3009B03120122669B03120122709B03120109
:1007C30022F5D00312012203D1031201221BD1030C
:1007D30012012233D1031201221DED01120122C99C
:1007E300ED0112012244EE0112012265EF01120113
:1007F30022A1EF011201224AF00112012231F1017B
:1008030012012295F201120122ECF2011201226D72
:10081300F3011201225DF401120122AAF401120173
:100823002230F50112012262F50112012276F7014D
:10083300120122B8F701120122D6F701120122593F
:10084300F8011201222DF901120122F5F901120119
:100853002236F80212012209F902120122B2F90228
:1008630012012205FA02120122B5FA0212012241F3
:10087300FB021201222DFC021201225CFC02120176
:10088300226FFD02120122B7FD021201228CFE0229
:10089300120122C8FE02120122E4FE02120122BB4F
:1008A300D3031201220EFC0112012224FC011201C6
:1008B300224AFC0112012266FD0112012270FD0190
:1008C300120122A5FE011201229DFF011201221332
:1008D300920312012243930312012276930312011E
:1008E30022C09303120122879503120122CCCD016A
:1008F30012012236CE0112012295CF01120122A547
:10090300CF01120122D2CF0112012229D0011201FB
:1009130022D2D001120122D9D101120122A3D20184
:1009230012012203D40112012246D401120122EB47
:10093300D40112012238D5011201225ED501120120
:10094300226CD70112012271D70112012276D9013B
:10095300120122C3D90112012236DA0112012269DE
:10096300DA011201220BDB01120122B4DB011201B5
:1009730022ECDB01120122EFDB0112012237DC0141
:1009830012012277DC01120122CEDC011201220FB7
:10099300BE0312012227BE031201226FBE031201FE
:1009A3002285BE03120122CCBE03120122E0BF0343
:1009B3001201226DC003120122B8C00312012224C6
:1009C30031001201223031001201226B3100120179
:1009D30022B03100120122703200120122F63200DD
:1009E3001201225B3300120122873300120122C05D
:1009F3003300120122FE3500120122E237001201F8
:100A030022C839001201220B3B00120122593D007A
:100A13001201226B3E00120122B63F00120122C6D0
:100A23004000120122E340001201221E4100120184
:100A330022404100120122A3410012012264460018
:100A4300120122F946001201224A470012012271C3
:100A53004700120122C34700120122E1470012019D
:100A6300223B48001201222449001201229A4A0023
:100A73001201221E4B00120122F79B0312012201D5
:100A83009C03120122449C031201225F9C03120166
:100A930022EF9C03120122179D03120122549D038E
:100AA3001201228B9D03120122B49D0312012229FC
:100AB3009E031201223E9E03120122539E03120142
:100AC30022849E03120122989E03120122BD9E03DB
:100AD300120122F79E03120122239F031201225BBC
:100AE3009F03120122DA9F0312012223A0031201A2
:100AF300224DA00312012278A00312012205CD0387
:100B030012012262C50212012290C502120122DEE5
:100B1300C602120122BEC702120122DDC702120160
:100B2300225AC8021201229DC802120122F3C902ED
:100B3300120122B4CA021201223BCD02120122DCAD
:100B4300CD02120122D2CE02120122CFCF02120114
:100B53002229D102120122B4D102120122AACB030B
:100B630012012213CC0312012267CC031201228E3D
:100B7300CC03120122BFCC03120122A0A003120155
:100B8300220DA10312012254A1031201226CA2031C
:100B930012012268A3031201224BA4031201229D16
:100BA300E702120122DFE702120122B1E802120179
:100BB300228AE90212012284EA0212012266EB026E
:100BC300120122CFEB0212012285EC02120122F95B
:100BD300EC0212012265ED021201228EED021201D6
:100BE3002208EE02120122A1EE0212012206EF02F6
:100BF3001201221BEF0212012261EF021201227A7B
:100C0300EF02120122DFEF02120122E2EF021201D0
:100C1300222CB80312012254B80312012292B80302
:100C230012012250B903120122B7B903120122D3D0
:100C3300B903120122FBB9031201222BBA031201D9
:100C4300223ABA03120122B7BA03120122DDBA0310
:100C5300120122BBDD0112012299DF01120122CB15
:100C6300E10112012207E20112012234E201120121
:100C7300221EE30112012269E301120122B4E301FE
:100C8300120122C6E30112012206E4011201223BF2
:100C9300E40112012289E401120122B8E4011201E4
:100CA30022DBE40112012228E501120122ADE50154
:100CB300120122C7E70112012206EA0112012247AB
:100CC300EA01120122E9EB011201222AEC011201CD
:100CD300229DEC01120122F3EC011201224DB80214
:100CE3001201224BB902120122E4BF0212012205B2
:100CF300C202120122D0C30212012238C50212011C
:100D030022854B00120122344C001201227A4C003E
:100D1300120122BA4D00120122504F00120122CAC1
:100D23004F00120122E54F00120122605000120110
:100D330022BA51001201221A530012012220540038
:100D43001201228155001201229A5500120122F844
:100D53005500120122E65600120122195700120112
:100D6300228957001201220358001201224D580014
:100D7300120122175900120122EC5900120122CB51
:100D83005A00120122565B00120122C45B001201B9
:100D930022385C00120122635C00120122225D00F2
:100DA300120122875E00120122A45E00120122C3F7
:100DB3005E00120122B45F00120122D95F0012010A
:100DC300220360001201227E6000120122D860001B
:100DD300120122416200120122EF6200120122304D
:100DE300630012012279AA02120122C7AA02120188
:100DF30022D3AA02120122B1AB02120122E2AB02F8
:100E030012012213AC0212012293AC02120122CB73
:100E1300AC021201221DAD021201225AAD021201CF
:100E23002277AF021201229DB10212012288B3027E
:100E330012012272B502120122FA7F001201223E30
:100E430098011201226E9801120122479F0112019B
:100E530022CCA001120122C9A601120122B1A701CD
:100E6300120122EEA70112012211A801120122424E
:100E7300A8011201224BA80112012255A801120157
:100E83002243A90112012239AA011201226063003F
:100E93001201225F6700120122656700120122A07E
:100EA3006E00120122B97300120122D4B1031201A0
:100EB30022CEB20312012242B30312012280B303F2
:100EC300120122F4B3031201226DB403120122763C
:100ED300B40312012282B40312012297B403120154
:100EE30022D5B403120122EBB40312012276A90323
:100EF30012012283A9031201229DA903120122DCFC
:100F0300A9031201221AAA031201227FAA031201C2
:100F13002294AA031201229FAA03120122ACAA035C
:100F2300120122C3AA03120122D1AA03120122DC55
:100F3300AA03120122E8AA03120122F7AA0312014B
:100F43002202AB0312012225AB03120122CCAB0315
:100F5300120122DCAB03120122F6AB0312012213AE
:100F6300AC031201222FAC0312012254AC03120171
:100F7300225FAC0312012274AC0312012288AC037A
:100F8300120122E9AC03120122EFAC03120122F594
:100F9300AC03120122FBAC0312012213AD031201B5
:100FA3002246AD03120122718E02120122F58E0236
:100FB300120122A48F0212012203910212012224A0
:100FC300930212012210940212012245940212018B
:100FD300226794021201221695021201220E970231
:100FE300120122379702120122C99702120122FB32
:100FF30097021201220898021201225F980212013D
:1010030022859802120122F29A02120122F59B0212
:101013001201224D9C021201220080021201220AB7
:101023008102120122F18102120122FB81021201CB
:10103300221D8202120122298202120122C283028C
:10104300120122F183021201220D8502120122668E
:101053008502120122CC8602120122AB8702120101
:1010630022078802120122748802120122AF880229
:10107300120122EE8802120122A78B02120122C161
:101083008B021201224D8C021201225B8C0212018F
:1010930022B48C02120122C28C02120122358D026B
:1010A300120122998D02120122E38D0212012235CF
:1010B300D20212012257D2021201227DD40212015E
:1010C3002292D702120122AAD8021201225DD9026A
:1010D3001201223FDA0212012206C7031201222B58
:1010E300C7031201229DC7031201226F7800120168
:1010F30022787800120122817800120122587900A7
:10110300120122097B001201223F7B001201227986
:101113007B00120122AF7B00120122E97B00120146
:10112300221D7C00120122497C00120122927C00C4
:10113300120122CC7C00120122157D001201226DC6
:101143007D00120122A27D00120122FD7D00120109
:1011530022377E00120122887E00120122BE7E0009
:10116300120122F87E00120122267F001201224979
:101173007F0012012282D203120122AED203120196
:101183002209D30312012213D30312012223D3030F
:101193001201220DA50312012247A50312012237D2
:1011A300A6031201220AA70312012251A903120165
:1011B30022A58C03120122AF8C03120122ED8C03B2
:1011C300120122368D03120122708D03120122CAED
:1011D3008D03120122EB8D03120122F48D03120100
:1011E30022458E031201226E8E03120122788E0392
:1011F300120122E48E03120122728F03120122C014
:101203008F03120122F68F031201227D9003120134
:1012130022BD9003120122F59003120122079103CC
:101223001201222691031201222F9103120122E9B6
:10123300910312012222CF031201224DC303120193
:101243002283C303120122B9C30312012212C5036D
:10125300120122B7D403120122CDD403120122D7E3
:10126300D40312012221D503120122C3AD031201BB
:1012730022DCAD0312012280AE03120122C0AE03B1
:10128300120122D9AE031201220DAF031201225A19
:10129300AF031201228EAF03120122D0AF0312015A
:1012A300221CD00312012245D0031201226ED00367
:1012B300120122B0D0031201221BB50312012240F6
:1012C300B5031201226CB50312012251AC011201C4
:1012D3002273AC01120122B1AC01120122F1AC0163
:1012E3001201222CAD011201227AAD011201222931
:1012F300AE01120122D2AE01120122B9AF011201D5
:101303002257B00112012279B101120122D8B4018E
:1013130012012217B50112012240B9011201224C18
:10132300B901120122A6B901120122B6B9011201B3
:10133300220EBA011201228EBC011201225FBD01ED
:1013430012012264BD011201223FD4031201224A79
:10135300D40312012272D40312012210D603120104
:101363002224D603120122C9D5031201221B8401B0
:101373001201227F860112012231880112012223E8
:101383008901120122A88901120122268A01120170
:1013930022538A01120122778D01120122F18D015C
:1013A300120122E08E011201221A8F011201225A28
:1013B3008F0112012214910112012267910112017E
:1013C30022B091011201221E9201120122509201B8
:1013D3001201226892011201227D93011201228DD2
:1013E3009301120122BD9401120122DF9401120123
:1013F30022159501120122BA9601120122F99601D2
:10140300120122199801120122CCD103120122DD0B
:10141300D10312012280D503120122BFD503120189
:1014230022E97F001201222DD3031201223DD303AF
:1014330012012252D303120122B8D3031201221E36
:10144300CE03120122A3CE0312012209CF031201FC
:101453002232CA031201225BCA03120122C6CA0343
:1014630012012217CB0312012270CB031201222592
:10147300BB031201223ABB0312012283BC031201F4
:1014830022F7BC0312012211BD0312012228BD035E
:101493001201223BBD0312012253BD031201226834
:1014A300BD0312012289BD03120122DABD03120119
:1014B30022EFFF02120122ABC80312012200C9036B
:1014C3001201226EC903120122DEC903120122E2B4
:1014D300C0031201220CC103120122E1C103120154
:1014E30022D5C20312012206F002120122C3F00226
:1014F300120122FEF00212012226F10212012288B9
:10150300F102120122D4F1021201222DF202120180
:1015130022BEF202120122C0F3021201227DF50261
:10152300120122FFF50212012264F6021201227B4C
:10153300F6021201228BF702120122C9F7021201ED
:10154300229B9C0212012225A002120122A6A102C3
:10155300120122FDA1021201221CA2021201229AEF
:10156300A2021201223BA40212012221A5021201AE
:10157300220BA902120122D6A9021201229186038B
:10158300120122E18603120122FE86031201228048
:1015930088031201223389031201221A8A031201DA
:1015A30022618C0312012200800312012220830393
:1015B300120122858403120122018603120122698A
:1015C300BD0112012279C20112012248D603120180
:1015D3002259FF0212012283FF0212012274D60351
:1015E300E066701008A3E066700A08A3E066700462
:1015F30008A3E06622C3E09608A3E09608A3E0965A
:1016030008A3E096A2D265D03322C008C3E096F5C2
:101613000808A3E096420808A3E096420808A3E05E
:10162300964208A2D265D033E5087001D3D00822D0
:10163300C3E7960809E7960809E7960809E796229B
:10164300C3E09608A3E09608A3E09608A3E09622D9
:10165300C008C3E096F50808A3E096420808A3E093
:1016630096420808A3E09645087001D3D0082208E3
:101673000808E630E711121F9412168A080808C6F4
:101683004480C618181822181818E9799EC608CA83
:10169300C608CBC608CCC6C370207996CACBCC701B
:1016A30019798ECBCC70137986CC700EF9802ACA47
:1016B30033CACB33CBCC33CC331930E7F2CCCBCAE0
:1016C3003350147004EA30E00DE4CA3ACACB3BCB82
:1016D300CC3CCC500209C3E913C6CC182313C6CBA8
:1016E30018C6CA18C6F92212172A20F01430E72B9D
:1016F30074FFFCFBFA747F8022E4FCFBFA748080A5
:101703001AB48008BC00F2BB00EF800F50EBF9E481
:10171300C39AFAE49BFBE49CFCE499C6CC18C6CBC1
:1017230018C6CA18C6F922E4C9C608CAC608CBC671
:10173300D3330308CCC63392F0C3947F402E94185E
:101743004019C9B90704CACBCC225025C309CA33EF
:10175300CACB33CBCC33CC33D9F422F4600DC9CC10
:10176300C313CB13CBCA13CAD9F6CC22E4FCFBFABE
:101773002214FCFBFA22E62618461846184622E7EE
:101783002719471947194722181818E608460870F9
:1017930009E626087005E633F4220822191919E729
:1017A3000947097009E727097005E733F42209227D
:1017B300E6084608C3134608336002E633F422E71B
:1017C300094709C3134709336002E733F4221217A9
:1017D300B360251217C260201217797003021782B3
:1017E300080808E76670101819E766700A1819E701
:1017F3006670041819E76622F4221217B3601C12EC
:1018030017C2601712177970071217827001D3225B
:10181300C0D01217827006D0D0B322C32233D0D0E7
:10182300501430E0F6C3E7960809E7960809E796EF
:101833000809E796B32220E0D5E6970809E697085A
:1018430009E6970809E697B3221217B3601B12172C
:10185300C260161217797007121782600CB322C088
:10186300D01217827005D0D022C32233D0D05013A8
:1018730030E0EBC3E7960809E7960809E7960809FD
:10188300E7962220E0E4E6970809E6970809E69739
:101893000809E69722001217B3604F1217C26012AD
:1018A300E7548066F612178B7011121782703B098A
:1018B3000909F4F618F618F618F62212179F701590
:1018C30012177908080860EAE6447FF6187680184C
:1018D300E4F618F62212177960161217827012E4D2
:1018E300F608F608F608E65480F6090909181818E8
:1018F30022EAC0E0EBC0E0ECC0E0EDC0E0E687F038
:10190300A4FBACF008E687F0A42CFCE435F0FA184D
:1019130009E687F0A42C4B60027401CA35F0FCE49D
:1019230033FB09E687F0D2F7A42CCB35F0FC19087A
:10193300E687F0A42BCC35F0FBE433FD0819E687EA
:10194300F0D2E7A42C4ACB35F0CD3400FC09E6876E
:10195300F0D2E7A42DCC35F0FDE433FA0918E6877D
:10196300F0D2F7A42CCD35F0CA3400FC08E687F09A
:10197300D2E7D2F7A42ACC35F07A7E20E70B0ACB44
:1019830033CBCD33CDCC33CC33CB3350147004EDC8
:1019930030E00ED2F1E4CD3DCDCC3CCC3B5005DA6A
:1019A30005C2F1EB547FC63308E63392F0FBE7330D
:1019B30009E733C39A502D2B70190C0D4C4D70153C
:1019C3001806E608C333700D20F10AA2F013F6E4FB
:1019D30018800B4024E4F630F002768018F618F6EF
:1019E30018F68024D33B14501074FFA2F013F6189A
:1019F3007680E418F618F6800FA2F013F618E63393
:101A030003F618ECF618EDF6D0E0FDD0E0FCD0E0DC
:101A1300FBD0E0FA221217C260461217B3603DE909
:101A2300687008F618F618F618F622748067F7122D
:101A33001A4C090909748067F7221217B3601D1243
:101A430017C27005191919801A12178B701F1217F4
:101A53009FC37003E6673319191940071818182232
:101A630008080874FFF618F618F618F62212179FDE
:101A73006017121782702192F0121779701950179C
:101A830020F014080808090909E7F61819E7F618F9
:101A930019E7F61819E7F62212177960E6E8697074
:101AA3001F0808E62480F608E436F618547FB47F4E
:101AB3000CE654806007F6E418F618F6221818228C
:101AC300E9C6CC08C6CD08C6CE08C6CFC0E0E8C07C
:101AD300E0EAC0E0EBC0E009E9F809E7FA09E7FB4F
:101AE300E6F918E6F8C3EC98ED99EE9AEBC2E7F540
:101AF300F0EFC2E795F0500E600CEBCFFBEACEFAA5
:101B0300E9CDF9E8CCF8EAA2E7D2E7FAEB33FB1325
:101B1300F5F0EEA2E7D2E7FEEF33FFC5F013A2E73D
:101B230030E601B313C5F0C3C0E0C0F07F00C39B30
:101B3300FB605E9418600F401D14601AD0E023F917
:101B4300D0E0F8021C1E8AF0E9486003D2F0E4AF4B
:101B5300F0FAF9F8803BEB30E40D89F0EA6003D248
:101B6300F0E4AFF0F9CAF8EB30E30D88F0EF600270
:101B7300D2F0AFF0E4CAC9F8EB54076014FBC3EA30
:101B830013FAE913F9E813F8EF135002D2E0FFDB7D
:101B9300EDD0E0C0E030E739C3E49FFFF5F0EC9807
:101BA300FC42F0ED99FD42F0EE9AFE42F0D0E0F9EE
:101BB300D0E0F8E5F0607AE923F9EE20E742D802B5
:101BC3008067C3EF33FFEC33FCED33FDEE33FE8070
:101BD300EAEC28FCED39FDEE3AFED0E023F9D0E043
:101BE300F84002801BC3EE13FEED13FDEC13FCEF74
:101BF300135002D2E0FF08B800067F7F74FF802EE7
:101C0300EF3350178CF020F00260100CBC000C0D69
:101C1300BD00080EBE000408E860DFE933E813FFE7
:101C2300EE2313FE4F4D4C8008E95480FFE4FEFD84
:101C3300FCEE33EF33F47004FCFD7E80D0E0FBD088
:101C4300E0FAD0E0F8D0E0CFC618CEC618CDC6185B
:101C5300CCC6F9221217B37004181818221217C22F
:101C6300700D74FFF61819F61819F61819F622E70D
:101C7300548066F6121779700F12178270F014F6FB
:101C830008F608F608F680D1121782700CF608F6EB
:101C930008768008E6447F80EC1217A2700C1217B6
:101CA3008E60BFE65480F6E480BB12178E70051970
:101CB300191980A5E869700C763F18768018F61814
:101CC300F6E8F922E6CDC0E018ECC0E0E633CD3308
:101CD300CDD313F6E719FCE7191933CC33C3947F3B
:101CE300400ECD9D502408E65480F6E418F6800F8C
:101CF300F4043D14501408E6447FF6187680E41883
:101D0300F618F6D0E0FCD0E0FD22CCD313CCFD18BE
:101D1300E4C6CBC0E018E4C6CAC0E00808ED08C6B4
:101D230033E613F618E433C675F003C3CA97CA093A
:101D3300CB97CB199C40047D08802EBD0003021E67
:101D43000016B6FF050606081618C3CA33CACB33F6
:101D5300CB33CA27CA09CB37CB193CC37D08803E96
:101D6300187D0820E75CC633C6CA33CACB33CB33EE
:101D7300DDF1D5F0EB30E77BCA97CA09CB974ACBA5
:101D8300199C406F4B7025E620E0218066187D0882
:101D9300C3CA97CA09CB97CB199CD3C633C6CA33D8
:101DA300CACB33CB3350C9DDE7D5F0E1D3E4C63634
:101DB300C608C636C608C636C608C636C6181818B4
:101DC3008031C3CA97CA09CB97CB199CB34097C636
:101DD30033C6CA33CACB33CB33DD34D5F02EC6A2D8
:101DE300E0C640C8CA27CA09CB37194A70BECB3CE4
:101DF300B480B90808E63308E633601F181818D012
:101E0300E0FAD0E0FBD0E0FCD0E0FD22187D08CA68
:101E130027CA09CB37CB193CD3808013F618E4B615
:101E23007F11F618B6FF0EF618C60470D2080876AE
:101E33008080CAF618F618F680C5080808EAC0E0DC
:101E4300EBC0E086F0E7A4FA180986F0E7A42AFAC3
:101E5300180986F0E7A42AFA180986F0E7A42AFAF3
:101E63001986F0E7A4FBE5F02AFA190886F0E7A43F
:101E73002BFBE5F03AFA190886F0E7A42BFBE5F013
:101E83003AFA18180986F0E7A4C5F02BFBE43AFAEE
:101E93001908E7C5F0C6A426F6E5F03BFBE43AFAD9
:101EA3001886F0E7A4F6E5F00826F6E43B08F6E426
:101EB3003A08F6D0E0FBD0E0FA22E4CFC0E0E4CE6B
:101EC300C0E0E4CDC0E0E4CCC0E075F020E626F647
:101ED30008E633F608E633F608E633F6181818EC86
:101EE30033FCED33FDEE33FEEF33FFC3EC9709ED27
:101EF3009709EE9709EF97191919400FFFEC97FC13
:101F030009ED97FD09EE97FE191906D5F0BFECF719
:101F130009EDF709EEF709EFF7191919D0E0FCD02D
:101F2300E0FDD0E0FED0E0FF22121F971818181230
:101F33001EBD121F8319191922121F83191919089B
:101F43000808E618181820E7E0121EBD121F97189C
:101F5300181822090909E719191920E7DC080808E4
:101F6300E618181820E703021EBD121F9718181849
:101F7300121EBD121F97181818121F831919192240
:101F8300E4C397F709E497F709E497F709E497F7A8
:101F930022181818E4C396F608E496F608E496F6B1
:101FA30008E496F6226016080808C6C313C618C6C6
:101FB30013C618C613C618C613C6D5E0EA2270099D
:101FC300080808226016181818C6C333C608C63393
:101FD300C608C633C608C633C6D5E0EA22E627F6E6
:101FE3000809E637F60809E637F60809E637F62260
:101FF300E026F608A3E036F608A3E036F608A3E0E9
:1020030036F622E026F008A3E036F008A3E036F027
:1020130008A3E036F022C3E697F60809E697F60828
:1020230009E697F60809E697F622C3E096F008A3B7
:10203300E096F008A3E096F008A3E096F022E657B6
:10204300F60809E657F60809E657F60809E657F6CB
:1020530022E056F608A3E056F608A3E056F608A3D6
:10206300E056F622E056F008A3E056F008A3E05647
:10207300F008A3E056F022E0F608A3E0F608A3E098
:10208300F608A3E0F622E6F008A3E6F008A3E6F0DC
:1020930008A3E6F022E0FAA3E0FBA3E0FCA3E0FD43
:1020A30022EAF0A3EBF0A3ECF0A3EDF022E0F8A317
:1020B300E0F9A3E0FAA3E0FB22E8F0A3E9F0A3EA46
:1020C300F0A3EBF022CAC0E0E6F0A308DAFAD0E00E
:1020D300FA22CAC0E0E0A3C582CCC582C583CDC5C0
:1020E30083F0A3C582CCC582C583CDC583DAE6D090
:1020F300E0CA22C3E498F8E499F91221378026C391
:10210300E49AFAE49BFBE920E7E9122137E498F823
:10211300E499F922C3E498F8E499F9122137E49891
:10212300F8E499F9C3E49AFAE49BFB22EB20E7CFA6
:10213300E920E7E0B90010BB0008E88AF084F8AAB8
:10214300F022E4FBC8FA22EB70227B10C833C8C923
:1021530033C9335007C39AC3DBF280069A50012A6E
:10216300DBEAC833F4C8C933F4C9FA2275F008E4CA
:10217300C833C8C933C933C99AC99B5004C92AC9CA
:102183003BD5F0ECFBC833F4C8E4C9FA22600D0870
:10219300C6A2E713C618C613C6D5E0F322600C081F
:1021A300C6C313C618C613C6D5E0F4227004226052
:1021B3000D18C6C333C608C633C6D5E0F4182225A6
:1021C3001810AF08F518400C15198008F5184002CF
:1021D3001519D2AF2200C0D0251810AF08F518503A
:1021E3000C05198008F51850020519D2AFD0D0227A
:1021F3002518F58210AF08F518400C15198008F55D
:102203001840021519D2AF851983222518F582E4E7
:102213003519F583222518F8E43519F9222518FA1A
:10222300E43519FB222518FCE43519FD22E4732556
:1022330018C582C0E0E51934FFC583C0E0E518C3C3
:10224300958224F810AF0885831985821880088544
:102253008319858218D2AFCEF0A3E520F0A37808C6
:10226300E608F0A3DEFAEFF0A3E58124FAF8E60826
:10227300F0A3E608F0A3E608F0A30808E608F0A335
:10228300E608F0A315811581D0E0FED0E0F81581B2
:1022930015811581E8C0E0EEC0E0222518C582C093
:1022A300E0E51934FFC583C0E0E518C3958224F93E
:1022B30010AF088583198582188008858319858264
:1022C30018D2AFCEF0A3E520F0A37808E608F0A378
:1022D300DEFAEFF0A3E58124FBF8E608F0A3E608B5
:1022E300F0A30808E608F0A3E608F0A3158115811A
:1022F300D0E0FED0E0F815811581E8C0E0EEC0E043
:1023030022851983851882E0A3FEE0A3F5207808CF
:10231300E0A3F608DFFAE0A3FFE0A3C0E0E0A3C078
:10232300E0E0A3C0E0E0A3C0E0E0A3C0E010AF089A
:102333008582188583198008858218858319D2AF11
:10234300D083D08202011F851983851882E0A3FE02
:10235300E0A3F5207808E0A3F608DFFAE0A3FFE0A6
:10236300A3C0E0E0A3C0E0E0A3C0E0E0A3C0E010AE
:10237300AF0885821885831980088582188583199B
:10238300D2AFD083D08222C0D02518C582C0E0E569
:102393001934FFC583C0E0E518C3958224F310AF59
:1023A300088583198582188008858319858218D248
:1023B300AFC8F0A3E9F0A3EAF0A3EBF0A37908E731
:1023C30009F0A3D8FAECF0A3EDF0A3EEF0A3EFF03D
:1023D300A3D0E0F0A3D0E0F0A3D0E0F0A3E520F099
:1023E300A3E5F0F0A322851983851882E0C0E0A35A
:1023F300E0F9A3E0FAA3E0FBA37808E0F608A3DF83
:10240300FAE0FCA3E0FDA3E0FEA3E0FFA3E0C0E04D
:10241300A3E0C0E0A3E0F5D0A3E0F520A3E0A3F59B
:10242300F010AF0885831985821880088583198584
:102433008218D2AFD082D083D0E0F8D0E0327404D7
:102443008006740280027401C0E0F4041221F3D008
:10245300E01220C8227404800474028000CCC0E01F
:10246300EDC0E0E518C39CCCAD1950011D10AF06BB
:102473008C188D1980068C188D19D2AF1220D5D0E7
:10248300E0FDD0E0FC22D083D082E9C0E0E493A356
:10249300C386F0C5F095F0F908E493A386F0C5F080
:1024A30095F0700BE493A3C3994005E9048002A35C
:1024B300E475F002A42582F582E5F03583F583D037
:1024C300E0F9E493A3C0E0E493C0E022D083D08298
:1024D300ECC0E0EDC0E0E493A3FCE493A3FDED4C7A
:1024E300600D12251BEC24FFFCED34FFFD80EFE4AF
:1024F30093A3FCE493A3FDED4C600D12255AEC2449
:10250300FFFCED34FFFD80EFD0E0FDD0E0FCE49371
:10251300A3C0E0E493C0E022C0E0C3E49396087450
:1025230001939618400FE49366700808740193664C
:102533001870007019A3A3C3E493960874019396CB
:1025430018A3A3400DD0E0D0E0D0E002250BA3A355
:10255300A3A3A3A3D0E022C0E0C0F088F0E4936675
:1025630070080874019366187000A8F0A3A3700B99
:10257300D0F0D0E0D0E0D0E002250BA3A3D0F0D080
:02258300E02254
:1025880074F512229EEAFEEBFFEE2434F8EF3400D5
:10259800F988088909EE2435F582EF3400F583E0DF
:1025A800F8EE2437F582EF3400F583E0F50AEC8580
:1025B8000AF0A4FCAAF0850AF0EDA42AFDE82CF89C
:1025C800E43DF97A257B00122137EA8508828509DE
:1025D80083F0F8740758F97401B900028004C33312
:1025E800D9FCFAE8131313541FF8EE28F8EF340057
:1025F800F9E8245DF582E93400F583E05A6008EED5
:102608002434F582EF802CEE2434F582EF3400F583
:1026180083E0C0E0EE2436F582EF3400F583E0F580
:10262800F0D0E084A8F0EE28F8EF3400F9E8243878
:10263800F582E93400F583E0F97F0402234A74F552
:1026480012229EEAFEEBFFEE2434F582EF3400F509
:1026580083E0C0E0EE2435F582EF3400F583D0E066
:10266800F08E828F83A3A3A3A3A3A3A3C082C08356
:102678008E828F83A3A3A3A3A3E0F8A3E0F9D0835A
:10268800D082E0C398F508A3E099F509EE247FF518
:1026980082EF3400F583E064017069EE2480F582EE
:1026A800EF3400F583E0F8A3E0F98E828F83A3A3CB
:1026B800A3A3A3A3A3E0FCA3E0FD8E828F83A3A31F
:1026C800A3A3A3E0FAA3E0FBC3EA9CEB9D5010C3CD
:1026D800EC98ED99402EC3EA98EB995027800EC3E9
:1026E800EA98EB994007C3EC98ED9940177CDC7D9C
:1026F80004EEFAEFFB120D97EE247FF582EF34001B
:10270800F583E4F0EE2434F8EF3400F9E8FCE9FD51
:10271800EE2435F582EF3400F583E0F8EE2437F542
:1027280082EF3400F583E0F50AE508850AF0A4F5A0
:1027380008AAF0850AF0E509A42AF509E82508F8A9
:10274800E43509F97A257B00122137EA8C828D83DA
:10275800F0F8740758F97401B900028004C333D93A
:10276800FCFAE8131313541FF8EE28F8EF3400F9B5
:10277800E8245DF582E93400F583E05A6008EE2428
:1027880034F582EF802CEE2434F582EF3400F583A3
:10279800E0C0E0EE2436F582EF3400F583E0F5F092
:1027A800D0E084A8F0EE28F8EF3400F9E82438F5F2
:1027B80082E93400F583E0F912309D022641C08297
:1027C800C083851882851983E0F8A3E0F9C3EA9CE1
:1027D800EB9D5010C3EC98ED99401BC3EA98EB9918
:1027E8005014800EC3EA98EB994007C3EC98ED9912
:1027F8004004790180027900D083D08222EAC39C08
:10280800FAEB9DFB2274EF12229E9003A2E064086B
:102818006005E06407702A9061C8E060249003D0E6
:10282800E0F4601DE0F875F003A4C8AAF02AF97472
:10283800D228FE740339FF8E828F83A3A3A3E0708E
:102848000302293D906060E0C0E0EE2468F582EF65
:102858003400F583D0E0F0750C45750D057508005A
:10286800750900E5D914F50AE5D95403F50E601782
:102878007403650E605CE50A6010EE2467F582EF6C
:102888003400F583E07003022922900540E06401DA
:10289800602AEE2482F582EF3400F583E060047844
:1028A8000480027800850A08E508C398FA95E0FBD9
:1028B800120C658A088B09EA45097005120F898090
:1028C80074EE2482F582EF3400F583E070048A0CFC
:1028D8008B0DE50A6012850C82850D83F50BE5D911
:1028E800F0A3150BE50B70F6EE2482F582EF3400A9
:1028F800F583E0604474FC250AF50A780C12244537
:10290800AC0AA90EEEFAEFFB120E3374021221D8AC
:10291800E97026AA08AB091214BD793D8E828F830F
:10292800A3A3A3A3E0FA7B00120B39EEFAEFFB1284
:102938000DAF120E45790080747403650E605685DC
:102948000A107511007810122445AC0CAD0DAA08B8
:10295800AB09120E0F74021221D8EE2468F582EF2B
:102968003400F583E064807004747F8001E0F50C26
:10297800780C122449E50EF50C780C122449A90AA2
:10298800AC08AD099003D0E0FA7B00120AFD74028E
:102998001221D880139003A2E06408600BAC0CAD40
:1029A8000DEEFAEFFB120E9F120F9579017F0A02C6
:1029B800234A74F512229E74FC1221C2EAFEEBFF30
:1029C8008908A2AFE433F509C2AF806AEE2463F840
:1029D800EF3400F97A007B00A2AFE433F50AC2AF06
:1029E80088828983E0FCA3E0FDEC4D603A88828907
:1029F80083E0FAA3E0FB8A828B83E0FCA3E0FD88F6
:102A0800828983ECF0A3EDF08A828B83E4F0A3F053
:102A180088828983E0FCA3E0FDEC4D700A888289F6
:102A280083A3A3E4F0A3F0E50AA2E092AF1214BDD9
:102A38009004E3E004F0EE2463F582EF3400F583BC
:102A4800E0F8A3E0F9E849603DEE2463F582EF344D
:102A580000F583E02402FAA3E03400FBEA2402F53F
:102A68000AEB3400F50B780A1224458A828B83E03E
:102A7800FCA3E0F9EEFAEFFB120DD374021221D891
:102A8800E970030229D49004E3E060639004E4E071
:102A9800F89004E3E0C398500C74026508705090F5
:102AA80004E5E0604A8E828F83A3A3A3A3E0851880
:102AB80082851983F0A3E4F09004E3E0F87402122D
:102AC800220EE8F0A3E4F09004E3E0F89004E2E0DA
:102AD80028F0740212220EAC82AD83851882851903
:102AE80083AA82AB837901120B099004E3E4F0E531
:102AF80009A2E092AF74041221D802264100000016
:102B08008521878522C622C0E0C0D0E8C0E0E9C0A0
:102B1800E0EAC0E0EBC0E0ECC0E0EDC0E0EEC0E011
:102B2800C008C009C00AC00BC082C083C0F0A2AFF1
:102B3800E433FEC2AF759B00906182E0A2E05012C0
:102B4800E591A2E0500C7591FE74016521700312A5
:102B5800280DE0A2E55051E591A2E5504B7591DFB3
:102B68009003A2E064076005E064087023740165BF
:102B780021703579019003D0E0FA75F003A4CAA852
:102B8800F028FB74D22AFA74033BFB1229BA801886
:102B9800E0640D70139003C4E004F064287002E44C
:102BA800F07A00E0F9120F9B906182E0A2E6400300
:102BB800022C56E591A2E64003022C567591BF906F
:102BC80003A2E064057008120EC9120ED580031224
:102BD8000ECF752100120F29E99003A3F079001296
:102BE8000F1D120D0D7A017B009003A1E0F912125E
:102BF8000B907803E064427055900544E014F0703F
:102C08004DC2AF122C0E00782AD0E0F618D0E0F6AC
:102C1800E59F540770057509FF800375097FC4C0D7
:102C2800E07829E6F50808E65509F509740B7808EF
:102C38001221A0D0E02508F8906270E0A2E740F8E1
:102C4800E8C333906272F0906270E0D2E0F0906175
:102C580081E0A2E35009E5E9A2E3500375E9F7A38F
:102C6800E0A2E75009E591A2E7500375917FEEA233
:102C7800E092AFD0F0D083D082D00BD00AD009D068
:102C880008D0E0FED0E0FDD0E0FCD0E0FBD0E0FAD8
:102C9800D0E0F9D0E0F8D0D0D0E032C0E0C0D0C069
:102CA80082C083906183E0A2E05009E5BFA2E050B2
:102CB8000375BFFEE0A2E15009E5BFA2E15003752C
:102CC800BFFDE0A2E25009E5BFA2E2500375BFFBD9
:102CD800E0A2E35009E5BFA2E3500375BFF7E0A205
:102CE800E45009E5BFA2E4500375BFEFE0A2E55048
:102CF80009E5BFA2E5500375BFDFE0A2E65009E58C
:102D0800BFA2E6500375BFBFD083D0828088C0E0E1
:102D1800C0D0E8C0E0E9C0E0EAC0E0EBC0E0ECC049
:102D2800E0EDC0E0C0F0E5A7A2E6500FE5A1A2E6FD
:102D3800500953A7BF75A1BF122D7BE5A7A2E55087
:102D48000CE5A1A2E5500653A7DF75A1DFE5A7A210
:102D5800E15009E5A1A2E1500375A1FDE5A7A2E2B2
:102D6800500CE5A1A2E2500653A7FB75A1FBD0F0D9
:102D7800022C8C74F812229E7521019003A2E06443
:102D8800067015120E638A828B83A3A3A3A3A3A341
:102D9800E0FAA3E0FB120EB7A2AFE433FED2AF9085
:102DA80003A8E0640170187A207B009003A1E0F981
:102DB80012128F7A207B009003A1E0F91212119071
:102DC8006182E0D2E6F0900541E0602185C622806C
:102DD800169003A7E064017008E5C654F84405F5A9
:102DE800C653BEFC122B087401652160E4EEA2E014
:102DF80092AF7F0102234A008E238F248582288583
:102E08008327851882851983E0CEA3E0CF852882A1
:102E1800852783EBC9EAC8EDCBECCA75F010C3E887
:102E280033C8E933C9EA33CAEB33CBC3EA9EF52684
:102E3800EB9FF525B35004AB25AA26EC33CCED3334
:102E4800CDD5F0DAAE23AF242274ED12229E8A0883
:102E58008B098C0A8D0B741312220E780C12207AAF
:102E68007808790C1216337510017511C87512009F
:102E780075130050127808790C1220197810790807
:102E880012163350168010780C7908122019781011
:102E9800790C12163340047901800279007F0C0204
:102EA800234A74ED12229E8A088B098C0A8D0B74B2
:102EB8001312220E780C12207A780C790812163325
:102EC80040117808790C122019AA08AB09AC0AAD90
:102ED8000B802275100075110075120075130178AA
:102EE80010790C12201978107908121FE0AA10AB7B
:102EF80011AC12AD1380A68A828B837508FF750901
:102F0800FF750AFF750B0078081220677F040223FB
:102F18004A74F512229E8C828D83780812207A8A50
:102F2800828B83780812202DEA2404F8EB3400F908
:102F38008C828D83A3A3A3A3E0FCA3E0FD888289F0
:102F480083C3E09CF0A3E09DF088828983C3E0946A
:102F580020A3E0944E40268A828B837508FF75096A
:102F6800FF750AFF750BFF78081220068A828B838B
:102F7800A3A3A3A3E02420F0A3E0344EF0022EFF85
:102F880074F512229EE9FE9004F7E0FAA3E0FBEE46
:102F9800C333F8E433F9746E28F582748239F58303
:102FA800E02AF508A3E03BF50978081224457A40A1
:102FB8007B427C0F7D00122E0074021221D88A08F1
:102FC8008B098C0A8D0B74107808121FA8AA08ABFD
:102FD800097F0402234A74F112229E8A0C8B0D8CFD
:102FE8000E8D0F740F12220EE0FAA3E0FB7411127B
:102FF800220EE0F508A3E0F5097808122445EA2432
:1030080001F508EB3400F509E4F50AF50B780C79BD
:1030180008121E3D750871750902780C7908121E90
:103028003DAA0CAB0DAC0EAD0F122E00740212218E
:10303800D88B09EA450960047A0180027A00EC2AF3
:10304800FCED3400FD741312220EE0F8A3E0F9E859
:10305800FEE9FFECF8EDF97A717B02122137880856
:1030680089098E828F837808122089ECF8EDF97A25
:10307800717B021221378A088B097405780812219E
:10308800AF8E828F83A3A3A3A3E508F0A3E509F07D
:103098007F0802234AC082C083E9906000F0D08391
:1030A800D08222C2AF02000022C0E074F212238A4A
:1030B800A2AFE433FED2AFE589A2E150031214694E
:1030C800758900C2C5EEA2E092AF7F010223E9C074
:1030D800E074F212238AA2AFE433FED2AFE58BA2EA
:1030E800E05003121469758B00C2E880D8C0E0C0B4
:1030F800D0E8C0E0E9C0E0E5A8D2AFC2C7A2E7A225
:10310800E792AFD0E0F9D0E0F8D0D0D0E03253AFBA
:02311800FE3285
:10311C00FFFFFFFFFFFFFFFFC082C083E9900ACBD8
:10312C00F00233B374F7122232E99002E1F07C1909
:10313C007D037AFF7BFF120A4F9002E274FFF0A32B
:10314C00F0A3E4F0A3F079051209D79002E1E0F9BD
:10315C001208F97A6D7B0A120C177F010223047492
:10316C00F41222328A088B09EB548060309002E111
:10317C00E0F91211F38A0A8B0BAE0AAF0BEE4F601B
:10318C00138E828F83E064B070031209EFEEFAEFB6
:10319C00FB1211E1AA08E5096480FB80047A007B2C
:1031AC000002338274F212223274FC1221C2EAFE43
:1031BC00EBFFEE4F6038740212220EEEF0A3EF120A
:1031CC0035E7ECF0A3ED1235E7AA82AB831208F3D6
:1031DC00E9F5087073741212220E12419BE50A4530
:1031EC000B60658E828F8312325EEE4F7005750810
:1031FC000280557A067B001212478A0C8B0DA80CA4
:10320C00A90DE8497005750813803D88828983E40F
:10321C00123268A3A3EEF0A3EF124634E50AF0A332
:10322C00E50BF09002E71232F09002E76017E0FC39
:10323C00A3E08003EAFCEBFD8C828D831232F070EC
:10324C00F38C828D831240C0A90874041221D80219
:10325C004836A3A3A3A3E0FEA3E0FF22F0A3F088CB
:10326C008289832274F2122232890AE975F017A43A
:10327C00FEAFF09002E6E4F09002E41232F0600A45
:10328C0012124D9002E4E4F0A3F0EEFAEFFB1212EE
:10329C00478A088B09EA4509602FEEFCEFFD79009F
:1032AC001211CF9002E4E508F0A3E509F07B008051
:1032BC00081232DAE4F0A3F00BEBC3950A40F2E506
:1032CC000A9002E6F0790080027913024836EB7519
:1032DC00F017A4F8A9F09002E4E028FAA3E0398AE8
:1032EC0082F58322123E56EA4B2274F41222327576
:1032FC000800750900740C12220E124608FEE9FF34
:10330C00800CE5082401F508E5093400F509C3E54E
:10331C00089CE5099D503285080A85090B740378D1
:10332C000A1221AFEA250AF8EB350BF9888289835A
:10333C00A3A3A3A3A3A312419BEE650A7003EF659D
:10334C000B70BFE8FAE9FB80047A007B00802774DD
:10335C00F41222327900EAA2E0501B75083E75097E
:10336C008378081224457C047D007ACD7B0A1209EF
:10337C00D174021221D87F04022304C082C083902E
:10338C0002E71233BA601C88828983A3A3E06A70B7
:10339C0003A3E06B8882898370E8A3A3A3A3123EE6
:1033AC005280047A007B00D083D08202011F124924
:1033BC0009E8492274EE12223274FC1221C2EAFE90
:1033CC00EBFF851882851983E4F0A3F0EE2402123A
:1033DC0040A4EE24051235D5EE2404F50EEF123977
:1033EC00BAE024FE603924FC604624FE605224FEC0
:1033FC00605E24FE70030234DA24FE700302355240
:10340C0024FE700302356124FE700302357024FC27
:10341C00700302357F24FE700302358E0235CB908B
:10342C0003007417F0A3E41235EF1206710235CBCA
:10343C00851882851983AC82AD831209F502359B00
:10344C00851882851983AC82AD831209FB02359BEA
:10345C00850C08850D09740212220EAC82AD838591
:10346C000882850983123E521209178A0C8B0DAC07
:10347C000CAD0DEC4D6042E4F50CF50D780C1224FE
:10348C0045750C00750D03780C122445750C0175EF
:10349C000D03780C122445740812220E12245C7948
:1034AC0016123E4C120A3774081221D8E9F50C702A
:1034BC000B123E48120689800F750C018508828517
:1034CC0009831235DD1240C0850C0802359E74024A
:1034DC0012220EAC82AD83850C82850D83123E5276
:1034EC001209178A108B11AC10AD11EC4D6043858D
:1034FC000C82850D83A3A312245C75100075110337
:10350C00781012244575100175110378101224459A
:10351C00740812220E12245C7916123E4C120A37D1
:10352C0074081221D8E9F509700B123E4812068F67
:10353C00800F750901850C82850D831235DD1240D3
:10354C00C0850908804C851882851983AC82AD83AF
:10355C00120A01803A851882851983AC82AD8312D8
:10356C000A07802B851882851983AC82AD83120AD9
:10357C000D801C851882851983AC82AD83120A13C9
:10358C00800D851882851983AC82AD83120A19E9E6
:10359C00F508E50860298E828F83A3E06414601F10
:1035AC00850E82850F83E09003001235E7124905E2
:1035BC009003011240C0E508A31235EF12066BEE22
:1035CC00FAEFFB120995023FACF50CEF3400F50D48
:1035DC002212490985188285198322F08518828563
:1035EC00198322F07C007D03850A82850B83123EB1
:1035FC00562274EE12223274FC1221C28A0A8B0BF0
:10360C008C0E8D0FEA2405F508EB3400F5097C15BA
:10361C007D0079007A007B031211CFE5082402F5B6
:10362C000CE5091235D88518828519838582108599
:10363C0083117810122445850882850983A3A3A3DE
:10364C00A3123B02122445E5082405F510E50934C4
:10365C0000F5117810122445850C82850D83123EDD
:10366C005C12091174061221D88A108B11AE10AF9E
:10367C0011E50A2402F50AE50B1240A7EE4F700380
:10368C000237C48017740212220E123E52888289AD
:10369C0083EAF0A3EBF0900300E004F0900300E069
:1036AC00C3940540030237C4E4F510F511781012E9
:1036BC0024457510E975110278101224457510EA2D
:1036CC007511027810122445740612220E12245C15
:1036DC007910EEFCEFFD123E4C120A3774081221E1
:1036EC00D8E9705E850882850983A3A3A3A3A3A34D
:1036FC00A3E0F89002E9E0687048123B02122445FE
:10370C007CEA7D02E5082408FAE5093400FB121175
:10371C00C974021221D8E960298E828F83A3A3A3D6
:10372C00A3123E52900300E0F5107402781012219F
:10373C00AF74012510F58274033511F583EAF0A3FB
:10374C00EBF0740212220E85821085831178101210
:10375C002445740212220E12245C850C82850D8382
:10376C0012491A12091D74041221D88A108B11AE39
:10377C0010AF11900300E0F5107511007402781071
:10378C001221AF74002510F874033511F988828961
:10379C0083A31232F07003023688E82403F8E9346C
:1037AC0000F9EE4F60030236918882898374FFF032
:1037BC00A3F0900300E004F0900300E0600A123ED6
:1037CC004812067D7900800B85088285098312409A
:1037DC00B7790A023FAC74EA12223274FE1221C28B
:1037EC008C128D13EA2405F50CEB124A841232620A
:1037FC00750800750900EA2402F510EB3400F51188
:10380C0085188285198385820A85830B780A122490
:10381C0045850C82850D83A3A3A3A31239C412245E
:10382C0045E50C2405F50AE50D1240A7780A12248B
:10383C0045850C82850D83124918120911740612E4
:10384C0021D88A0A8B0BEA450B7003023975EA24DE
:10385C0004F50EEB1239BA1232628A828B83A3A35F
:10386C00A3E0F9851082851183123E521208FFE9FC
:10387C00F5096003023975E4F514F5157814122472
:10388C00457514E975150278141224457514EA75FA
:10389C0015027814122445740612220E12245C7937
:1038AC0013AC0AAD0B851082851183123E52120A9D
:1038BC003774081221D8E9F50960030239759002B2
:1038CC00E9E0F8E5087009E02402900301F08017A4
:1038DC00900301E0FCE82402FAE43400FBEA6C708B
:1038EC0001EB6003023979850882AA82123AF994B5
:1038FC0014123AF15073850E82850F83E0C0E07488
:10390C00022A1239B1D0E0F00508850E82850F83AA
:10391C00A3E0C0E085080A7402250A1239B1D0E090
:10392C00F005089002E91239C41224457CEA7D02A4
:10393C0085080A7402250AFA74033400FB1211B7C5
:10394C0074021221D89002E9E02508F50874FF6E84
:10395C00700374FF6F6012EE24010EEF3400FFE56C
:10396C0008C39414500302380CE5086013123D3D53
:10397C00851082851183123E5212068379008014C1
:10398C00E509700375090A851282851383EEF0A38D
:10399C00EFF0A90974021221D87F0E0223048508C6
:1039AC000C7402250CF58274033400F58322340068
:1039BC00F50F850E82F583221246472274EE1222F1
:1039CC003274FE1221C28C0E8D0FEA2405F50CEB1D
:1039DC001235D8750B00900300E4F0F50AEA2402C6
:1039EC00F508EB3400F5098049900300E0FA9002E9
:1039FC00E9E0F8123AF99417123AF1400D900300ED
:103A0C00E0F87416C3989002E9F0123B02122445B8
:103A1C007CEA7D0274012AFA74033400FB1211B79C
:103A2C0074021221D89002E9E0F8900300E028F02B
:103A3C00050AE50C2416F582E50D1239B5E0F8E51A
:103A4C000AC3984003023ADA900300E0C39416507C
:103A5C007DE50AC333F8E433F9E50C28FEE50D39AE
:103A6C00FF851882851983AC82AD838E828F831279
:103A7C003E521209178A108B11AC10AD11EC4D701F
:103A8C0005750B018043E4F510F5117810122445EF
:103A9C007510E975110278101224457510EA75112C
:103AAC00027810122445740612220E12245C791628
:103ABC00850882850983123E52120A377408122136
:103ACC00D8E9F50B70030239F51240B380107C0075
:103ADC007D03850882850983123E52120695A90B37
:103AEC007402023FAEE99400C365D03322EA28F891
:103AFC00E43400F9E822E0F5107511007810227416
:103B0C00EA12223274FC1221C28A0C8B0D8C128D9B
:103B1C0013EA2405F50AEB1240A775080075090095
:103B2C00E50A2402F510E50B3400F511740212229B
:103B3C000E85820E85830F780E122445850A8285A8
:103B4C000B83A3A3A3A31245F3122445E50A240572
:103B5C00F50EE50B3400F50F780E12244585108216
:103B6C008511831240AD123E4C12091174061221BC
:103B7C00D88A0E8B0FAE0EAF0FE50C2402F50EE5B6
:103B8C000D3400F50F80408882898374FFF005089E
:103B9C001239AA74FFF005089002E9E0F50C750DD6
:103BAC0000780C1224457CEA7D0285080C740225F1
:103BBC000CFA74033400FB1211B774021221D89062
:103BCC0002E9E02508F508EE4F60718E828F83A321
:103BDC00A3A3E0F9850E82850F83123E521208FFD3
:103BEC00E9F509EE24041235D5E97044E4F514F531
:103BFC001578141224457514E975150278141224DD
:103C0C00457514EA751502781412244574081222AD
:103C1C000E12245C7911EEFCEFFD850E82850F836C
:103C2C00123E52120A3774081221D8E9F50960279E
:103C3C00850C82850D83123D331240C0E50870035C
:103C4C00023D19123D3D850E82850F83123E5212A4
:103C5C00069B7900023D2E850882AA82EA9002E931
:103C6C007009E02404900301F08022E0F890030135
:103C7C00E0F514E82404FCE43400FDEC6514700158
:103C8C00ED70C0123AF99412123AF150B6850C82CA
:103C9C00850D83E0C0E074022A1239B1D0E0F00542
:103CAC0008850C82850D83A3E0C0E01239AAD0E010
:103CBC00123D4F85820C85830D780C1224457404BB
:103CCC0012220E12245C85108285118312491A125D
:103CDC00091D74041221D88A0C8B0DAE0CAF0D8506
:103CEC00080C7402250CF874033400F9EE4F7003C1
:103CFC00023B93851882851983E088828983123D63
:103D0C004FA3E0C0E01239AAD0E0023BA1E5097054
:103D1C000375090A850A82850B83123D331240C054
:103D2C00A90974040239A2124909851282851383E8
:103D3C0022900301E0F5F0E50884900300F07C008C
:103D4C007D0322F005088518828519832274EC12F4
:103D5C00223274FE1221C28A088B098C0E8D0FEA56
:103D6C002405FEEB3400FF851882851983AC82ADE7
:103D7C00838E828F83123E521209178A0A8B0BEEA6
:103D8C0024181235D5EA450B7003023E23123F95D9
:103D9C005032851882851983123E52120A2B8A10D2
:103DAC008B11EA4511606B7912AC0AAD0B85088258
:103DBC00850983123E52851082851183122230E9C7
:103DCC00F50A7058E4F50AF50B780A1224458E8230
:103DDC008F83A3A3E0F50A780A122445EE2403127C
:103DEC0040A4780A1224458E828F83123E5C120AFC
:103DFC003D74061221D8E9F50A7021850C82850DD7
:103E0C0083E0701F850882850983123E521206A139
:103E1C008011750A0E8009750A018004E50A600399
:103E2C001240B3850C82850D83E06004790080021A
:103E3C00A90A74021221D87F0C0223047C007D0392
:103E4C00850A82850B83123E5622E0FAA3E0FB2200
:103E5C00E0FCA3E0FD850882850983123E5622749E
:103E6C00EE12223274FE1221C28A088B098C0C8D40
:103E7C000DEA2405FEEB3400FF750E0085188285D3
:103E8C001983AC82AD838E828F83123E5212091736
:103E9C008A0A8B0BEA450B7003023F81123F955047
:103EAC0035851882851983123E52120A2B8A0E8B85
:103EBC000FEA450F605E7912AC0AAD0B850882855E
:103ECC000983123E52850E82850F83122230E9F54A
:103EDC000E6003023F8485088285098312419BAAE8
:103EEC000AFB120A1F8A108B11A810A911E849703D
:103EFC001E7AFF7BFF120A1F8A108B11A810A911C2
:103F0C00E849606C88828983E50AF0A3E50BF075BB
:103F1C000A008007750E0E805F050A9002E6E0FA33
:103F2C00E50AC39A504AE50A75F017A4FAABF08873
:103F3C00828983A3A3E02AFAA3E03BFB8A828B83CA
:103F4C001240ADEC4D70D2750A17750B00780A1241
:103F5C002445EEFCEFFD1211B774021221D8EEFCD1
:103F6C00EFFD850882850983123E521206A7801444
:103F7C00750E098003750E01124901850C82850DA1
:103F8C00831240C0A90E023AECE5082402F508E5BC
:103F9C00093400F5098A828B83A3A3A3E0A2E5224E
:103FAC0074041221D87F0A02230474EC1222328C7E
:103FBC00108D11EA2405F50CEB1235D8750F00EABB
:103FCC002402F50AEB1240A7850A82F583123E52B1
:103FDC00120A1F8A088B09EA450970030240997579
:103FEC000E008071850C82850D83E06401704F8E0C
:103FFC00828F83A3A312245C8E828F83A3A3A3A39B
:10400C00E0F5127513007812122445EE2405F51212
:10401C00EF3400F5137812122445123E4C120A3D6F
:10402C0074061221D8E9F50F6014850C82850D8376
:10403C00E4F01249018510828511831240C07C176F
:10404C007D007900EEFAEFFB1211CF8E828F83E4A4
:10405C00F0A3F0050E9002E6E0F8E50EC398501EB2
:10406C00E50E75F017A4F8A9F0850882850983A3DD
:10407C00A3124A8E1240ADEC4D6003023FF085084E
:10408C008285098374FFF0A3F0E50F7006123E4C95
:10409C001206ADA90F023E43F50AEF3400F50B22D0
:1040AC00A3E0FCA3E0FD228E828F83124909850ECA
:1040BC0082850F83E8F0A3E9F022C082C0839002CE
:1040CC00E2E06A7003A3E06B70067AE27B02800484
:1040DC007A007B000233B3C082C08378008C828D5F
:1040EC0083E06A7003A3E06B7010E875F003A4F82A
:1040FC00A9F0EC28FAED39FB8015088C828D83A38E
:10410C00A3A3E06A7003A3E06B60DF7A007B00027C
:10411C0033B374F61222321209E98A828B83E58258
:10412C00458370067A007B008007A3A3A3A3123EED
:10413C00520247B274F2122232E9FE740E12220EAF
:10414C0012419B741012220E1246138C828D83E046
:10415C0064027036A312490FF50CA3E0F9A80C7495
:10416C00026870037429697021750C02750D007852
:10417C000C1224457808122445780A122445EEF9CD
:10418C00120A6174061221D880027901024836E0C5
:10419C00F50AA3E0F50B2274E812223274FB12210B
:1041AC00C2E9851882851983F08A168B17ECFEED0F
:1041BC00FF751000741D12220E124905741D122277
:1041CC000E1240C08E828F83A3A3A3E0A2E4502DD5
:1041DC00741D12220E123E52120A2B8A828B83E518
:1041EC0082458370030245E4790AEEFCEFFDAA16C2
:1041FC00AB17122230E9F51060030245E7741F1269
:10420C00220E124613742112220E12419B74231299
:10421C00220EE0F50EA3E0F50F8E828F83E0640290
:10422C006003024592A3124905850882850983A380
:10423C00858212858313EE24061235D588828983F4
:10424C00E0FAA3E0F9EA2400F514E439F515781442
:10425C001224CF0100002801288742070002284CB5
:10426C00430328B942002983440129AE4402294F53
:10427C00440329834404292D459245E50E450F60DE
:10428C000302458D850C82850D83124608FAE9FBE5
:10429C008A828B83E0850A82850B8312463E122428
:1042AC00458A828B83A3E0FCA3E0024517E50E450B
:1042BC000F600302458D850A82850B837401F01211
:1042CC00461B850882850983F07C007D008E828FD9
:1042DC0083A3A3A3A3E02401FAA3E03400FB1209F7
:1042EC0017EA4B60418A828B83E02402F8850A82AC
:1042FC00850B83E028F0EA2404F8EB3400F988827B
:10430C008983E085128285138312465012463E1231
:10431C0024458A828B831240ACE5082403FAE50914
:10432C003400FB02451C850A82850B83E02404F0D3
:10433C007C047D007900AA12AB131211CF0245E761
:10434C00E50E450F600302458D12461BFEA3E0FFF0
:10435C00850A82850B837404F0EE850882850983B7
:10436C00F0EF851282851383F0740312220EAC8257
:10437C00AD83EEFAEFFB1209178A0C8B0DEA450D93
:10438C0070030244308A828B83A3A312325E7401C1
:10439C0012220E85820E85830F780E122445740529
:1043AC0012220E12245C7CFF7DFF12091D74041274
:1043BC0021D88B0FEA450F7033850C82850D831243
:1043CC0045F3122445850C82850D83A312245C7C55
:1043DC00027D007ACF7B8312074974041221D8E93D
:1043EC00700A740112220E74FFF0A3F08E828F8378
:1043FC00E064027039750C02750D00780C122445BE
:10440C008E828F831240ACE5082404FAE50934004F
:10441C00FB1211B774021221D8850A82850B83E036
:10442C0024028009740112220EEEF0A3EFF0740145
:10443C0012220E124604F0740112220EA31245FC35
:10444C00024587E50E450F600302458D850C82857C
:10445C000D831240ADAA16AB17120A55850A828538
:10446C000B837402F0EA850882850983F085128239
:10447C00851383EB02458AE50E450F600302458DDB
:10448C0012461BF8A3E0F9850A82850B837402F0AF
:10449C00E8850882850983F0E985128285138302F9
:1044AC00458A850C82850D83123E521211B1EAFCAD
:1044BC008C82A882C3950EE4950F405FE8650E7060
:1044CC0002E50F70047C008022851882851983E038
:1044DC00FAE50E2AFAE50F3400FBC3EA98EB9400D8
:1044EC005003E08005E50ECCC39CFCEC850A82856C
:1044FC000B83F08C0A750B00780A122445850C820C
:10450C00850D83E0250EFCA3E0350FFDAA08AB0951
:10451C001211B774021221D80245E7751007024533
:10452C00E7E50E450F705A850C82850D83124905FF
:10453C00850A82850B83740712326A1245FC12328B
:10454C006AA3E0851282851383F0E82402FAE93429
:10455C0000FB8A828B831245FC12462B124604A365
:10456C0012463412460DF0E82405F8E93400F988B7
:10457C0082898312460DA3124650A3A3A3A3F080F5
:10458C005A75100B8055741D12220E123E521209D0
:10459C00E98A828B83E5824583603D124905880C4C
:1045AC00890DE8450D6031780E122445780A1224E5
:1045BC00457808122445740612220EE0F9EEFCEF41
:1045CC00FDAA16AB17850C82850D8312223074065A
:1045DC001221D8E9F510800375100EA9107405127C
:1045EC0021D87F10022304E0F50E750F00780E22FF
:1045FC00E08508828509832212465A22124909E86D
:10460C002212465AA3A322E0F508A3E0F50922855D
:10461C000C82850D83E0F8A3E0F5838882E022A369
:10462C00A3F08A828B83A322F088828983A3A3A31D
:10463C00A322F08A828B8312464722E0F50A750B7F
:10464C0000780A22F088828983A312465A22E085D8
:10465C000882850983A3A32274EE12223274FE12FF
:10466C0021C28A0A8B0BECFAEDFB741412220EE0B9
:10467C00F510A3E0F511741612220EE0FE74181258
:10468C00220EE0F50EA3E0F50F851882851983AC98
:10469C0082AD831209178A0C8B0DEA450D60498592
:1046AC001882851983123E521209E98A828B83E59E
:1046BC00824583602FA3A3124613E50845096024A5
:1046CC00780E1224457810122445EEF9AC0CAD0D81
:1046DC00AA0AAB0B85088285098312223074041256
:1046EC0021D88006790E80027901023AEC74F61218
:1046FC00223274FE1221C2740C12220E124608854C
:10470C001882851983F0740112220EE9F0E4F50881
:10471C00F5097808122445750802780812244574A6
:10472C000412220E8582088583097808122445120A
:10473C000A3D74061221D874021221D8806874F7CD
:10474C00122232EAFEEBFF89087C197D03120A550E
:10475C00EA5402600BA908EEFAEFFB12090B800277
:10476C00790102316674F612223274FF6A70037496
:10477C00FF6B70168C828D831247B7E4F08C828DA0
:10478C0083A3A3A31247B7A38018120A258A088B08
:10479C0009A808A909E849600D8882898374FF1269
:1047AC003268A3A3E4F07F0202230474FFF0A3F0A9
:1047BC008C828D83A3A32274F6122232120A258ACC
:1047CC00828B83E58245836006A3A3E0FA80027A9C
:1047DC00007B0080D174F21222328A088B09ECFE25
:1047EC00EDFF740E12220EE0F50A120A258A0C8BCC
:1047FC000DA80CA90DE8497026EEFCEFFD7AFF7BA5
:10480C00FF120A258A0C8B0DA80CA90DE84970041F
:10481C007911801688828983E508F0A3E509F08870
:10482C00828983A3A3E50AF079007F06022304742E
:10483C00EE122232EAFEEBFF8C088D09890C7414FF
:10484C0012220E124905741612220E123E52750DCA
:10485C0000E84960030248F97402650C60030248E1
:10486C00F4741212220E12490FFCA3E0F9EC24008E
:10487C00F50EE439F50FEAF4F8EBF4F9EC58F8E539
:10488C000F59F9E849705CE5082406F8ED3400F995
:10489C00880A890B8882F58312491A120A558A10E4
:1048AC008B11E50E65107004E50F65116042780EF2
:1048BC00122445850A82850B8312491A120A5B74ED
:1048CC00021221D8E9F50D7027780E1224458508BF
:1048DC0082850983A3A3124918120A737402122148
:1048EC00D8800D750D808008750D0D8003750D0B2E
:1048FC00A90D023FB18E828F8312490922E0F8A3E1
:10490C00E0F92212490988828983E022A3A3E0FC02
:10491C00A3E0FDEEFAEFFB2274E812223274E712E8
:10492C0021C2851882851983EAF0A3EBF08C168DD1
:10493C0017890E750800750900743112220EE0F506
:10494C0012A3E0F513743312220EE0F514A3E0F574
:10495C0015743512220EE0F50FE50975F003A4F875
:10496C00A9F0851882851983124A8EE0F47003A38E
:10497C00E0F47003024A71EE2402F50CEF124A8443
:10498C00E07003024A7185160A85170B780A122407
:10499C0045AC14AD15AA12AB131209DD7402122129
:1049AC00D88A0A8B0BEA450B7003024A71E4F510A6
:1049BC00F5117810122445740612220E858210858A
:1049CC0083117810122445740912220E85821085E9
:1049DC0083117810122445851282851383A3A3A317
:1049EC00A312245C7914AC0AAD0B8E828F83123E19
:1049FC0052120A3774081221D8E97069850A828527
:104A0C000B83A3A3A3A3124905740212220E124016
:104A1C00C0850C82850D83E0A2E05018A90E7402AB
:104A2C0012220EAC82AD838E828F83123E521209FB
:104A3C002FE94208850C82850D83E0A2E15026E522
:104A4C000FF50A780A122449A90E740312220EAC2F
:104A5C0082AD838E828F83123E5212092974011209
:104A6C0021D8E942080509E509C39402500302491B
:104A7C0065A90874190245EB3400F50D850C82F517
:104A8C008322E028FEA3E039FF8E828F832274F20A
:104A9C00122232EAFEEBFF890B7401650B600E7477
:104AAC0002650B706A7901120C35E97062EEFAEF4F
:104ABC00FB120A1F8A088B09EA45096047750A0030
:104ACC00800B7C177D0079001211CF050A9002E64D
:104ADC00E0F8E50AC3985021E50A75F017A4F8A987
:104AEC00F0850882850983A3A3E028FAA3E039FBAB
:104AFC008A828B831233BA70C985088285098374C4
:104B0C00FFF0A3F07C197D03EEFAEFFB120A4F02C3
:104B1C00483674F21222328A088B09ECFEEDFF74CF
:104B2C000E12220E12419B900ACBE0F4603D7A09E2
:104B3C007B001211DBEA4B60328A828B8374B1F0FA
:104B4C00A3E412462DA312462BA3E508F0A3E50916
:104B5C00124B7AEEF0A3EF124B7AA3A3E50AF0A363
:104B6C00E50BF0900ACBE0F91211E7024836F08A17
:104B7C00828B83A3A3A3A3A322C082C08390619042
:104B8C007404F0A37448F0A37402F0906180744034
:104B9C00F09061BC7403F09061877419F0906265B9
:104BAC00741BF0906249E0C3941390619C400A74AA
:104BBC0009F090606674018007740DF0906066E4F3
:104BCC00F090619A7433F0A37455F09061A0743A2C
:104BDC00F090053FE064017009C2919003A67467E0
:104BEC0080059003A67461F0903122E49390618665
:104BFC00F090311CE493F46027E493540FF8906127
:104C0C0085E0686012E5C654804449F5C6E59E54BB
:104C1C007F644970F8E8F053C680E59E547F70FAC3
:104C2C007905120F7D024DB3C082C083E5A8F853FD
:104C3C00A87E906181E4F0A3F0A3F0C2BA539AFE6F
:104C4C00C289759B00C2C275E90075910075BF00E1
:104C5C0075A91175B905906181F0A374C0F0A3E436
:104C6C00F0D2BA439A0174805842A8024DB3C08264
:104C7C00C08374F81221C29003A4E0F8A3E0F9E811
:104C8C00497003024DA89003A4E0544060237908B6
:104C9C00851882851983AA82AB83120DF18518823F
:104CAC00851983AA82AB83120AE59003A4E054BF52
:104CBC00F0E054806010790C7A657B05120DF19050
:104CCC0003A4E0547FF0E0A2E0503190619A743379
:104CDC00F0A37455F09061A0743AF090053FE06435
:104CEC00017009C2919003A6746780059003A674A5
:104CFC0061F0120AEB9003A4E054FEF0E054026061
:104D0C003190619A743FF0A3745AF09061A0747F53
:104D1C00F090053FE064017009D2919003A6747184
:104D2C0080059003A6746AF0120AEB9003A4E05479
:104D3C00FDF0E054046013903120E493906186F010
:104D4C00120AF19003A4E054FBF0E05408601390B5
:104D5C003121E493906186F0120AF19003A4E0549F
:104D6C00F7F0E054106013903122E493906186F0D8
:104D7C00120AF19003A4E054EFF0E05420600A1200
:104D8C000AF19003A4E054DFF0A3E05401600D128B
:104D9C000D19120AF79003A5E054FEF074081221C5
:104DAC00D8024DB3F0A3F0D083D08202011F74EC73
:104DBC0012223274F41221C2851882851983AC82B6
:104DCC00AD8375838375828A74041220D59031204B
:104DDC0093F46003024F46907808E0C394025003AA
:104DEC00024F26740412220EAC82AD837583837538
:104DFC00822D74081220D58518828519838582121C
:104E0C00858313740412220EAC82AD83750EFF756C
:104E1C000FFF7FFF7E00750C48750D7880157408A8
:104E2C006E7003024EBA74096E7003024EBA740AA5
:104E3C006E607B850C82850D83780812207A8C82BB
:104E4C008D83A909E50AC9F8881074187808121F0F
:104E5C00A8E5104508F8C3E098A3E099850C828575
:104E6C000D83780812207A40188C828D8374187800
:104E7C0008121FA8E5104508F8E0C398F8A3E080D5
:104E8C001C74187808121FA8E5104508FAE9FB8C69
:104E9C00828D83E0F8A3E0F9EAC398F8EB99F9C3A3
:104EAC00E8950EE9950F5006880E890FEEFF0EE57A
:104EBC000C2404F50CE50D3400F50DEEC3941350E1
:104ECC0003024E2A74FF650E700474FF650F602395
:104EDC008F08740278081221AF74482508F5827483
:104EEC00783509F583780812207A85128285138328
:104EFC00E508F0EC2402FCED3400FD8512828513EC
:104F0C0083A3858212858313740C12220EE5826CA6
:104F1C007003E5836D6003024E1875080175090076
:104F2C007808122445740212220EAC82AD837A48A2
:104F3C007B0C12144574021221D8740C1221D87FE8
:104F4C000C022304C082C0839061AE7468F0A37419
:104F5C006AF090624574FBF0A304F053F4FD43FE39
:104F6C000290053F7401F09061A0E0643A90619A60
:104F7C0070237433F0A37455F09061A0743AF074FC
:104F8C000164017009C2919003A674678028900394
:104F9C00A674618021743FF0A3745AF09061A074E0
:104FAC007FF0740164017009D2919003A674718032
:104FBC00059003A6746A024DB27F08022304C082D6
:104FCC00C0839004F1E06401700A9004F6E0600480
:104FDC00790C80027900024DB3C082C08375E1F177
:104FEC009004F4E0605B14600914605F1460571463
:104FFC00705E120D2B9004EAE0F97AEB7B04120E32
:10500C00FF7AD67BBE7C897D8E120F357A557B5507
:10501C007C557D00120F0B9004F5E0F9120F1779F7
:10502C0001120F719004E8E0F8A3E0C82416F58291
:10503C00E83400F5837443F0A3740DF07900024D4D
:10504C00B3120D3180AF120D3780AA120D3D80A521
:10505C00791280EA74F012223275D90D9004D5E0E1
:10506C00A2E0E4331313F89004EAE0C4333354C0E1
:10507C00484401F5D978E8790488828983A3A3A3ED
:10508C00E0F5D988828983A3A882A983E864EE70AD
:10509C0003E9640470E378D5790488828983A3E0FA
:1050AC00F5D988828983A3A882A983E864DB70037D
:1050BC00E9640470E575E1959004D5E0F97AD67B46
:1050CC0004120F05900AED74DDF0A3740CF0A374B8
:1050DC0039F0A3740EF0A37439F0A3740EF0A3741A
:1050EC0039F0A3740EF0A374E3F0A3740CF0A37462
:1050FC0039F0A3740EF0A374FBF0A3740CF0900AB7
:10510C00FB7439F0A3740EF0A37439F0A3740EF091
:10511C00A37439F0A3740EF0A37439F0A3740EF0D9
:10512C00A37439F0A3740EF0A37439F0A3740EF0C9
:10513C009004F4E064019004E87012E0F8A3E0F548
:10514C00838882A3A37508007509088010E0F8A372
:10515C00E0F5838882A3A3750804750900750A001D
:10516C00750B007808121FF3750CFF750DFF750E8B
:10517C00FF750F007808790C1220419004E8E0F8D4
:10518C00A3E0C8240EF582E83400F58378081220D9
:10519C00899004E8E0F8A3E0C82414F582E8340010
:1051AC00F5837413F09003A27402F0024FC574F7E8
:1051BC001222329004FAE02407F5D99004EAE0C4F4
:1051CC00333354C0F5D978E8790488828983A3A352
:1051DC00A3E0F5D988828983A3A882A983E864EE29
:1051EC007003E9640470E39004FAE0601F78E879D6
:1051FC0004FAE82413F582E93400F583E0F5D98844
:10520C00828983A3A882A9831AEA70E690051AE022
:10521C002407F5D99004EAE0C4333354C04404F5B0
:10522C00D978E8790488828983A3A3A3E0F5D98887
:10523C00828983A3A882A983E864EE7003E96404DD
:10524C0070E390051AE0601F78E87904FAE82433DB
:10525C00F582E93400F583E0F5D988828983A3A827
:10526C0082A9831AEA70E675E195900AED74E9F06B
:10527C00A3740CF0A37439F0A3740EF0A37439F07A
:10528C00A3740EF0A37439F0A3740EF0A374E3F0BE
:10529C00A3740CF0A37439F0A3740EF0A374FBF098
:1052AC00A3740CF0900AFB7439F0A3740EF0A37481
:1052BC0039F0A3740EF0A37439F0A3740EF0A37438
:1052CC0039F0A3740EF0A37439F0A3740EF0A37428
:1052DC0039F0A3740EF09004E8E0F8A3E0C8240EB3
:1052EC00F582E83400F58374FFF0A3F0A3F0A3F08B
:1052FC009004E8E0F8A3E0C82414F582E83400F543
:10530C00837412F09003A27401F0FF02230474F76B
:10531C001222329004FAE02407F5D99004EAE0C492
:10532C00333354C04402F5D978E8790488828983F0
:10533C00A3A3A3E0F5D988828983A3A882A983E8D3
:10534C0064EE7003E9640470E39004FAE0601F7883
:10535C00E87904FAE82413F582E93400F583E0F5E2
:10536C00D988828983A3A882A9831AEA70E675E199
:10537C0095900AED74F5F0A3740CF0A374F5F0A3FA
:10538C00740CF0A374F5F0A3740CF0A374F5F0A3F3
:10539C00740CF0A374F5F0A3740CF0A374F5F0A3E3
:1053AC00740CF0A374FBF0A3740CF0900AFB74392A
:1053BC00F0A3740EF0A37439F0A3740EF0A3743937
:1053CC00F0A3740EF0A37439F0A3740EF0A3743927
:1053DC00F0A3740EF0A37439F0A3740EF09004E8EB
:1053EC00E0F8A3E0C8240EF582E83400F58374FFDE
:1053FC00F0A3F0A3F0A3F09004E8E0F8A3E0C82435
:10540C0014F582E83400F5837414F09003A274044C
:10541C00F00256E174F71222329004FAE02407F5F8
:10542C00D99004EAE0C4333354C04406F5D978E883
:10543C00790488828983A3A3A3E0F5D98882898320
:10544C00A3A882A983E864EE7003E9640470E39076
:10545C0004FAE0601F78E87904FAE82413F582E98D
:10546C003400F583E0F5D988828983A3A882A983C7
:10547C001AEA70E690051AE02407F5D99004EAE0E0
:10548C00C4333354C04404F5D978E879048882894C
:10549C0083A3A3A3E0F5D988828983A3A882A983D7
:1054AC00E864EE7003E9640470E390051AE0601F91
:1054BC0078E87904FAE82433F582E93400F583E0DE
:1054CC00F5D988828983A3A882A9831AEA70E67524
:1054DC00E195900AED74EFF0A3740CF0A37439F01D
:1054EC00A3740EF0A37439F0A3740EF0A37439F006
:1054FC00A3740EF0A37439F0A3740EF0A37439F0F6
:10550C00A3740EF0A374FBF0A3740CF0900AFB745C
:10551C0039F0A3740EF0A37439F0A3740EF0A374D5
:10552C0039F0A3740EF0A37439F0A3740EF0A374C5
:10553C0039F0A3740EF0A37439F0A3740EF0900438
:10554C00E8E0F8A3E0C8240EF582E83400F5837493
:10555C00FFF0A3F0A3F0A3F09004E8E0F8A3E0C8F8
:10556C002414F582E83400F5837415F09003A274CA
:10557C0003F00256E1C082C0839004E8E0F8A3E097
:10558C00C82406F582E83400F583E4024DB074F7C4
:10559C001222329003D0E0F875F003A4C8AAF02AC6
:1055AC00F974D228F8740339F9E82405FAE93400BF
:1055BC00FB8A828B83E0FCA3E0FD88828983A3A312
:1055CC00A3A3A3A3A3A3A3ECF0A3EDF088828983E8
:1055DC00A3A3A3A3A3A3A3E024FFF8A3E034FFF9A0
:1055EC008A828B83E8F0A3E9F00256E174F7122269
:1055FC0032EAFEEBFF9061D0E060030256D575D91C
:10560C000E75D90375D904EE248BF582EF3400F5B1
:10561C0083E5822408F8E5833400F9E0F5D9A3E8A2
:10562C0065827003E9658370F2EE2483F582EF34B2
:10563C0000F583E5822404F8E5833400F9E0F5D91C
:10564C00A3E865827003E9658370F275E1957908CA
:10565C00EE248BFAEF3400FB120DE57904EE248373
:10566C00FAEF3400FB120DE57C00EEF8EFF9ECFAE2
:10567C00C3E49AFA95E0FBEE2AFAEF3BFBEA248AA4
:10568C00F582EB3400F583E0C0E0E824AAF582E96A
:10569C003400F583D0E0F00C88828983A3A882A91A
:1056AC0083ECC3940840C7EE246FF582EF3400F509
:1056BC0083E0F8A3E0F9EE2471F582EF3400F58372
:1056CC00E8F0A3E9F07901800279008008F0EEA2FD
:1056DC00E092AF79007F01022304C082C08375D9A8
:1056EC000275D90375D90575E195EA246FF582EB3E
:1056FC003400F583E0F8A3E0F9EA2471F582EB3489
:10570C0000F583E8F0A3E9F07901024DB374F612C9
:10571C002232EAFEEBFF9005457406F075084575DC
:10572C00090578081224457C017903120E2D7402A8
:10573C001221D875D90675D903758245758305E094
:10574C00F5D9A3E582644A7004E583640570F075AD
:10575C00E1959003A2E06408701EEE246FF582EFD1
:10576C003400F583E0F8A3E0F9EE2471F582EF3410
:10577C0000F583E8F0A3E9F079010259E774F61219
:10578C002232EAFEEBFF9061D0E070667801900562
:10579C0045740BF09003A2E0640770197508457509
:1057AC00090578081224457C017903120E2D740228
:1057BC001221D87805740128F5D975D9037582455D
:1057CC00758305E8FAE0F5D9A31AEA70F875E19546
:1057DC00EE246FF582EF3400F583E0F8A3E0F9EEE8
:1057EC002471F582EF3400F583E8F0A3E9F0790138
:1057FC00800279000259E774F7122232EAFEEBFFBD
:10580C0075D90375D90375D90DEE24DDF582EF3406
:10581C0000F583E0F5D975E1957904120F3BEE2480
:10582C006FF582EF3400F583E0F8A3E0F9EE247114
:10583C00F582EF3400F583E8F0A3E9F07901025624
:10584C00E174F6122232EAFEEBFF9061D0E0F874BC
:10585C0080C398FAEE2482F582EF3400F583E06081
:10586C0004780480027800E8240BF8EAC39850030B
:10587C000259127D09900545EDF0EE24E2F8EF3463
:10588C0000F97A467B057C0888828983E08A828BC2
:10589C0083F088828983A3A882A9838A828B83A3BD
:1058AC00AA82AB831CEC70E0EE2482F582EF34000C
:1058BC00F583E0601D7508457509057808122445C7
:1058CC007C097903EEFAEFFB120E2D74021221D82B
:1058DC007D0D74012DF5D975D90375824575830538
:1058EC008D08E0F5D9A31508E50870F675E19579F2
:1058FC0004120F3BEE241DF582EF3400F583E4F027
:10590C00A3F07901800279000259E774F612223271
:10591C00EAFEEBFF9061D0E0F87480C398FAEE24B5
:10592C0082F582EF3400F583E0600478048002781D
:10593C0000E82408F8EAC39850030259E578069069
:10594C000545740CF09003BFE0900546F09003C041
:10595C00E0900547F09003C1E0900548F09003C239
:10596C00E0900549F09003C3E090054AF0EE2482E4
:10597C00F582EF3400F583E0601B75084575090569
:10598C0078081224457C067903EEFA120E2D740267
:10599C001221D8780A740128F5D975D90375824576
:1059AC007583058808E0F5D9A31508E50870F67528
:1059BC00E1957904120F3BEE246FF582EF3400F57C
:1059CC0083E0F8A3E0F9EE2471F582EF3400F5835F
:1059DC00E8F0A3E9F07901800279007F0202230448
:1059EC0074F6122232EAFEEBFF9061D0E0F874807C
:1059FC00C398FAEE2482F582EF3400F583E060045C
:105A0C00780480027800E82404F8EAC39850030272
:105A1C005AC67802900545E8F0EE24F4F582EF348E
:105A2C0000F583E0900546F0EE2482F582EF340019
:105A3C00F583E0601B750845750905780812244547
:105A4C007C027903EEFA120E2D74021221D878061C
:105A5C00740128F5D975D9037582457583058808B5
:105A6C00E0F5D9A31508E50870F675E195EE2473F9
:105A7C00F582EF3400F583E4F0EE247FF582EF3409
:105A8C0000F583E4F0EE241DF582EF3400F583E499
:105A9C00F0A3F07904120F3BEE240DF582EF3400E5
:105AAC00F583E0F8A3E0F9EE2471F582EF3400F50C
:105ABC0083E8F0A3E9F07901800279000259E774D8
:105ACC00F61222329061D0E0F87480C398FCEA247C
:105ADC0082F582EB3400F583E06004780480027870
:105AEC0000E82404F8ECC398405B790290054574F7
:105AFC0007F0EA24F5F582EB3400F583E0900546D7
:105B0C00F0EA2482F582EB3400F583E06018750826
:105B1C004575090578081224457C0209120E2D746E
