:020000040000FA
:060000000201070226CBFD
:03002B00022B1D88
:03003300022B3E5F
:0300530002273E43
:03006B00022B74F1
:10008300022537E5C754F84401F5C779012200007A
:100093000080FB120086B900030200F1E4792178A5
:1000A30008B800028004F709D8FCE479297802B87B
:1000B30000028004F709D8FCE490028178147908DF
:1000C3008002F0A3D8FCD9FA7A947B09900137789F
:1000D300E479058015E493A3AD82AE838A828B8392
:1000E300F0A3AA82AB838D828E83D8E9D9E7758288
:1000F3007F7583AA74031201197582917583007445
:100103000012011975D00075813F751881751902A8
:10011300759F00020096C09FF59FE473D09F22D085
:1001230083D082C09FE493C0E0740193C0E0740263
:1001330093F59F22FF0000B4000028002800283018
:1001430075A000A000A000A00000080008E001F0D6
:10015300001000100010001000100010005000509C
:1001630000500010001000D0070000000000000F36
:100173000001000500307507001000010081FF0039
:10018300000000FF180836081E08FF0202020802DA
:100193005000A0000000E80302178201000004825F
:1001A300021B82010000EB09022182010000B3025D
:1001B300021B82010000EC09022382010000C90234
:1001C300021B82010000ED09022582010000CB021F
:1001D300021B82010000EE09022782080000CC0204
:1001E300021B82010000EF09022982010000F009CD
:1001F300FF0100FF200217820100000782021B8219
:10020300010000540A022B820000000000021F823A
:100213000300001903E80DE80DE80DE80DE80DE80B
:100223000DE80DE80DE80DE80DE80DE80DE80D6AA1
:1002330010821064100A6368617261637465726985
:10024300737469632031000A636861726163746562
:100253007269737469632032000A6368617261634F
:1002630074657269737469632033000A6368617229
:10027300616374657269737469632034000A636827
:100283006172616374657269737469632035000A0E
:10029300636861726163746572697374696320363C
:1002A300000A636861726163746572697374696378
:1002B3002037000A636861726163746572697374DD
:1002C30069632038000217820100000A82021B8240
:1002D300010000950A025F820300004207021D82AB
:1002E300010000960A021B82010000A70A025B823A
:1002F3000300004E07021D82010000A80A021B82B0
:10030300010000B90A0259820300005A07021D8244
:10031300010000BA0A021B82010000CB0A025782C5
:100323000300006607021D82010000CC0A021B8243
:10033300010000DD0A0255820300007207021D82DC
:10034300010000DE0A021B82010000EF0A02538251
:100353000300007E07021D82010000F00A021B82D7
:10036300010000010B0251820300008A07021D8273
:10037300010000020B021B82010000130B024F82DB
:100383000300009607021D82010000140BFFFF0209
:100393000202020202020202010D00000010010229
:1003A30017820100001082021B82010000EF0B0282
:1003B3003182010000B407021B82010000F00B022E
:1003C3002F820100004C81021B82010000F10B020D
:1003D3002D820100003081021B82010000F20B021A
:1003E3009A810100009780021B82010000F30B0237
:1003F3003782010000A980021B82010000F40B0276
:100403004782010000DF80021B82010000F50B021E
:100413004D82010000CD80021B82010000F60B0219
:100423005D820100003E81021B82010000F70B0286
:100433004982010000F80B01E803053F100AFF00A1
:1004430001307503020106000000000000000000F7
:100453000000000000000000000000000000000099
:10046300000000FFFF0600800CE8030A6368617266
:10047300616374657269737469632031000A636828
:100483006172616374657269737469632032000A0F
:10049300636861726163746572697374696320333D
:1004A300001A636861726163746572697374696366
:1004B3002034000A636861726163746572697374DE
:1004C30069632035000A63686172616374657269E8
:1004D300737469632036001A6368617261637465BB
:1004E3007269737469632037000A636861726163B8
:1004F300746572697374696320380002178201009E
:10050300000D82021B82010000CB0C0263820300F8
:10051300005909021D82010000CC0C021B8201005C
:1005230000DD0C0239820300005B09021D82010019
:1005330000DE0C021B82010000EF0C023B82030071
:10054300005C09021D82010000F00C021B82010005
:1005530000010D023D820300005D09021F820300BA
:10056300005E09021D82010000020D021B820100D0
:1005730000130D023F820300006409021D82010083
:1005830000140D021B82010000250D0241820300AD
:10059300006809021D82010000260D021B82010072
:1005A30000370D0243820300006909021F82030022
:1005B300006B09021D82010000380D021B8201003D
:1005C30000490D0245820300007109021D820100EA
:1005D300004A0D010809494D555555555505120851
:1005E300000800020A000FFF0102000000000000E3
:1005F3000000000000000302FED0221052656D6966
:100603006E6465725465737400000000000000009E
:1006130000CC140000D214120122229B03120122E7
:10062300399B031201226A9B03120122A59B031229
:100633000122CF9B03120122F99B03120122109C7A
:1006430003120122279C031201223E9C0312012262
:10065300679C031201227A9C03120122909C0312CD
:100663000122A39C03120122CA9C031201227AF5E0
:10067300011201227EF601120122B6F601120122B5
:10068300D9F601120122E4F60112012207F7011241
:10069300012216F801120122EBF80112012266F978
:1006A30001120122EEF90112012229FA011201229B
:1006B30060FA01120122EEFA01120122C7FB0112B4
:1006C300012227FC0112012232FC01120122B1FC9A
:1006D30001120122B4FC01120122B7FC0112012212
:1006E30046FD0112012249FD0112012279FD011289
:1006F3000122A3FD0112012291FE0112012243FFF7
:100703000112012216E9021201223EE9021201221C
:100713006CE902120122A3E90212012201EA021288
:1007230001224CEA0212012297EA02120122D7EABD
:10073300021201221DEB021201224BEB02120122D3
:1007430008EC0212012212EC021201221FEC021227
:10075300012252EC021201221EED021201222AEDA5
:100763000212012242ED021201224CED0212012279
:10077300CBA603120122D9A603120122F1A603126A
:10078300012209A703120122EEC9011201229ACA0A
:100793000112012215CB0112012236CC01120122D2
:1007A30072CC011201221BCD0112012202CE0112D1
:1007B300012266CF01120122BDCF011201223ED0D8
:1007C300011201222ED1011201227BD10112012239
:1007D30001D20112012233D20112012247D40112A4
:1007E300012289D401120122A7D4011201222AD5A0
:1007F30001120122FED501120122C6D601120122E5
:100803000FCC02120122E2CC021201228BCD021282
:100813000122DECD021201228ECE021201221ACF54
:100823000212012206D00212012235D00212012245
:1008330048D10212012290D10212012265D2021282
:100843000122A1D202120122BDD20212012291A9D8
:1008530003120122118403120122278403120122AD
:100863004D84031201226985031201227385031249
:100873000122A88603120122A08703120122EFE3BB
:10088300021201221FE50212012252E50212012285
:100893009CE50212012263E7021201229DAA0112C2
:1008A300012207AB0112012266AC0112012276ACD0
:1008B30001120122A3AC01120122FAAC011201229E
:1008C300A3AD01120122AAAE0112012274AF0112DB
:1008D3000122D4B00112012217B101120122BCB1CD
:1008E3000112012209B2011201222FB201120122C7
:1008F3003DB40112012242B40112012247B6011292
:10090300012294B60112012207B7011201223AB75C
:1009130001120122DCB70112012285B80112012262
:10092300BDB801120122C0B80112012208B9011297
:10093300012248B9011201229FB901120122E59354
:1009430003120122FD930312012245940312012293
:100953005B9403120122A29403120122B69503129F
:1009630001224396031201228E9603120122D42BF5
:1009730000120122E02B001201221B2C0012012283
:10098300602C00120122202D00120122A62D00123C
:1009930001220B2E00120122372E00120122702E8B
:1009A30000120122AE300012012292320012012203
:1009B300783400120122BB350012012209380012DB
:1009C30001221B3900120122663A00120122763BF2
:1009D30000120122933B00120122CE3B001201229E
:1009E300F03B00120122533C001201221441001279
:1009F3000122A94100120122FA41001201222142DF
:100A030000120122734200120122914200120122BC
:100A1300EB4200120122D443001201224A45001284
:100A23000122CE4500120122D3ED02120122DDED97
:100A33000212012220EE021201223BEE02120122D7
:100A4300CBEE02120122F3EE0212012230EF021268
:100A5300012267EF0212012290EF0212012205F038
:100A6300021201221AF0021201222FF002120122B5
:100A730060F00212012274F00212012299F00212B4
:100A83000122D3F002120122FFF00212012237F1F8
:100A930002120122B6F102120122FFF10212012217
:100AA30029F20212012254F202120122DBA20312E2
:100AB30001221F73001201224D73001201229B7445
:100AC300001201227B75001201229A750012012285
:100AD3001776001201225A7600120122B077001213
:100AE3000122717800120122F87A00120122997B07
:100AF300001201228F7C001201228C7D0012012240
:100B0300E67E00120122717F0012012280A10312EE
:100B13000122E9A1031201223DA20312012264A2D0
:100B23000312012295A2031201227CF20212012276
:100B3300E9F20212012230F30212012248F40212F6
:100B4300012244F50212012227F602120122FCB30C
:100B5300021201223EB40212012210B50212012236
:100B6300E9B502120122E3B602120122C5B702124D
:100B730001222EB802120122E4B80212012258B94E
:100B830002120122C4B902120122EDB9021201229A
:100B930067BA0212012200BB0212012265BB0212D4
:100BA30001227ABB02120122C0BB02120122D9BB6D
:100BB300021201223EBC0212012241BC0212012296
:100BC300028E031201222A8E03120122688E03125F
:100BD3000122268F031201228D8F03120122A98F76
:100BE30003120122D18F0312012201900312012269
:100BF3001090031201228D9003120122B39003126D
:100C030001228CBA011201226ABC011201229CBE8C
:100C130001120122D8BE0112012205BF01120122D5
:100C2300EFBF011201223AC00112012285C0011255
:100C3300012297C001120122D7C0011201220CC167
:100C4300011201225AC10112012289C1011201229A
:100C5300ACC101120122F9C1011201227EC20112AB
:100C6300012298C401120122D7C60112012218C71A
:100C730001120122BAC801120122FBC8011201228A
:100C83006EC901120122C4C901120122B99B0212C9
:100C93000122B79C0212012250A30212012271A564
:100CA300021201223CA702120122A4A8021201226D
:100CB300354600120122E446001201222A4700129F
:100CC30001226A4800120122004A001201227A4AD4
:100CD30000120122954A00120122104B0012012238
:100CE3006A4C00120122CA4D00120122D04E00129A
:100CF30001223150001201224A5000120122A85051
:100D030000120122965100120122C9510012012240
:100D1300395200120122B35200120122FD52001275
:100D23000122C753001201229C54001201227B5559
:100D330000120122065600120122745600120122EB
:100D4300E85600120122135700120122D257001253
:100D530001223759001201225459001201227359FA
:100D630000120122645A00120122895A0012012240
:100D7300B35A001201222E5B00120122885B00127B
:100D83000122F15C001201229F5D00120122E05D4D
:100D930000120122E58D02120122338E021201227A
:100DA3003F8E021201221D8F021201224E8F021268
:100DB30001227F8F02120122FF8F0212012237903C
:100DC30002120122899002120122C690021201220C
:100DD300E39202120122099502120122F4960212F1
:100DE3000122DE9802120122C92B001201228A96E7
:100DF30001120122BA9601120122939D01120122CE
:100E0300189F0112012215A501120122FDA501124D
:100E130001223AA6011201225DA6011201228EA629
:100E23000112012297A601120122A1A60112012299
:100E33008FA70112012285A801120122105E001260
:100E430001220F6200120122156200120122506971
:100E530000120122696E00120122AA8703120122E5
:100E6300A48803120122188903120122568903124E
:100E73000122CA8903120122438A031201224C8AE6
:100E830003120122588A031201226D8A03120122DE
:100E9300AB8A03120122C18A0312012252FB0212FE
:100EA30001225FFB0212012279FB02120122B8FB2D
:100EB30002120122F6FB021201225BFC0212012242
:100EC30070FC021201227BFC0212012288FC021236
:100ED30001229FFC02120122ADFC02120122B8FC86
:100EE30002120122C4FC02120122D3FC02120122CB
:100EF300DEFC0212012201FD02120122A8FD0212F0
:100F03000122B8FD02120122D2FD02120122EFFDDD
:100F1300021201220BFE0212012230FE02120122F2
:100F23003BFE0212012250FE0212012264FE021253
:100F33000122C5FE02120122CBFE02120122D1FEC2
:100F430002120122D7FE02120122EFFE0212012237
:100F530022FF0212012250E701120122D4E70112FB
:100F6300012283E801120122E2E90112012203ECCA
:100F730001120122EFEC0112012224ED01120122E0
:100F830046ED01120122F5ED01120122EDEF0112EE
:100F9300012216F001120122A8F001120122DAF057
:100FA30001120122E7F0011201223EF10112012296
:100FB30064F101120122D1F301120122D4F40112CE
:100FC30001222CF501120122DFD801120122E9D9F5
:100FD30001120122D0DA01120122DADA011201220E
:100FE300FCDA0112012208DB01120122A1DC011249
:100FF3000122D0DC01120122ECDD0112012245DEC7
:1010030001120122ABDF011201228AE00112012247
:10101300E6E00112012253E1011201228EE10112E5
:101023000122CDE10112012286E401120122A0E492
:10103300011201222CE5011201223AE501120122DB
:1010430093E501120122A1E50112012214E6011226
:10105300012278E601120122C2E601120122CEA882
:1010630002120122F0A80212012216AB021201227F
:101073002BAE0212012243AF02120122F6AF02127B
:101083000122D8B002120122DC9C03120122019D2D
:1010930003120122739D0312012295C4021201223D
:1010A3009EC402120122A7C4021201227EC50212AB
:1010B30001222FC70212012265C7021201229FC714
:1010C30002120122D5C7021201220FC80212012205
:1010D30043C8021201226FC802120122B8C80212C9
:1010E3000122F2C8021201223BC90212012293C952
:1010F30002120122C8C90212012223CA02120122CA
:101103005DCA02120122AECA02120122E4CA02120D
:1011130001221ECB021201224CCB021201226FCB01
:101123000212012258A80312012284A803120122E9
:10113300DFA803120122E9A803120122F9A803126E
:101143000122E9F60212012223F70212012213F807
:1011530002120122E6F8021201222DFB02120122E1
:1011630037D90212012241D9021201227FD9021278
:101173000122C8D90212012202DA021201225CDA28
:10118300021201227DDA0212012286DA0212012200
:10119300D7DA0212012200DB021201220ADB021259
:1011A300012276DB0212012204DC0212012252DC4C
:1011B3000212012288DC021201220FDD0212012237
:1011C3004FDD0212012287DD0212012299DD021294
:1011D3000122B8DD02120122C1DD021201227BDEEF
:1011E30002120122F8A403120122239903120122FD
:1011F3005999031201228F9903120122E89A0312CB
:10120300012215AA031201222BAA0312012235AAD5
:10121300031201229FFF0212012200800312012206
:10122300198003120122BD8003120122FD800312E3
:1012330001221681031201224A810312012297819E
:1012430003120122CB81031201220D820312012218
:10125300F2A5031201221BA60312012244A60312C4
:10126300012286A603120122F18A03120122168BA0
:1012730003120122428B0312012245AB0312012206
:10128300D2AA03120122678201120122CB84011226
:1012930001227D86011201226F8701120122F48748
:1012A300011201227288011201229F880112012278
:1012B300C38B011201223D8C011201222C8D0112DC
:1012C3000122668D01120122A68D01120122608F77
:1012D30001120122B38F01120122FC8F011201229C
:1012E3006A90011201229C9001120122B490011212
:1012F3000122C99101120122D991011201220993FC
:10130300011201222B930112012261930112012286
:1013130006950112012245950112012265960112DB
:101323000122A2A703120122B3A703120122B4FFD1
:1013330001120122F3FF0112012285AB03120122E4
:1013430003A90312012213A90312012228A90312DC
:1013530001228EA903120122F4A30312012279A40C
:1013630003120122DFA40312012208A003120122A7
:1013730031A0031201229CA003120122EDA003124B
:10138300012246A103120122FB90031201221091B4
:1013930003120122599203120122CD920312012258
:1013A300E79203120122FE92031201221193031208
:1013B30001222993031201223E93031201225F9318
:1013C30003120122B0930312012296AB03120122EE
:1013D300819E03120122D69E03120122449F03120F
:1013E3000122B49F03120122B89603120122E2964E
:1013F30003120122B79703120122AB9803120122B1
:1014030065BC0212012222BD021201225DBD02123D
:10141300012285BD02120122E7BD0212012233BE61
:10142300021201228CBE021201221DBF02120122EE
:101433001FC002120122DCC1021201225EC202128B
:101443000122C3C202120122DAC202120122EAC33A
:101453000212012228C40212012200800212012278
:101463008A83021201221285021201226985021265
:101473000122888502120122068602120122A48714
:1014830002120122888802120122728C02120122A6
:10149300428D02120122A5DE02120122F5DE0212A2
:1014A300012212DF021201227DE00212012264E115
:1014B30002120122ABE30212012232D302120122F1
:1014C300F7D502120122F4D70212012214D8021214
:1014D300012211D90212012219AB0312012267ABB7
:1014E30003E066701008A3E066700A08A3E0667064
:1014F3000408A3E06622C3E7960809E7960809E70C
:10150300960809E79622C3E09608A3E09608A3E0AD
:101513009608A3E09622C008C3E096F50808A3E066
:1015230096420808A3E096420808A3E0964508708F
:1015330001D3D00822E9799EC608CAC608CBC608DB
:10154300CCC6C370207996CACBCC7019798ECBCC1C
:1015530070137986CC700EF9802ACA33CACB33CB89
:10156300CC33CC331930E7F2CCCBCA3350147004EC
:10157300EA30E00DE4CA3ACACB3BCBCC3CCC5002B8
:1015830009C3E913C6CC182313C6CB18C6CA18C699
:10159300F922E62618461846184622E7271947195E
:1015A30047194722181818E60846087009E626085E
:1015B3007005E633F4220822191919E7094709705F
:1015C30009E727097005E733F4220922E6084608EC
:1015D300C3134608336002E633F422E7094709C31D
:1015E300134709336002E733F422001215CF604F2B
:1015F3001215DE6012E7548066F61215A7701112F9
:10160300159E703B090909F4F618F618F618F62228
:101613001215BB701512159508080860EAE6447F99
:10162300F618768018E4F618F6221215956016124D
:10163300159E7012E4F608F608F608E65480F609DB
:10164300090918181822EAC0E0EBC0E0ECC0E0ED8D
:10165300C0E0E687F0A4FBACF008E687F0A42CFC1E
:10166300E435F0FA1809E687F0A42C4B6002740104
:10167300CA35F0FCE433FB09E687F0D2F7A42CCBA0
:1016830035F0FC1908E687F0A42BCC35F0FBE433E6
:10169300FD0819E687F0D2E7A42C4ACB35F0CD3408
:1016A30000FC09E687F0D2E7A42DCC35F0FDE43346
:1016B300FA0918E687F0D2F7A42CCD35F0CA340026
:1016C300FC08E687F0D2E7D2F7A42ACC35F07A7E7D
:1016D30020E70B0ACB33CBCD33CDCC33CC33CB3359
:1016E30050147004ED30E00ED2F1E4CD3DCDCC3C8E
:1016F300CC3B5005DA05C2F1EB547FC63308E63321
:1017030092F0FBE73309E733C39A502D2B70190C82
:101713000D4C4D70151806E608C333700D20F10A01
:10172300A2F013F6E418800B4024E4F630F00276BE
:101733008018F618F618F68024D33B14501074FF63
:10174300A2F013F6187680E418F618F6800FA2F0CC
:1017530013F618E63303F618ECF618EDF6D0E0FDB1
:10176300D0E0FCD0E0FBD0E0FA221215CF700418D1
:101773001818221215DE700D74FFF61819F61819D1
:10178300F61819F622E7548066F6121595700F12B3
:10179300159E70F014F608F608F608F680D11215B7
:1017A3009E700CF608F608768008E6447F80EC12FB
:1017B30015BE700C1215AA60BFE65480F6E480BB18
:1017C3001215AA700519191980A5E869700C763FDE
:1017D30018768018F618F6E8F922E6CDC0E018EC82
:1017E300C0E0E633CD33CDD313F6E719FCE719197F
:1017F30033CC33C3947F400ECD9D502408E65480F0
:10180300F6E418F6800FF4043D14501408E6447F00
:10181300F6187680E418F618F6D0E0FCD0E0FD2246
:10182300CCD313CCFD18E4C6CBC0E018E4C6CAC0C1
:10183300E00808ED08C633E613F618E433C675F07E
:1018430003C3CA97CA09CB97CB199C40047D088070
:101853002EBD000302191616B6FF05060608161854
:10186300C3CA33CACB33CB33CA27CA09CB37CB1945
:101873003CC37D08803E187D0820E75CC633C6CA9A
:1018830033CACB33CB33DDF1D5F0EB30E77BCA97EB
:10189300CA09CB974ACB199C406F4B7025E620E0D1
:1018A300218066187D08C3CA97CA09CB97CB199CB8
:1018B300D3C633C6CA33CACB33CB3350C9DDE7D51E
:1018C300F0E1D3E4C636C608C636C608C636C6082F
:1018D300C636C61818188031C3CA97CA09CB97CB26
:1018E300199CB34097C633C6CA33CACB33CB33DD57
:1018F30034D5F02EC6A2E0C640C8CA27CA09CB37E2
:10190300194A70BECB3CB480B90808E63308E63305
:10191300601F181818D0E0FAD0E0FBD0E0FCD0E04C
:10192300FD22187D08CA27CA09CB37CB193CD380BF
:101933008013F618E4B67F11F618B6FF0EF618C634
:101943000470D20808768080CAF618F618F680C5A7
:10195300080808EAC0E0EBC0E086F0E7A4FA18093B
:1019630086F0E7A42AFA180986F0E7A42AFA1809E8
:1019730086F0E7A42AFA1986F0E7A4FBE5F02AFA31
:10198300190886F0E7A42BFBE5F03AFA190886F06C
:10199300E7A42BFBE5F03AFA18180986F0E7A4C58B
:1019A300F02BFBE43AFA1908E7C5F0C6A426F6E5DE
:1019B300F03BFBE43AFA1886F0E7A4F6E5F00826D4
:1019C300F6E43B08F6E43A08F6D0E0FBD0E0FA226E
:1019D3006016080808C6C313C618C613C618C6136C
:1019E300C618C613C6D5E0EA2270090808082260A3
:1019F30016181818C6C333C608C633C608C633C676
:101A030008C633C6D5E0EA22E627F60809E637F624
:101A13000809E637F60809E637F622E026F608A3B2
:101A2300E036F608A3E036F608A3E036F622E02611
:101A3300F008A3E036F008A3E036F008A3E036F0A0
:101A430022C3E697F60809E697F60809E697F6082B
:101A530009E697F622C3E096F008A3E096F008A300
:101A6300E096F008A3E096F022E657F60809E65759
:101A7300F60809E657F60809E657F622E056F6088F
:101A8300A3E056F608A3E056F608A3E056F622E0D4
:101A930056F008A3E056F008A3E056F008A3E0567A
:101AA300F022E0F608A3E0F608A3E0F608A3E0F6C8
:101AB30022E6F008A3E6F008A3E6F008A3E6F02286
:101AC300E0FAA3E0FBA3E0FCA3E0FD22EAF0A3EB32
:101AD300F0A3ECF0A3EDF022E0F8A3E0F9A3E0FA21
:101AE300A3E0FB22E8F0A3E9F0A3EAF0A3EBF022E2
:101AF300CAC0E0E6F0A308DAFAD0E0FA22CAC0E0EE
:101B0300E0A3C582CCC582C583CDC583F0A3C582BE
:101B1300CCC582C583CDC583DAE6D0E0CA22C3E44F
:101B230098F8E499F9121B628026C3E49AFAE49BBD
:101B3300FBE920E7E9121B62E498F8E499F922C370
:101B4300E498F8E499F9121B62E498F8E499F9C36C
:101B5300E49AFAE49BFB22EB20E7CFE920E7E0B924
:101B63000010BB0008E88AF084F8AAF022E4FBC85E
:101B7300FA22EB70227B10C833C8C933C93350072C
:101B8300C39AC3DBF280069A50012ADBEAC833F416
:101B9300C8C933F4C9FA2275F008E4C833C8C93395
:101BA300C933C99AC99B5004C92AC93BD5F0ECFB78
:101BB300C833F4C8E4C9FA22600D08C6A2E713C605
:101BC30018C613C6D5E0F322600C08C6C313C618A3
:101BD300C613C6D5E0F422700422600D18C6C333C1
:101BE300C608C633C6D5E0F41822251810AF08F589
:101BF30018400C15198008F51840021519D2AF22A8
:101C030000C0D0251810AF08F518500C051980082E
:101C1300F51850020519D2AFD0D0222518F582103D
:101C2300AF08F518400C15198008F518400215196E
:101C3300D2AF851983222518F582E43519F583225D
:101C43002518F8E43519F9222518FAE43519FB2289
:101C53002518FCE43519FD22E4732518C582C0E07C
:101C6300E51934FFC583C0E0E518C3958224F81055
:101C7300AF088583198582188008858319858218A2
:101C8300D2AFCEF0A3E520F0A37808E608F0A3DEF8
:101C9300FAEFF0A3E58124FAF8E608F0A3E608F0EA
:101CA300A3E608F0A30808E608F0A3E608F0A315E6
:101CB300811581D0E0FED0E0F8158115811581E80A
:101CC300C0E0EEC0E0222518C582C0E0E51934FF6C
:101CD300C583C0E0E518C3958224F910AF08858356
:101CE300198582188008858319858218D2AFCEF0B2
:101CF300A3E520F0A37808E608F0A3DEFAEFF0A34B
:101D0300E58124FBF8E608F0A3E608F0A30808E65B
:101D130008F0A3E608F0A315811581D0E0FED0E01A
:101D2300F815811581E8C0E0EEC0E02285198385AE
:101D33001882E0A3FEE0A3F5207808E0A3F608DF0D
:101D4300FAE0A3FFE0A3C0E0E0A3C0E0E0A3C0E0AB
:101D5300E0A3C0E0E0A3C0E010AF0885821885834C
:101D6300198008858218858319D2AFD083D0820267
:101D7300011F851983851882E0A3FEE0A3F520786F
:101D830008E0A3F608DFFAE0A3FFE0A3C0E0E0A3C6
:101D9300C0E0E0A3C0E0E0A3C0E010AF0885821874
:101DA3008583198008858218858319D2AFD083D0A3
:101DB3008222C0D02518C582C0E0E51934FFC5834F
:101DC300C0E0E518C3958224F310AF088583198515
:101DD30082188008858319858218D2AFC8F0A3E9D9
:101DE300F0A3EAF0A3EBF0A37908E709F0A3D8FA8C
:101DF300ECF0A3EDF0A3EEF0A3EFF0A3D0E0F0A39B
:101E0300D0E0F0A3D0E0F0A3E520F0A3E5F0F0A349
:101E130022851983851882E0C0E0A3E0F9A3E0FAE4
:101E2300A3E0FBA37808E0F608A3DFFAE0FCA3E055
:101E3300FDA3E0FEA3E0FFA3E0C0E0A3E0C0E0A3B6
:101E4300E0F5D0A3E0F520A3E0A3F5F010AF0885FB
:101E530083198582188008858319858218D2AFD0AB
:101E630082D083D0E0F8D0E032740480067402801C
:101E7300027401C0E0F404121C1ED0E0121AF32213
:101E83007404800474028000CCC0E0EDC0E0E51867
:101E9300C39CCCAD1950011D10AF068C188D198051
:101EA300068C188D19D2AF121B00D0E0FDD0E0FCD8
:101EB30022D083D082E9C0E0E493A3C386F0C5F0C7
:101EC30095F0F908E493A386F0C5F095F0700BE460
:101ED30093A3C3994005E9048002A3E475F002A427
:101EE3002582F582E5F03583F583D0E0F9E493A309
:101EF300C0E0E493C0E022D083D082ECC0E0EDC028
:101F0300E0E493A3FCE493A3FDED4C600D121F46A4
:101F1300EC24FFFCED34FFFD80EFE493A3FCE4939A
:101F2300A3FDED4C600D121F85EC24FFFCED34FF87
:101F3300FD80EFD0E0FDD0E0FCE493A3C0E0E493A8
:101F4300C0E022C0E0C3E49396087401939618405E
:101F53000FE4936670080874019366187000701993
:101F6300A3A3C3E49396087401939618A3A3400D07
:101F7300D0E0D0E0D0E0021F36A3A3A3A3A3A3D055
:101F8300E022C0E0C0F088F0E493667008087401B2
:101F93009366187000A8F0A3A3700BD0F0D0E0D024
:101FA300E0D0E0021F36A3A3D0F0D0E02274F512F4
:101FB3001CC9EAFEEBFFEE2434F8EF3400F988087D
:101FC3008909EE2435F582EF3400F583E0F8EE2439
:101FD30037F582EF3400F583E0F50AEC850AF0A4C7
:101FE300FCAAF0850AF0EDA42AFDE82CF8E43DF9FB
:101FF3007A257B00121B62EA850882850983F0F843
:10200300740758F97401B900028004C333D9FCFA88
:10201300E8131313541FF8EE28F8EF3400F9E824FB
:102023005DF582E93400F583E05A6008EE2434F567
:1020330082EF802CEE2434F582EF3400F583E0C088
:10204300E0EE2436F582EF3400F583E0F5F0D0E0DE
:1020530084A8F0EE28F8EF3400F9E82438F582E993
:102063003400F583E0F97F04021D7574F5121CC971
:10207300EAFEEBFFEE2434F582EF3400F583E0C093
:10208300E0EE2435F582EF3400F583D0E0F08E8264
:102093008F83A3A3A3A3A3A3A3C082C0838E828F92
:1020A30083A3A3A3A3A3E0F8A3E0F9D083D082E0A2
:1020B300C398F508A3E099F509EE247FF582EF3480
:1020C30000F583E064017069EE2480F582EF34004B
:1020D300F583E0F8A3E0F98E828F83A3A3A3A3A3E0
:1020E300A3A3E0FCA3E0FD8E828F83A3A3A3A3A3FA
:1020F300E0FAA3E0FBC3EA9CEB9D5010C3EC98ED20
:1021030099402EC3EA98EB995027800EC3EA98EBC7
:10211300994007C3EC98ED9940177CDC7D04EEFAF7
:10212300EFFB120D46EE247FF582EF3400F583E4D6
:10213300F0EE2434F8EF3400F9E8FCE9FDEE243541
:10214300F582EF3400F583E0F8EE2437F582EF34BF
:1021530000F583E0F50AE508850AF0A4F508AAF07E
:10216300850AF0E509A42AF509E82508F8E4350904
:10217300F97A257B00121B62EA8C828D83F0F87456
:102183000758F97401B900028004C333D9FCFAE893
:10219300131313541FF8EE28F8EF3400F9E8245D05
:1021A300F582E93400F583E05A6008EE2434F582C1
:1021B300EF802CEE2434F582EF3400F583E0C0E0A9
:1021C300EE2436F582EF3400F583E0F5F0D0E084B9
:1021D300A8F0EE28F8EF3400F9E82438F582E93462
:1021E30000F583E0F9122AC5022069C082C0838505
:1021F3001882851983E0F8A3E0F9C3EA9CEB9D50AC
:1022030010C3EC98ED99401BC3EA98EB99501480E6
:102213000EC3EA98EB994007C3EC98ED9940047913
:102223000180027900D083D08222EAC39CFAEB9D1D
:10223300FB2274EF121CC99003A2E064086005E05E
:102243006407702A9061C8E060249003D0E0F460D2
:102253001DE0F875F003A4C8AAF02AF974D228FE89
:10226300740339FF8E828F83A3A3A3E07003022339
:1022730065906060E0C0E0EE2468F582EF3400F51D
:1022830083D0E0F0750C45750D05750800750900E0
:10229300E5D914F50AE5D95403F50E6017740365FF
:1022A3000E605CE50A6010EE2467F582EF3400F5FA
:1022B30083E0700302234A900540E06401602AEE44
:1022C3002482F582EF3400F583E060047804800211
:1022D3007800850A08E508C398FA95E0FB120C1408
:1022E3008A088B09EA45097005120F388074EE24B9
:1022F30082F582EF3400F583E070048A0C8B0DE5E0
:102303000A6012850C82850D83F50BE5D9F0A315C0
:102313000BE50B70F6EE2482F582EF3400F583E0D3
:10232300604474FC250AF50A780C121E70AC0AA9E5
:102333000EEEFAEFFB120DE27402121C03E9702693
:10234300AA08AB091213D6793D8E828F83A3A3A368
:10235300A3E0FA7B00120AE8EEFAEFFB120D5E121D
:102363000DF4790080747403650E6056850A107548
:1023730011007810121E70AC0CAD0DAA08AB091237
:102383000DBE7402121C03EE2468F582EF3400F5CF
:1023930083E064807004747F8001E0F50C780C1294
:1023A3001E74E50EF50C780C121E74A90AAC08AD68
:1023B300099003D0E0FA7B00120AAC7402121C03EA
:1023C30080139003A2E06408600BAC0CAD0DEEFA31
:1023D300EFFB120E4E120F4479017F0A021D757432
:1023E300F5121CC974FC121BEDEAFEEBFF8908A26F
:1023F300AFE433F509C2AF806AEE2463F8EF34002B
:10240300F97A007B00A2AFE433F50AC2AF88828970
:1024130083E0FCA3E0FDEC4D603A88828983E0FA17
:10242300A3E0FB8A828B83E0FCA3E0FD888289839F
:10243300ECF0A3EDF08A828B83E4F0A3F088828929
:1024430083E0FCA3E0FDEC4D700A88828983A3A39B
:10245300E4F0A3F0E50AA2E092AF1213D69004E3EE
:10246300E004F0EE2463F582EF3400F583E0F8A393
:10247300E0F9E849603DEE2463F582EF3400F5832B
:10248300E02402FAA3E03400FBEA2402F50AEB3469
:1024930000F50B780A121E708A828B83E0FCA3E09E
:1024A300F9EEFAEFFB120D827402121C03E97003BA
:1024B3000223FC9004E3E060639004E4E0F89004FA
:1024C300E3E0C398500C7402650870509004E5E093
:1024D300604A8E828F83A3A3A3A3E0851882851904
:1024E30083F0A3E4F09004E3E0F87402121C39E8EB
:1024F300F0A3E4F09004E3E0F89004E2E028F07441
:1025030002121C39AC82AD83851882851983AA8295
:10251300AB837901120AB89004E3E4F0E509A2E081
:1025230092AF7404121C0302206900000085218706
:102533008522C622C0E0C0D0E8C0E0E9C0E0EAC01E
:10254300E0EBC0E0ECC0E0EDC0E0EEC0E0C008C0EE
:1025530009C00AC00BC082C083C0F0A2AFE433FE3F
:10256300C2AF759B00906182E0A2E05012E591A298
:10257300E0500C7591FE740165217003122235E061
:10258300A2E55051E591A2E5504B7591DF9003A26E
:10259300E064076005E06408702374016521703509
:1025A30079019003D0E0FA75F003A4CAA8F028FBE0
:1025B30074D22AFA74033BFB1223E28018E0640D01
:1025C30070139003C4E004F064287002E4F07A000E
:1025D300E0F9120F4A906182E0A2E6400302267EF0
:1025E300E591A2E6400302267E7591BF9003A2E027
:1025F30064057008120E78120E848003120E7E7525
:102603002100120ED8E99003A3F07900120ECC1228
:102613000CBC7A017B009003A1E0F91211BA907807
:1026230003E064427055900544E014F0704DC2AF6E
:1026330012263600782AD0E0F618D0E0F6E59F544B
:102643000770057509FF800375097FC4C0E0782909
:10265300E6F50808E65509F509740B7808121BCB53
:10266300D0E02508F8906270E0A2E740F8E8C333B1
:10267300906272F0906270E0D2E0F0906181E0A22B
:10268300E35009E5E9A2E3500375E9F7A3E0A2E704
:102693005009E591A2E7500375917FEEA2E092AF56
:1026A300D0F0D083D082D00BD00AD009D008D0E0AC
:1026B300FED0E0FDD0E0FCD0E0FBD0E0FAD0E0F9C2
:1026C300D0E0F8D0D0D0E032C0E0C0D0C082C08328
:1026D300906183E0A2E05009E5BFA2E0500375BF1B
:1026E300FEE0A2E15009E5BFA2E1500375BFFDE0A2
:1026F300A2E25009E5BFA2E2500375BFFBE0A2E3EB
:102703005009E5BFA2E3500375BFF7E0A2E4500907
:10271300E5BFA2E4500375BFEFE0A2E55009E5BFB2
:10272300A2E5500375BFDFE0A2E65009E5BFA2E6CC
:10273300500375BFBFD083D0828088C0E0C0D0E88B
:10274300C0E0E9C0E0EAC0E0EBC0E0ECC0E0EDC00F
:10275300E0C0F0E5A7A2E6500FE5A1A2E6500953B9
:10276300A7BF75A1BF1227A3E5A7A2E5500CE5A15A
:10277300A2E5500653A7DF75A1DFE5A7A2E1500943
:10278300E5A1A2E1500375A1FDE5A7A2E2500CE586
:10279300A1A2E2500653A7FB75A1FBD0F00226B419
:1027A30074F8121CC97521019003A2E06406701528
:1027B300120E128A828B83A3A3A3A3A3A3E0FAA37B
:1027C300E0FB120E66A2AFE433FED2AF9003A8E0A3
:1027D300640170187A207B009003A1E0F912123E85
:1027E3007A207B009003A1E0F91211C0906182E08E
:1027F300D2E6F0900541E0602185C6228016900361
:10280300A7E064017008E5C654F84405F5C653BE55
:10281300FC1225307401652160E4EEA2E092AF7FE3
:1028230001021D75008E238F2485822885832785C9
:102833001882851983E0CEA3E0CF8528828527837C
:10284300EBC9EAC8EDCBECCA75F010C3E833C8E9AD
:1028530033C9EA33CAEB33CBC3EA9EF526EB9FF5C4
:1028630025B35004AB25AA26EC33CCED33CDD5F0FC
:10287300DAAE23AF242274ED121CC98A088B098CAB
:102883000A8D0B7413121C39780C121AA578087967
:102893000C1214F97510017511C875120075130027
:1028A30050127808790C121A44781079081214F926
:1028B30050168010780C7908121A447810790C128B
:1028C30014F940047901800279007F0C021D7574AC
:1028D300ED121CC98A088B098C0A8D0B7413121C08
:1028E30039780C121AA5780C79081214F94011786A
:1028F30008790C121A44AA08AB09AC0AAD0B802262
:102903007510007511007512007513017810790C9C
:10291300121A4478107908121A0BAA10AB11AC12D0
:10292300AD1380A68A828B837508FF7509FF750A2C
:10293300FF750B007808121A927F04021D7574F557
:10294300121CC98C828D837808121AA58A828B8304
:102953007808121A58EA2404F8EB3400F98C828DB3
:1029630083A3A3A3A3E0FCA3E0FD88828983C3E040
:102973009CF0A3E09DF088828983C3E09420A3E0C8
:10298300944E40268A828B837508FF7509FF750A6A
:10299300FF750BFF7808121A318A828B83A3A3A3D6
:1029A300A3E02420F0A3E0344EF002292774F512AB
:1029B3001CC9E9FE9004F7E0FAA3E0FBEEC333F889
:1029C300E433F9740128F582748139F583E02AF53B
:1029D30008A3E03BF5097808121E707A407B427C1D
:1029E3000F7D001228287402121C038A088B098C9D
:1029F3000A8D0B741078081219D3AA08AB097F0447
:102A0300021D7574F1121CC98A0C8B0D8C0E8D0F6F
:102A1300740F121C39E0FAA3E0FB7411121C39E0A5
:102A2300F508A3E0F5097808121E70EA2401F508F9
:102A3300EB3400F509E4F50AF50B780C7908121963
:102A430053750871750902780C7908121953AA0C89
:102A5300AB0DAC0EAD0F1228287402121C038B09A8
:102A6300EA450960047A0180027A00EC2AFCED341D
:102A730000FD7413121C39E0F8A3E0F9E8FEE9FF46
:102A8300ECF8EDF97A717B02121B62880889098ED2
:102A9300828F837808121AB4ECF8EDF97A717B020D
:102AA300121B628A088B0974057808121BDA8E825E
:102AB3008F83A3A3A3A3E508F0A3E509F07F08028E
:102AC3001D75C082C083E9906000F0D083D082225C
:102AD300C2AF02000022C0E074F2121DB5A2AFE43F
:102AE30033FED2AFE589A2E1500312138275890048
:102AF300C2C5EEA2E092AF7F01021E14C0E074F2E1
:102B0300121DB5A2AFE433FED2AFE58BA2E05003B2
:102B1300121382758B00C2E880D8C0E0C0D0E8C031
:102B2300E0E9C0E0E5A8D2AFC2C7A2E7A2E792AF4F
:102B3300D0E0F9D0E0F8D0D0D0E032C0E0C0D0C0CF
:102B430082C083E58BA2E2500B90098DE070119057
:102B530009838009E58BA2E150069009847401F092
:102B6300758B0075E800C2E8D083D082D0D0D0E066
:102B730032C0E0C0D0E8C0E0E9C0E0C008C009C08E
:102B830082C083E589A2E35025E58CA2E0E5E2F566
:102B930008E5E3F9E508500C900987F0A3E9F05341
:102BA3008CFE800A900985F0A3E9F0438C017589B6
:102BB3000075C000C2C5D083D082D009D008D0E050
:102BC300F9D0E0F880A602011FFFFFFFFFFFFFFF20
:102BD300FFC082C083E9900A53F0022E6374F71298
:102BE3001C5DE99002E1F07C197D037AFF7BFF1203
:102BF30009FE9002E274FFF0A3F0A3E4F0A3F079DE
:102C0300051209869002E1E0F91208A87A1C7B0AF2
:102C1300120BC67F01021D2F74F4121C5D8A088BF0
:102C230009EB548060309002E1E0F91211A28A0AA4
:102C33008B0BAE0AAF0BEE4F60138E828F83E06473
:102C4300B0700312099EEEFAEFFB121190AA08E589
:102C5300096480FB80047A007B00022E3274F21236
:102C63001C5D74FC121BEDEAFEEBFFEE4F60387443
:102C730002121C39EEF0A3EF123097ECF0A3ED1221
:102C83003097AA82AB831208A2E9F5087073741215
:102C9300121C39123C4BE50A450B60658E828F830B
:102CA300122D0EEE4F700575080280557A067B00D3
:102CB3001211F68A0C8B0DA80CA90DE84970057545
:102CC3000813803D88828983E4122D18A3A3EEF0B4
:102CD300A3EF1240E4E50AF0A3E50BF09002E7123C
:102CE3002DA09002E76017E0FCA3E08003EAFCEB71
:102CF300FD8C828D83122DA070F38C828D83123B09
:102D030070A9087404121C030242E6A3A3A3A3E060
:102D1300FEA3E0FF22F0A3F0888289832274F212DB
:102D23001C5D890AE975F017A4FEAFF09002E6E492
:102D3300F09002E4122DA0600A1211FC9002E4E468
:102D4300F0A3F0EEFAEFFB1211F68A088B09EA45BD
:102D530009602FEEFCEFFD790012117E9002E4E58D
:102D630008F0A3E509F07B008008122D8AE4F0A3A4
:102D7300F00BEBC3950A40F2E50A9002E6F0790006
:102D8300800279130242E6EB75F017A4F8A9F090DC
:102D930002E4E028FAA3E0398A82F5832212390695
:102DA300EA4B2274F4121C5D750800750900740C5B
:102DB300121C391240B8FEE9FF800CE5082401F526
:102DC30008E5093400F509C3E5089CE5099D50327F
:102DD30085080A85090B7403780A121BDAEA250AA7
:102DE300F8EB350BF988828983A3A3A3A3A3A312CA
:102DF3003C4BEE650A7003EF650B70BFE8FAE9FB25
:102E030080047A007B00802774F4121C5D7900EA49
:102E1300A2E0501B7508A27509817808121E707C08
:102E2300047D007A557B0A1209807402121C037F09
:102E330004021D2FC082C0839002E7122E6A601C19
:102E430088828983A3A3E06A7003A3E06B888289E5
:102E53008370E8A3A3A3A312390280047A007B0042
:102E6300D083D08202011F1243B9E8492274EE12C3
:102E73001C5D74FC121BEDEAFEEBFF8518828519BD
:102E830083E4F0A3F0EE2402123B54EE2405123047
:102E930085EE2404F50EEF12346AE024FE60392433
:102EA300FC604624FE605224FE605E24FE70030232
:102EB3002F8A24FE700302300224FE7003023011B5
:102EC30024FE700302302024FC700302302F24FE02
:102ED300700302303E02307B9003007417F0A3E4CA
:102EE30012309F12062002307B851882851983AC2D
:102EF30082AD831209A402304B851882851983ACF5
:102F030082AD831209AA02304B850C08850D097422
:102F130002121C39AC82AD8385088285098312397C
:102F2300021208C68A0C8B0DAC0CAD0DEC4D604241
:102F3300E4F50CF50D780C121E70750C00750D037D
:102F4300780C121E70750C01750D03780C121E702F
:102F53007408121C39121E8779161238FC1209E6FE
:102F63007408121C03E9F50C700B1238F8120638BA
:102F7300800F750C0185088285098312308D123B01
:102F830070850C0802304E7402121C39AC82AD837A
:102F9300850C82850D831239021208C68A108B11A3
:102FA300AC10AD11EC4D6043850C82850D83A3A35A
:102FB300121E877510007511037810121E7075109C
:102FC300017511037810121E707408121C39121E39
:102FD3008779161238FC1209E67408121C03E9F506
:102FE30009700B1238F812063E800F750901850C23
:102FF30082850D8312308D123B70850908804C85C4
:103003001882851983AC82AD831209B0803A851882
:1030130082851983AC82AD831209B6802B85188211
:10302300851983AC82AD831209BC801C8518828507
:103033001983AC82AD831209C2800D85188285196C
:1030430083AC82AD831209C8E9F508E50860298ECF
:10305300828F83A3E06414601F850E82850F83E053
:103063009003001230971243B5900301123B70E5B1
:1030730008A312309F12061AEEFAEFFB120944025C
:103083003A5CF50CEF3400F50D221243B985188232
:1030930085198322F085188285198322F07C007DAF
:1030A30003850A82850B831239062274EE121C5D96
:1030B30074FC121BED8A0A8B0B8C0E8D0FEA240510
:1030C300F508EB3400F5097C157D0079007A007B67
:1030D3000312117EE5082402F50CE50912308885F8
:1030E30018828519838582108583117810121E70CA
:1030F300850882850983A3A3A3A31235B2121E7088
:10310300E5082405F510E5093400F5117810121EC1
:1031130070850C82850D8312390C1208C074061257
:103123001C038A108B11AE10AF11E50A2402F50AB5
:10313300E50B123B57EE4F70030232748017740293
:10314300121C3912390288828983EAF0A3EBF090CA
:103153000300E004F0900300E0C39405400302324F
:1031630074E4F510F5117810121E707510E97511DD
:10317300027810121E707510EA7511027810121E73
:10318300707406121C39121E877910EEFCEFFD12C3
:1031930038FC1209E67408121C03E9705E85088284
:1031A300850983A3A3A3A3A3A3A3E0F89002E9E063
:1031B3006870481235B2121E707CEA7D02E508245D
:1031C30008FAE5093400FB1211787402121C03E9B2
:1031D30060298E828F83A3A3A3A3123902900300D5
:1031E300E0F51074027810121BDA74012510F582D1
:1031F30074033511F583EAF0A3EBF07402121C3962
:103203008582108583117810121E707402121C3986
:10321300121E87850C82850D831243CA1208CC7453
:1032230004121C038A108B11AE10AF11900300E03F
:10323300F51075110074027810121BDA7400251052
:10324300F874033511F988828983A3122DA07003C2
:10325300023138E82403F8E93400F9EE4F60030241
:1032630031418882898374FFF0A3F0900300E00466
:10327300F0900300E0600A1238F812062C790080FF
:103283000B850882850983123B67790A023A5C74CD
:10329300EA121C5D74FE121BED8C128D13EA2405D9
:1032A300F50CEB124534122D12750800750900EA6E
:1032B3002402F510EB3400F51185188285198385F6
:1032C300820A85830B780A121E70850C82850D8312
:1032D300A3A3A3A3123474121E70E50C2405F50AEC
:1032E300E50D123B57780A121E70850C82850D83FB
:1032F3001243C81208C07406121C038A0A8B0BEA15
:10330300450B7003023425EA2404F50EEB12346AEC
:10331300122D128A828B83A3A3A3E0F985108285E1
:1033230011831239021208AEE9F50960030234254C
:10333300E4F514F5157814121E707514E975150269
:103343007814121E707514EA7515027814121E7023
:103353007406121C39121E877913AC0AAD0B851043
:10336300828511831239021209E67408121C03E9DB
:10337300F50960030234259002E9E0F8E5087009D5
:10338300E02402900301F08017900301E0FCE8249D
:1033930002FAE43400FBEA6C7001EB6003023429A7
:1033A300850882AA821235A994141235A150738517
:1033B3000E82850F83E0C0E074022A123461D0E0EC
:1033C300F00508850E82850F83A3E0C0E085080A17
:1033D3007402250A123461D0E0F005089002E91264
:1033E3003474121E707CEA7D0285080A7402250A71
:1033F300FA74033400FB1211667402121C03900268
:10340300E9E02508F50874FF6E700374FF6F60121E
:10341300EE24010EEF3400FFE508C39414500302B9
:1034230032BCE50860131237ED85108285118312D3
:10343300390212063279008014E509700375090A0E
:10344300851282851383EEF0A3EFF0A909740212AB
:103453001C037F0E021D2F85080C7402250CF582B8
:1034630074033400F583223400F50F850E82F5834F
:10347300221240F72274EE121C5D74FE121BED8CB7
:103483000E8D0FEA2405F50CEB123088750B0090B6
:103493000300E4F0F50AEA2402F508EB3400F50929
:1034A3008049900300E0FA9002E9E0F81235A9940C
:1034B300171235A1400D900300E0F87416C39890DD
:1034C30002E9F01235B2121E707CEA7D0274012A01
:1034D300FA74033400FB1211667402121C03900287
:1034E300E9E0F8900300E028F0050AE50C2416F55E
:1034F30082E50D123465E0F8E50AC398400302350E
:103503008A900300E0C39416507DE50AC333F8E4C0
:1035130033F9E50C28FEE50D39FF851882851983FB
:10352300AC82AD838E828F831239021208C68A1051
:103533008B11AC10AD11EC4D7005750B018043E49C
:10354300F510F5117810121E707510E975110278D7
:1035530010121E707510EA7511027810121E707425
:1035630006121C39121E8779168508828509831273
:1035730039021209E67408121C03E9F50B70030201
:1035830034A5123B6380107C007D03850882850986
:1035930083123902120644A90B7402023A5EE994BB
:1035A30000C365D03322EA28F8E43400F9E822E0C6
:1035B300F51075110078102274EA121C5D74FC1268
:1035C3001BED8A0C8B0D8C128D13EA2405F50AEB87
:1035D300123B57750800750900E50A2402F510E54A
:1035E3000B3400F5117402121C3985820E85830F8A
:1035F300780E121E70850A82850B83A3A3A3A312E0
:1036030040A3121E70E50A2405F50EE50B3400F500
:103613000F780E121E70851082851183123B5D1286
:1036230038FC1208C07406121C038A0E8B0FAE0EF0
:10363300AF0FE50C2402F50EE50D3400F50F8040C5
:103643008882898374FFF0050812345A74FFF005E9
:10365300089002E9E0F50C750D00780C121E707CE1
:10366300EA7D0285080C7402250CFA74033400FB0E
:103673001211667402121C039002E9E02508F50892
:10368300EE4F60718E828F83A3A3A3E0F9850E8230
:10369300850F831239021208AEE9F509EE240412EC
:1036A3003085E97044E4F514F5157814121E70752D
:1036B30014E97515027814121E707514EA75150253
:1036C3007814121E707408121C39121E877911EEB9
:1036D300FCEFFD850E82850F831239021209E67411
:1036E30008121C03E9F5096027850C82850D8312F6
:1036F30037E3123B70E50870030237C91237ED85D3
:103703000E82850F8312390212064A79000237DED0
:10371300850882AA82EA9002E97009E024049003F2
:1037230001F08022E0F8900301E0F514E82404FCA2
:10373300E43400FDEC65147001ED70C01235A994FA
:10374300121235A150B6850C82850D83E0C0E0745A
:10375300022A123461D0E0F00508850C82850D83BE
:10376300A3E0C0E012345AD0E01237FF85820C8503
:10377300830D780C121E707404121C39121E878577
:1037830010828511831243CA1208CC7404121C03DD
:103793008A0C8B0DAE0CAF0D85080C7402250CF84A
:1037A30074033400F9EE4F700302364385188285A3
:1037B3001983E0888289831237FFA3E0C0E01234C3
:1037C3005AD0E0023651E509700375090A850A8269
:1037D300850B831237E3123B70A909740402345238
:1037E3001243B985128285138322900301E0F5F019
:1037F300E50884900300F07C007D0322F005088532
:1038030018828519832274EC121C5D74FE121BED61
:103813008A088B098C0E8D0FEA2405FEEB3400FF1A
:10382300851882851983AC82AD838E828F8312398A
:10383300021208C68A0A8B0BEE2418123085EA4559
:103843000B70030238D3123A45503285188285191A
:10385300831239021209DA8A108B11EA4511606B5F
:103863007912AC0AAD0B850882850983123902856A
:103873001082851183121C5BE9F50A7058E4F50A7E
:10388300F50B780A121E708E828F83A3A3E0F50ACC
:10389300780A121E70EE2403123B54780A121E702B
:1038A3008E828F8312390C1209EC7406121C03E901
:1038B300F50A7021850C82850D83E0701F850882CF
:1038C3008509831239021206508011750A0E800988
:1038D300750A018004E50A6003123B63850C828547
:1038E3000D83E0600479008002A90A7402121C03AC
:1038F3007F0C021D2F7C007D03850A82850B8312BA
:10390300390622E0FAA3E0FB22E0FCA3E0FD8508F0
:10391300828509831239062274EE121C5D74FE122D
:103923001BED8A088B098C0C8D0DEA2405FEEB3404
:1039330000FF750E00851882851983AC82AD838ED6
:10394300828F831239021208C68A0A8B0BEA450B4F
:103953007003023A31123A4550358518828519832E
:103963001239021209DA8A0E8B0FEA450F605E796B
:1039730012AC0AAD0B850882850983123902850EC4
:1039830082850F83121C5BE9F50E6003023A3485CE
:103993000882850983123C4BAA0AFB1209CE8A10BE
:1039A3008B11A810A911E849701E7AFF7BFF120939
:1039B300CE8A108B11A810A911E849606C888289FE
:1039C30083E50AF0A3E50BF0750A008007750E0E78
:1039D300805F050A9002E6E0FAE50AC39A504AE5D9
:1039E3000A75F017A4FAABF088828983A3A3E02AAF
:1039F300FAA3E03BFB8A828B83123B5DEC4D70D2D2
:103A0300750A17750B00780A121E70EEFCEFFD1293
:103A130011667402121C03EEFCEFFD850882850912
:103A2300831239021206568014750E098003750E2F
:103A3300011243B1850C82850D83123B70A90E02DE
:103A4300359CE5082402F508E5093400F5098A8266
:103A53008B83A3A3A3E0A2E5227404121C037F0AB1
:103A6300021D2F74EC121C5D8C108D11EA2405F5D8
:103A73000CEB123088750F00EA2402F50AEB123BB7
:103A830057850A82F5831239021209CE8A088B09F7
:103A9300EA45097003023B49750E008071850C826B
:103AA300850D83E06401704F8E828F83A3A3121E62
:103AB300878E828F83A3A3A3A3E0F51275130078E7
:103AC30012121E70EE2405F512EF3400F51378126E
:103AD300121E701238FC1209EC7406121C03E9F56D
:103AE3000F6014850C82850D83E4F01243B18510B9
:103AF30082851183123B707C177D007900EEFAEF0B
:103B0300FB12117E8E828F83E4F0A3F0050E9002E8
:103B1300E6E0F8E50EC398501EE50E75F017A4F81D
:103B2300A9F0850882850983A3A312453E123B5D54
:103B3300EC4D6003023AA085088285098374FFF087
:103B4300A3F0E50F70061238FC12065CA90F0238C9
:103B5300F3F50AEF3400F50B22A3E0FCA3E0FD220A
:103B63008E828F831243B9850E82850F83E8F0A37B
:103B7300E9F022C082C0839002E2E06A7003A3E00E
:103B83006B70067AE27B0280047A007B00022E636C
:103B9300C082C08378008C828D83E06A7003A3E0C7
:103BA3006B7010E875F003A4F8A9F0EC28FAED396E
:103BB300FB8015088C828D83A3A3A3E06A7003A303
:103BC300E06B60DF7A007B00022E6374F6121C5DEB
:103BD3001209988A828B83E582458370067A007B7B
:103BE300008007A3A3A3A312390202426274F21254
:103BF3001C5DE9FE740E121C39123C4B7410121C2E
:103C0300391240C38C828D83E064027036A3124361
:103C1300BFF50CA3E0F9A80C74026870037429695A
:103C23007021750C02750D00780C121E7078081245
:103C33001E70780A121E70EEF9120A107406121C16
:103C430003800279010242E6E0F50AA3E0F50B22C4
:103C530074E8121C5D74FB121BEDE985188285194B
:103C630083F08A168B17ECFEEDFF751000741D129E
:103C73001C391243B5741D121C39123B708E828F8E
:103C830083A3A3A3E0A2E4502D741D121C3912399F
:103C9300021209DA8A828B83E5824583700302402C
:103CA30094790AEEFCEFFDAA16AB17121C5BE9F53B
:103CB300106003024097741F121C391240C3742111
:103CC300121C39123C4B7423121C39E0F50EA3E08D
:103CD300F50F8E828F83E064026003024042A312D9
:103CE30043B5850882850983A3858212858313EEF4
:103CF300240612308588828983E0FAA3E0F9EA2456
:103D030000F514E439F5157814121EFA01000028A1
:103D13000128373D07000228FC3D0328693D00299F
:103D2300333F01295E3F0229FF3E0329333F042924
:103D3300DD3F4240E50E450F600302403D850C82A6
:103D4300850D831240B8FAE9FB8A828B83E0850AEA
:103D530082850B831240EE121E708A828B83A3E04E
:103D6300FCA3E0023FC7E50E450F600302403D851B
:103D73000A82850B837401F01240CB850882850982
:103D830083F07C007D008E828F83A3A3A3A3E02412
:103D930001FAA3E03400FB1208C6EA4B60418A82B1
:103DA3008B83E02402F8850A82850B83E028F0EAFE
:103DB3002404F8EB3400F988828983E08512828534
:103DC30013831241001240EE121E708A828B8312FB
:103DD3003B5CE5082403FAE5093400FB023FCC858C
:103DE3000A82850B83E02404F07C047D007900AA19
:103DF30012AB1312117E024097E50E450F600302CA
:103E0300403D1240CBFEA3E0FF850A82850B8374FD
:103E130004F0EE850882850983F0EF85128285130D
:103E230083F07403121C39AC82AD83EEFAEFFB12FC
:103E330008C68A0C8B0DEA450D7003023EE08A82A8
:103E43008B83A3A3122D0E7401121C3985820E8558
:103E5300830F780E121E707405121C39121E877C94
:103E6300FF7DFF1208CC7404121C038B0FEA450F6D
:103E73007033850C82850D831240A3121E70850C4E
:103E830082850D83A3121E877C027D007A197B82B3
:103E93001206F87404121C03E9700A7401121C3927
:103EA30074FFF0A3F08E828F83E064027039750C87
:103EB30002750D00780C121E708E828F83123B5C8C
:103EC300E5082404FAE5093400FB121166740212B2
:103ED3001C03850A82850B83E02402800974011286
:103EE3001C39EEF0A3EFF07401121C391240B4F048
:103EF3007401121C39A31240AC024037E50E450F82
:103F0300600302403D850C82850D83123B5DAA163A
:103F1300AB17120A04850A82850B837402F0EA85C3
:103F23000882850983F0851282851383EB02403A68
:103F3300E50E450F600302403D1240CBF8A3E0F9C4
:103F4300850A82850B837402F0E8850882850983DC
:103F5300F0E985128285138302403A850C82850D30
:103F630083123902121160EAFC8C82A882C3950E77
:103F7300E4950F405FE8650E7002E50F70047C0066
:103F83008022851882851983E0FAE50E2AFAE50F67
:103F93003400FBC3EA98EB94005003E08005E50E80
:103FA300CCC39CFCEC850A82850B83F08C0A750BD1
:103FB30000780A121E70850C82850D83E0250EFCA5
:103FC300A3E0350FFDAA08AB091211667402121C97
:103FD30003024097751007024097E50E450F705A8C
:103FE300850C82850D831243B5850A82850B837404
:103FF30007122D1A1240AC122D1AA3E085128285E6
:104003001383F0E82402FAE93400FB8A828B8312DB
:1040130040AC1240DB1240B4A31240E41240BDF0A6
:10402300E82405F8E93400F9888289831240BDA3A6
:10403300124100A3A3A3A3F0805A75100B805574FB
:104043001D121C391239021209988A828B83E58268
:104053004583603D1243B5880C890DE8450D6031F9
:10406300780E121E70780A121E707808121E707471
:1040730006121C39E0F9EEFCEFFDAA16AB17850C0E
:1040830082850D83121C5B7406121C03E9F51080F4
:104093000375100EA9107405121C037F10021D2F47
:1040A300E0F50E750F00780E22E0850882850983FE
:1040B3002212410A221243B9E82212410AA3A3227F
:1040C300E0F508A3E0F50922850C82850D83E0F86D
:1040D300A3E0F5838882E022A3A3F08A828B83A3E3
:1040E30022F088828983A3A3A3A322F08A828B83ED
:1040F3001240F722E0F50A750B00780A22F0888255
:104103008983A312410A22E0850882850983A3A338
:104113002274EE121C5D74FE121BED8A0A8B0BECEB
:10412300FAEDFB7414121C39E0F510A3E0F51174D9
:1041330016121C39E0FE7418121C39E0F50EA3E0C8
:10414300F50F851882851983AC82AD831208C68A60
:104153000C8B0DEA450D6049851882851983123948
:10416300021209988A828B83E5824583602FA3A379
:104173001240C3E50845096024780E121E707810BA
:10418300121E70EEF9AC0CAD0DAA0AAB0B850882BA
:10419300850983121C5B7404121C038006790E804C
:1041A30002790102359C74F6121C5D74FE121BED3C
:1041B300740C121C391240B8851882851983F07467
:1041C30001121C39E9F0E4F508F5097808121E70AC
:1041D3007508027808121E707404121C398582084F
:1041E3008583097808121E701209EC7406121C03E9
:1041F3007402121C03806874F7121C5DEAFEEBFF65
:1042030089087C197D03120A04EA5402600BA90889
:10421300EEFAEFFB1208BA80027901022C1674F64B
:10422300121C5D74FF6A700374FF6B70168C828DB1
:1042330083124267E4F08C828D83A3A3A3124267A7
:10424300A380181209D48A088B09A808A909E84988
:10425300600D8882898374FF122D18A3A3E4F07F75
:1042630002021D2F74FFF0A3F08C828D83A3A3227F
:1042730074F6121C5D1209D48A828B83E58245830E
:104283006006A3A3E0FA80027A007B0080D174F277
:10429300121C5D8A088B09ECFEEDFF740E121C39AB
:1042A300E0F50A1209D48A0C8B0DA80CA90DE84974
:1042B3007026EEFCEFFD7AFF7BFF1209D48A0C8B8C
:1042C3000DA80CA90DE8497004791180168882891C
:1042D30083E508F0A3E509F088828983A3A3E50AAF
:1042E300F079007F06021D2F74EE121C5DEAFEEBCF
:1042F300FF8C088D09890C7414121C391243B57490
:1043030016121C39123902750D00E8496003024385
:10431300A97402650C60030243A47412121C3912BF
:1043230043BFFCA3E0F9EC2400F50EE439F50FEAF2
:10433300F4F8EBF4F9EC58F8E50F59F9E849705C37
:10434300E5082406F8ED3400F9880A890B8882F51C
:10435300831243CA120A048A108B11E50E6510708A
:1043630004E50F65116042780E121E70850A82857E
:104373000B831243CA120A0A7402121C03E9F50DD5
:104383007027780E121E70850882850983A3A312F5
:1043930043C8120A227402121C03800D750D80801B
:1043A30008750D0D8003750D0BA90D023A618E8200
:1043B3008F831243B922E0F8A3E0F9221243B988AC
:1043C300828983E022A3A3E0FCA3E0FDEEFAEFFBE6
:1043D3002274E8121C5D74E7121BED85188285199F
:1043E30083EAF0A3EBF08C168D17890E7508007520
:1043F30009007431121C39E0F512A3E0F51374338C
:10440300121C39E0F514A3E0F5157435121C39E0DC
:10441300F50FE50975F003A4F8A9F085188285194D
:104423008312453EE0F47003A3E0F47003024521D8
:10443300EE2402F50CEF124534E0700302452185AA
:10444300160A85170B780A121E70AC14AD15AA1242
:10445300AB1312098C7402121C038A0A8B0BEA45F4
:104463000B7003024521E4F510F5117810121E704C
:104473007406121C398582108583117810121E7000
:104483007409121C398582108583117810121E70ED
:10449300851282851383A3A3A3A3121E877914AC69
:1044A3000AAD0B8E828F831239021209E674081249
:1044B3001C03E97069850A82850B83A3A3A3A31256
:1044C30043B57402121C39123B70850C82850D832F
:1044D300E0A2E05018A90E7402121C39AC82AD831D
:1044E3008E828F831239021208DEE94208850C821C
:1044F300850D83E0A2E15026E50FF50A780A121E26
:1045030074A90E7403121C39AC82AD838E828F831F
:104513001239021208D87401121C03E94208050972
:10452300E509C394025003024415A9087419024013
:104533009B3400F50D850C82F58322E028FEA3E071
:1045430039FF8E828F832274F2121C5DEAFEEBFF29
:10455300890B7401650B600E7402650B706A790137
:10456300120BE4E97062EEFAEFFB1209CE8A088BB4
:1045730009EA45096047750A00800B7C177D0079BD
:104583000012117E050A9002E6E0F8E50AC398508E
:1045930021E50A75F017A4F8A9F085088285098337
:1045A300A3A3E028FAA3E039FB8A828B83122E6A45
:1045B30070C985088285098374FFF0A3F07C197D97
:1045C30003EEFAEFFB1209FE0242E674F2121C5DDF
:1045D3008A088B09ECFEEDFF740E121C39123C4B5A
:1045E300900A53E0F4603D7A097B0012118AEA4B8A
:1045F30060328A828B8374B1F0A3E41240DDA3128C
:1046030040DBA3E508F0A3E50912462AEEF0A3EF89
:1046130012462AA3A3E50AF0A3E50BF0900A53E0A0
:10462300F91211960242E6F08A828B83A3A3A3A315
:10463300A322C082C0839061907404F0A37448F0F5
:10464300A37402F09061807440F09061BC7403F035
:104653009061877419F0906265741BF0906249E071
:10466300C3941390619C400A7409F09060667401CE
:104673008007740DF0906066E4F090619A7433F0F3
:10468300A37455F09061A0743AF090053FE0640183
:104693007009C2919003A6746780059003A67461A4
:1046A300F0902BD2E493906186F0902BCCE493F4BA
:1046B3006027E493540FF8906185E0686012E5C6C3
:1046C30054804449F5C6E59E547F644970F8E8F088
:1046D30053C680E59E547F70FA7905120F2C024869
:1046E30063C082C083E5A8F853A87E906181E4F09B
:1046F300A3F0A3F0C2BA539AFEC289759B00C2C24B
:1047030075E90075910075BF0075A91175B905901C
:104713006181F0A374C0F0A3E4F0D2BA439A0174A8
:10472300805842A8024863C082C08374F8121BED0C
:104733009003A4E0F8A3E0F9E84970030248589015
:1047430003A4E0544060237908851882851983AA5D
:1047530082AB83120DA0851882851983AA82AB834D
:10476300120A949003A4E054BFF0E05480601079DF
:104773000C7A657B05120DA09003A4E0547FF0E052
:10478300A2E0503190619A7433F0A37455F09061B4
:10479300A0743AF090053FE064017009C291900360
:1047A300A6746780059003A67461F0120A9A9003B9
:1047B300A4E054FEF0E05402603190619A743FF03B
:1047C300A3745AF09061A0747FF090053FE06401F8
:1047D3007009D2919003A6747180059003A6746A40
:1047E300F0120A9A9003A4E054FDF0E0540460131D
:1047F300902BD0E493906186F0120AA09003A4E07A
:1048030054FBF0E054086013902BD1E4939061863D
:10481300F0120AA09003A4E054F7F0E054106013E0
:10482300902BD2E493906186F0120AA09003A4E047
:1048330054EFF0E05420600A120AA09003A4E0545D
:10484300DFF0A3E05401600D120CC8120AA6900316
:10485300A5E054FEF07408121C03024863F0A3F0B1
:10486300D083D08202011F74EC121C5D74F4121BFE
:10487300ED851882851983AC82AD8375838175823A
:10488300D07404121B00902BD093F460030249F6FA
:10489300907808E0C3940250030249D67404121CB2
:1048A30039AC82AD837583817582927408121B00C3
:1048B3008518828519838582128583137404121CDB
:1048C30039AC82AD83750EFF750FFF7FFF7E0075D8
:1048D3000C48750D78801574086E700302496A746C
:1048E300096E700302496A740A6E607B850C8285C7
:1048F3000D837808121AA58C828D83A909E50AC94C
:10490300F88810741878081219D3E5104508F8C30D
:10491300E098A3E099850C82850D837808121AA587
:1049230040188C828D83741878081219D3E51045CA
:1049330008F8E0C398F8A3E0801C741878081219EB
:10494300D3E5104508FAE9FB8C828D83E0F8A3E0F8
:10495300F9EAC398F8EB99F9C3E8950EE9950F5076
:1049630006880E890FEEFF0EE50C2404F50CE50D09
:104973003400F50DEEC3941350030248DA74FF6557
:104983000E700474FF650F60238F08740278081299
:104993001BDA74482508F58274783509F58378089D
:1049A300121AA5851282851383E508F0EC2402FC14
:1049B300ED3400FD851282851383A38582128583DE
:1049C30013740C121C39E5826C7003E5836D60036C
:1049D3000248C87508017509007808121E70740230
:1049E300121C39AC82AD837AF47B0A12135E740213
:1049F300121C03740C121C037F0C021D2FC082C0F7
:104A0300839061AE7468F0A3746AF090624574FB9E
:104A1300F0A304F053F4FD43FE0290053F7401F04C
:104A23009061A0E0643A90619A70237433F0A374A8
:104A330055F09061A0743AF0740164017009C29159
:104A43009003A6746780289003A674618021743F45
:104A5300F0A3745AF09061A0747FF0740164017044
:104A630009D2919003A6747180059003A6746A021B
:104A730048627F08021D2FC082C0839004F1E06466
:104A830001700A9004F6E06004790C800279000258
:104A93004863C082C08375E1F19004F4E0605B1465
:104AA300600914605F14605714705E120CDA90048E
:104AB300EAE0F97AEB7B04120EAE7AD67BBE7C89F0
:104AC3007D8E120EE47A557B557C557D00120EBA0D
:104AD3009004F5E0F9120EC67901120F209004E854
:104AE300E0F8A3E0C82416F582E83400F58374F2F5
:104AF300F0A3740CF07900024863120CE080AF124B
:104B03000CE680AA120CEC80A5791280EA74F012EC
:104B13001C5D75D90D9004D5E0A2E0E4331313F8BE
:104B23009004EAE0C4333354C0484401F5D978E82B
:104B3300790488828983A3A3A3E0F5D98882898332
:104B4300A3A882A983E864EE7003E9640470E378A0
:104B5300D5790488828983A3E0F5D988828983A3E0
:104B6300A882A983E864DB7003E9640470E575E156
:104B7300959004D5E0F97AD67B04120EB4900A75A9
:104B8300748CF0A3740CF0A374E8F0A3740DF0A379
:104B930074E8F0A3740DF0A374E8F0A3740DF0A30C
:104BA3007492F0A3740CF0A374E8F0A3740DF0A353
:104BB30074AAF0A3740CF0900A8374E8F0A3740D44
:104BC300F0A374E8F0A3740DF0A374E8F0A3740DDC
:104BD300F0A374E8F0A3740DF0A374E8F0A3740DCC
:104BE300F0A374E8F0A3740DF09004F4E064019072
:104BF30004E87012E0F8A3E0F5838882A3A37508A4
:104C0300007509088010E0F8A3E0F5838882A3A368
:104C1300750804750900750A00750B007808121AE7
:104C23001E750CFF750DFF750EFF750F0078087963
:104C33000C121A6C9004E8E0F8A3E0C8240EF58285
:104C4300E83400F5837808121AB49004E8E0F8A376
:104C5300E0C82414F582E83400F5837413F090035C
:104C6300A27402F0024A7574F7121C5D9004FAE014
:104C73002407F5D99004EAE0C4333354C0F5D97856
:104C8300E8790488828983A3A3A3E0F5D98882897C
:104C930083A3A882A983E864EE7003E9640470E344
:104CA3009004FAE0601F78E87904FAE82413F582A7
:104CB300E93400F583E0F5D988828983A3A882A922
:104CC300831AEA70E690051AE02407F5D99004EAFE
:104CD300E0C4333354C04404F5D978E879048882B6
:104CE3008983A3A3A3E0F5D988828983A3A882A992
:104CF30083E864EE7003E9640470E390051AE060EE
:104D03001F78E87904FAE82433F582E93400F5835F
:104D1300E0F5D988828983A3A882A9831AEA70E679
:104D230075E195900A757498F0A3740CF0A374E878
:104D3300F0A3740DF0A374E8F0A3740DF0A374E86A
:104D4300F0A3740DF0A37492F0A3740CF0A374E8B1
:104D5300F0A3740DF0A374AAF0A3740CF0900A836B
:104D630074E8F0A3740DF0A374E8F0A3740DF0A33A
:104D730074E8F0A3740DF0A374E8F0A3740DF0A32A
:104D830074E8F0A3740DF0A374E8F0A3740DF0902D
:104D930004E8E0F8A3E0C8240EF582E83400F583C4
:104DA30074FFF0A3F0A3F0A3F09004E8E0F8A3E00D
:104DB300C82414F582E83400F5837412F09003A23A
:104DC3007401F0FF021D2F74F7121C5D9004FAE0CA
:104DD3002407F5D99004EAE0C4333354C04402F500
:104DE300D978E8790488828983A3A3A3E0F5D988D5
:104DF300828983A3A882A983E864EE7003E964042B
:104E030070E39004FAE0601F78E87904FAE8241369
:104E1300F582E93400F583E0F5D988828983A3A874
:104E230082A9831AEA70E675E195900A7574A4F075
:104E3300A3740CF0A374A4F0A3740CF0A374A4F0F3
:104E4300A3740CF0A374A4F0A3740CF0A374A4F0E3
:104E5300A3740CF0A374A4F0A3740CF0A374AAF0CD
:104E6300A3740CF0900A8374E8F0A3740DF0A37498
:104E7300E8F0A3740DF0A374E8F0A3740DF0A37429
:104E8300E8F0A3740DF0A374E8F0A3740DF0A37419
:104E9300E8F0A3740DF09004E8E0F8A3E0C8240E52
:104EA300F582E83400F58374FFF0A3F0A3F0A3F0D8
:104EB3009004E8E0F8A3E0C82414F582E83400F590
:104EC300837414F09003A27404F002519174F712E6
:104ED3001C5D9004FAE02407F5D99004EAE0C4339A
:104EE3003354C04406F5D978E8790488828983A3CA
:104EF300A3A3E0F5D988828983A3A882A983E86460
:104F0300EE7003E9640470E39004FAE0601F78E84C
:104F13007904FAE82413F582E93400F583E0F5D93E
:104F230088828983A3A882A9831AEA70E690051A66
:104F3300E02407F5D99004EAE0C4333354C04404B1
:104F4300F5D978E8790488828983A3A3A3E0F5D906
:104F530088828983A3A882A983E864EE7003E96445
:104F63000470E390051AE0601F78E87904FAE824F6
:104F730033F582E93400F583E0F5D988828983A388
:104F8300A882A9831AEA70E675E195900A75749E62
:104F9300F0A3740CF0A374E8F0A3740DF0A374E809
:104FA300F0A3740DF0A374E8F0A3740DF0A374E8F8
:104FB300F0A3740DF0A374E8F0A3740DF0A374AA26
:104FC300F0A3740CF0900A8374E8F0A3740DF0A3BB
:104FD30074E8F0A3740DF0A374E8F0A3740DF0A3C8
:104FE30074E8F0A3740DF0A374E8F0A3740DF0A3B8
:104FF30074E8F0A3740DF09004E8E0F8A3E0C8248B
:105003000EF582E83400F58374FFF0A3F0A3F0A358
:10501300F09004E8E0F8A3E0C82414F582E8340033
:10502300F5837415F09003A27403F0025191C082CA
:10503300C0839004E8E0F8A3E0C82406F582E834CE
:1050430000F583E402486074F7121C5D9003D0E01E
:10505300F875F003A4C8AAF02AF974D228F87403E7
:1050630039F9E82405FAE93400FB8A828B83E0FCF2
:10507300A3E0FD88828983A3A3A3A3A3A3A3A3A3DC
:10508300ECF0A3EDF088828983A3A3A3A3A3A3A336
:10509300E024FFF8A3E034FFF98A828B83E8F0A3CE
:1050A300E9F002519174F7121C5DEAFEEBFF906187
:1050B300D0E0600302518575D90E75D90375D90403
:1050C300EE248BF582EF3400F583E5822408F8E5BE
:1050D300833400F9E0F5D9A3E865827003E96583B9
:1050E30070F2EE2483F582EF3400F583E582240425
:1050F300F8E5833400F9E0F5D9A3E865827003E9A4
:10510300658370F275E1957908EE248BFAEF34002C
:10511300FB120D947904EE2483FAEF3400FB120D95
:10512300947C00EEF8EFF9ECFAC3E49AFA95E0FB0D
:10513300EE2AFAEF3BFBEA248AF582EB3400F5838F
:10514300E0C0E0E824AAF582E93400F583D0E0F07A
:105153000C88828983A3A882A983ECC3940840C7DF
:10516300EE246FF582EF3400F583E0F8A3E0F9EE67
:105173002471F582EF3400F583E8F0A3E9F07901B7
:10518300800279008008F0EEA2E092AF79007F01FF
:10519300021D2FC082C08375D90275D90375D90545
:1051A30075E195EA246FF582EB3400F583E0F8A30B
:1051B300E0F9EA2471F582EB3400F583E8F0A3E922
:1051C300F0790102486374F6121C5DEAFEEBFF906E
:1051D30005457406F07508457509057808121E70B3
:1051E3007C017903120DDC7402121C0375D9067558
:1051F300D903758245758305E0F5D9A3E582644A31
:105203007004E583640570F075E1959003A2E06492
:1052130008701EEE246FF582EF3400F583E0F8A3E7
:10522300E0F9EE2471F582EF3400F583E8F0A3E9A9
:10523300F0790102549774F6121C5DEAFEEBFF90BD
:1052430061D0E070667801900545740BF09003A27D
:10525300E0640770197508457509057808121E7012
:105263007C017903120DDC7402121C0378057401AE
:1052730028F5D975D903758245758305E8FAE0F5F4
:10528300D9A31AEA70F875E195EE246FF582EF342D
:1052930000F583E0F8A3E0F9EE2471F582EF340022
:1052A300F583E8F0A3E9F0790180027900025497CD
:1052B30074F7121C5DEAFEEBFF75D90375D903750C
:1052C300D90DEE24DDF582EF3400F583E0F5D975D1
:1052D300E1957904120EEAEE246FF582EF3400F5BE
:1052E30083E0F8A3E0F9EE2471F582EF3400F5834F
:1052F300E8F0A3E9F0790102519174F6121C5DEA1A
:10530300FEEBFF9061D0E0F87480C398FAEE24823C
:10531300F582EF3400F583E06004780480027800BE
:10532300E8240BF8EAC39850030253C27D099005A1
:1053330045EDF0EE24E2F8EF3400F97A467B057C84
:105343000888828983E08A828B83F088828983A399
:10535300A882A9838A828B83A3AA82AB831CEC7065
:10536300E0EE2482F582EF3400F583E0601D7508DA
:10537300457509057808121E707C097903EEFAEF6A
:10538300FB120DDC7402121C037D0D74012DF5D983
:1053930075D9037582457583058D08E0F5D9A31585
:1053A30008E50870F675E1957904120EEAEE241DFE
:1053B300F582EF3400F583E4F0A3F07901800279FC
:1053C3000002549774F6121C5DEAFEEBFF9061D065
:1053D300E0F87480C398FAEE2482F582EF3400F586
:1053E30083E06004780480027800E82408F8EAC3C4
:1053F3009850030254957806900545740CF0900379
:10540300BFE0900546F09003C0E0900547F090039D
:10541300C1E0900548F09003C2E0900549F0900385
:10542300C3E090054AF0EE2482F582EF3400F58361
:10543300E0601B7508457509057808121E707C0627
:105443007903EEFA120DDC7402121C03780A74015C
:1054530028F5D975D9037582457583058808E0F564
:10546300D9A31508E50870F675E1957904120EEADB
:10547300EE246FF582EF3400F583E0F8A3E0F9EE54
:105483002471F582EF3400F583E8F0A3E9F07901A4
:10549300800279007F02021D2F74F6121C5DEAFE62
:1054A300EBFF9061D0E0F87480C398FAEE2482F5A4
:1054B30082EF3400F583E06004780480027800E82A
:1054C3002404F8EAC3985003025576780290054500
:1054D300E8F0EE24F4F582EF3400F583E09005461E
:1054E300F0EE2482F582EF3400F583E0601B75084B
:1054F300457509057808121E707C027903EEFA12CD
:105503000DDC7402121C037806740128F5D975D9D1
:10551300037582457583058808E0F5D9A31508E569
:105523000870F675E195EE2473F582EF3400F58388
:10553300E4F0EE247FF582EF3400F583E4F0EE240B
:105543001DF582EF3400F583E4F0A3F07904120E25
:10555300EAEE240DF582EF3400F583E0F8A3E0F9D9
:10556300EE2471F582EF3400F583E8F0A3E9F079D6
:10557300018002790002549774F6121C5D9061D089
:10558300E0F87480C398FCEA2482F582EB3400F5DA
:1055930083E06004780480027800E82404F8ECC314
:1055A30098405B79029005457407F0EA24F5F5828B
:1055B300EB3400F583E0900546F0EA2482F582EBB4
:1055C3003400F583E06018750845750905780812FD
:1055D3001E707C0209120DDC7402121C037906741E
:1055E3000129F5D975D903758245758305E9F8E075
:1055F300F5D9A318E870F875E1957901800279006F
:1056030002549774F5121C5DE9FCA2AFE433F50A6A
:10561300C2AF7D0080010DEA246EF582EB3400F504
:1056230083E0F8EDC398501A8D08EA2508F8EB34A7
:1056330000F9E8246AF582E93400F583E06C70D65A
:105643008024EA246EF8EB3400F9E0FEEA2EFAEB4C
:105653003400FBEA246AF582EB3400F583ECF0882E
:10566300828983E004F0E50AA2E092AF7F03021D82
:105673002F74F6121C5DA2AFE433FDC2AFEA246EB1
:10568300F582EB3400F583E014F07C0060368C087F
:10569300EA2508F8EB3400F9E8246BF582E93400D5
:1056A300F583E0C0E0E8246AF582E93400F583D0AD
:1056B300E0F00CEA246EF582EB3400F583E0F8ECBD
:1056C300C39840CAEA246DF582EB3400F58374FF76
:1056D300F0EA2469F582EB3400F583E4F0EDA2E00F
:1056E30092AF025497C082C083E5A8F8C2AFEA2400
:1056F3006AF582EB3400F583E9F0EA2469F582EB7D
:105703003400F583E4F0E8A2E7A2E792AF0248632E
:1057130074F3121C5DEAFEEBFFECFAEDFB8A828B5D
:1057230083A3A3A3A3E0541FF0EE2436F582EF3442
:1057330000F583E4F0F50AEEFCEFFD8A828B83E04B
:10574300C0E0EC245DF582ED3400F583D0E0F07524
:105753000B00E50A33333354F8F50C8A828B83E06C
:10576300F508750900E50B7808121BBBE508A2E0F4
:10577300502FEE2436F8EF3400F988828983E0F560
:1057830008EE2508F508EF3400F509E5082438F597
:1057930082E5093400F583E50CF088828983E0040F
:1057A300F0050B050CE50BC3940840AF050A8A828C
:1057B3008B83A3AA82AB838C828D83A3AC82AD83BC
:1057C300E50AC39405500302573E7F05021D2F745B
:1057D300F7121C5D9003CEE0640170030259307A26
:1057E300009003D4E060030259307401F0A3E4F0A5
:1057F300A3F090043404F0900439F09003D7E4F05C
:10580300A3F0A3F0A3F09003E104F0900407E4F005
:105813009003EAF0A3F0A3F0A3F0A3F0A3F0A3F0A6
:10582300900451F0900445F090043A7480F0A3E49E
:10583300F0900440F09004BCF0A3F0A3F0A3F0A315
:10584300F0A3F0A3F0A3F09004C5F0900454F090FB
:1058530004A4F0A3F0A3F0A3F0A3F0A3F0A3F0A398
:10586300F0A3F0A3F09004B0F09004B2F09004AE73
:10587300F09004C8F0A3F0A3F0A3F0A3F0A3F0A367
:10588300F0A3F078CE7903E8246EF582E93400F5CD
:105893008374FFF00A88828983A3A882A983EAC359
:1058A300940440E37ACE7B0378DC7904888289838D
:1058B300E0C0E0EA2461F582EB3400F583D0E0F048
:1058C30088828983A3A882A9838A828B83A3AA82DD
:1058D300AB83E864E17003E9640470D07ACE7B03A0
:1058E30078B5790388828983A3E0C0E0EA24E6F5EA
:1058F30082EB3400F583D0E0F088828983A3A88209
:10590300A9838A828B83A3AA82AB83E864BD7003D5
:10591300E9640370CF9003CEE004F0640170089053
:1059230003D6E09003D0F07AD27B0380047A007B25
:1059330000025191C082C0839003D5E4F09003D458
:10594300F09003CEF0A3F0A374FFF075E1F10248E9
:1059530063C082C083780079009003D5E060047847
:10596300D2790388828983A3A3A3A3E0F9024863BE
:1059730074F6121C5DEAFEEBFFEE2463F582EF344E
:1059830000F583E0F8A3E0F9E8497003025A18EE42
:105993002463F8EF3400F97A007B00A2AFE433F517
:1059A30008C2AF88828983E0FCA3E0FDEC4D603A36
:1059B30088828983E0FAA3E0FB8A828B83E0FCA3DD
:1059C300E0FD88828983ECF0A3EDF08A828B83E487
:1059D300F0A3F088828983E0FCA3E0FDEC4D700A1C
:1059E30088828983A3A3E4F0A3F0E508A2E092AF41
:1059F3001213D69004E2E004F09004E3E004F0EE26
:105A03002463F582EF3400F583E0F8A3E0F9E84975
:105A130060030259928E828F83A3A3A3E0600F8E4B
:105A2300828F83A3A3A3E4F09003CFE014F0900349
:105A3300CEE014F070069003D074FFF08E828F8353
:105A4300A3A3E4F09004E1E0700D9003CFE06401C0
:105A530070057900120ECCEEFAEFFB120E0C025415
:105A63009774F7121C5DEAFEEBFF8E828F83A3A36C
:105A7300A3A3E0FA7B00120AE8EEFAEFFB120D5E35
:105A8300120DF4025191C082C08378B579038882E4
:105A93008983A3E4F088828983A3A882A983E86425
:105AA300BD7003E9640370E69003B67401024862B3
:105AB30074F6121C5DEAFEEBFFEC2403F8ED3400F0
:105AC300F988088909EC2407F8ED3400F9E8FCE9C2
:105AD300FD8C828D83E0F8A3E0F985088285098334
:105AE300E0FAA3E0FB121B62EE240DF582EF340013
:105AF300F583E8F0A3E9F08C828D83E0F8A3E0F965
:105B0300850882850983E0FAA3E0FB121B628B09F7
:105B1300EA45096013EE240DF582EF3400F583E0C6
:105B23002401F0A3E03400F002549774F6121C5DD4
:105B3300EAFEEBFFEE242EF582EF3400F583E0FC62
